:100000000C9407010C942F010C942F010C942F01D8
:100010000C942F010C942F010C942F010C942F01A0
:100020000C942F010C942F010C94170E0C94A90C16
:100030000C942F010C942F010C942F010C942F0180
:100040000C942F010C942F010C942F010C942F0170
:100050000C9431010C942F010C942F010C94340555
:100060000C942F010C942F010C942F010C942F0150
:100070000C942F010C942F010C942F010C942F0140
:100080000C942F010C942F010C942F010C942F0130
:100090000C942F010C942F010C942F010C942F0120
:1000A0000C942F010C942F010C942F01430646064B
:1000B000350639063F066706670667064A064E0696
:1000C000520658065C066706620605010904A1018E
:1000D00085030509190129101500250175019510E1
:1000E000550065008102050109011581257FA100E8
:1000F00009300931750895028102C0C00000000274
:1001000000090F0000030401000C000000000000C3
:1001100000000000000000000000000408020110C0
:100120004080401020408040800802040180402030
:100130001002011080102040402004040404040335
:100140000405020202020403020202020606060677
:100150000606040402020204040000000023002634
:100160000029002C002F0000000000250028002B93
:10017000002E00310000000000240027002A002D7E
:10018000003000080B000202020100090400000117
:1001900002020000052400100105240101010424CD
:1001A000020605240600010705810310004009042A
:1001B0000100020A000000070502024000000705D6
:1001C000830240000012010002EF02014041233689
:1001D0008000010102030112010002000000404101
:1001E00023368000010102030141726475696E6F5C
:1001F000204C4C430041726475696E6F204C656FF2
:100200006E6172646F0004030904D401F6071124BF
:100210001FBECFEFDAE0DEBFCDBF12E0A0E0B1E05D
:10022000E8E3FEE102C005900D92A032B107D9F7D4
:1002300022E0A0E2B2E001C01D92A73CB207E1F7C4
:1002400012E0CEE0D2E004C02297FE010E94E60E4A
:10025000CA30D107C9F70E94AE0E0C941A0F0C9445
:1002600000001F920F920FB60F9211242F933F930D
:100270004F935F936F937F938F939F93AF93BF93AE
:10028000EF93FF93E0912002F09121020995FF91F5
:10029000EF91BF91AF919F918F917F916F915F91FE
:1002A0004F913F912F910F900FBE0F901F90189577
:1002B000CF93DF93EC0180912F02811113C0109234
:1002C0002602109225028AEC90E0909328028093F7
:1002D000270282E390E090932A028093290281E032
:1002E00080932F020E94260565E272E00E94B70407
:1002F000188219821B821A82DF91CF9108950F9381
:100300001F93FC01A62F82819381411113C001E04C
:1003100010E020E030E0062E04C0000F111F221F65
:10032000331F0A94D2F700951095082319231383DD
:1003300002830FC041E050E060E070E004C0440F71
:10034000551F661F771FAA95D2F7482B592B538349
:1003500042831F910F910895FC0160830895FC0171
:1003600061830895CF93DF9300D000D0CDB7DEB77F
:10037000FC019281838199838A8380818B8381812F
:100380008C830E94260524E030E0AE014F5F5F4F72
:1003900063E00E94D4040F900F900F900F90DF91B4
:1003A000CF9108950C94B2018BE292E00C94580125
:1003B000AF92BF92CF92DF92EF92FF920F931F9373
:1003C000CF93DF9307E011E0C9E0D1E0A12CF1E089
:1003D000C13ADF0771F1FE01319780810E94D70693
:1003E000BB24B394892B09F0B12C8881B816E9F0AD
:1003F0000E947E05C980DA80EB80FC806C197D0943
:100400008E099F096A3171058105910510F50DC0AE
:100410006F3FA9F5F8016081B69E602D11248BE233
:1004200092E00E94AC01AA24A394085F1F4F289673
:10043000CECFAA2071F18BE292E0DF91CF911F9194
:100440000F91FF90EF90DF90CF90BF90AF900C9402
:10045000B201B8820E947E0569837A838B839C8374
:10046000FE01339760816E3F99F6F8016081B69E78
:10047000602D11248BE292E00E94AF01D4CFF801ED
:100480004081B49E402D11248BE292E00E947F01B6
:10049000CACFDF91CF911F910F91FF90EF90DF9026
:1004A000CF90BF90AF90089580913C0290913D0213
:1004B0004897E9F080913C0290913D02019690931B
:1004C0003D0280933C0260E08BE00E94A10668E25E
:1004D00070E080E090E00E94AD0561E08BE00E945A
:1004E000A10665E070E080E090E00C94AD05089511
:1004F00080913C0290913D02892BE9F080913C0271
:1005000090913D02019790933D0280933C0260E000
:1005100087E00E94A10668E270E080E090E00E941F
:10052000AD0561E087E00E94A10665E070E080E033
:1005300090E00C94AD05089582E290E090933D0226
:1005400080933C0280913C0290913D02181619065E
:100550001CF40E947802F6CF089561E08BE00E94BF
:10056000680661E08BE00E94A10661E087E00E94DE
:10057000680661E087E00E94A10660E085E00E94D5
:1005800068060C949C02CF93DF93893108F088E1D0
:10059000C82FD0E080913C0290913D028C179D07BE
:1005A00054F480913C0290913D028C179D076CF4AD
:1005B0000E945402F6CF80913C0290913D02C817F0
:1005C000D9071CF40E947802F6CFDF91CF910895ED
:1005D00085E00E94D70621E0892B09F020E0822FD8
:1005E0000895CF93C09139020E94E802C81731F0F4
:1005F0000E94E8028093390281E001C080E0CF913F
:10060000089520913C0230913D0280913A029091F0
:100610003B022817390731F080913A0290913B0252
:100620000C94C302089588E10C94C30280E090E02A
:100630000E94040F8F7190E090933B0280933A02E6
:100640000C94010360913C0270913D0280E090E0C7
:100650000C940C0FCF93DF93C8E0D1E081E0C03A57
:10066000D80731F062E088810E9468062896F6CFAC
:100670000E94AD020E94160340E855E260E070E07F
:1006800080E692E00E94E10780E692E00E94E707A0
:100690008823D1F38BE292E00E94D20180E1809323
:1006A00081001092800021E02093220280E49CE9E6
:1006B0009093240280932302909387008093860076
:1006C00081E18093810088ED91E0909321028093F5
:1006D000200220936F0010928100109285001092EA
:1006E000840080912202806180938100DF91CF910C
:1006F000089561EB71E080E692E00E940B09609141
:100700003C0270913D024AE050E080E692E00C9499
:1007100089090E94F1028823F1F00E94E8028823EF
:1007200071F080913C0290913D029927909338029C
:10073000809337020E949C026AEB71E006C08091B0
:1007400037020E94C30261ED71E080E692E00E94F0
:1007500011090E94790380E692E00E942A07181688
:100760001906BCF580E692E00E943A078B3219F434
:100770000E945402EECF8D3219F40E947802E9CF24
:100780008D3619F40E949C02E4CF8D3419F40E9436
:100790001303DFCF863659F441E060E070E080E675
:1007A00092E00E94110A862F0E94C302D2CF8337A3
:1007B00049F40E94220365EE71E080E692E00E9417
:1007C0001109C9CF863729F28C3629F60E94160303
:1007D000C0CF0895FB0128E4208329E4218324E489
:1007E0002283DC011D962C911D972F702F5B238394
:1007F0001D968D919C911E9724E0969587952A953C
:10080000E1F78F708F5B848385E00895CF93DF934A
:10081000CDB7DEB769970FB6F894DEBF0FBECDBF78
:10082000FC01DB018C918F5F8C93BE016F5F7F4F6A
:1008300089E1DB011D928A95E9F799E0998384E0CB
:100840008A8321E02D8383E08E839A8791E29B87C0
:100850002C872D872F8792E2988B97E09B8B95E0D2
:100860009C8B8E8B80E490E0988F8F8B298F828178
:100870008B8395858685998B8A8B838180688D8B08
:1008800049E150E080E00E945E0C69960FB6F89452
:10089000DEBF0FBECDBFDF91CF910895DC01FB011C
:1008A00012962C91129730E0848195812817390790
:1008B000D1F491818081813A31F481E0913091F0DD
:1008C000933089F411C0813271F49B3021F482811C
:1008D0001F968C9305C09A3031F4828150968C9388
:1008E00081E00895089580E00895EF92FF920F93BC
:1008F0001F93CF93DF937C01FB018081813871F5D9
:100900008381823259F5D70112968C91129790E02B
:10091000248135812817390709F51B96CD91DC9183
:100920001C9700E010E0209789F04C815D816A817E
:100930007B8180E80E945E0C8F3FBFEF9B0759F0E0
:10094000080F191F0990D881C02DEDCF81E0F70164
:100950008787C80105C08FEF9FEF02C080E090E05D
:10096000DF91CF911F910F91FF90EF900895FC01BF
:10097000A385B485109719F47487638709C08D9196
:100980009C911197009711F0DC01F9CF6D937C9346
:1009900085859685DB0114962D913C911597820FE4
:1009A000931F968785870895AF92BF92CF92DF926B
:1009B000EF92FF920F931F93CF93DF931F92CDB7C8
:1009C000DEB77C0169836A01590141E050E0BE0154
:1009D0006F5F7F4FFC0183810E94C30B8C0197FDE9
:1009E0000BC0F7018381A501B60180640E94C30B8F
:1009F00097FD02C0800F911F0F90DF91CF911F9143
:100A00000F91FF90EF90DF90CF90BF90AF9008953F
:100A1000CF93DF93EC0121E02C832D830A969F83F3
:100A20008E831986188687EF91E0998388831C86C8
:100A30001B861E861D862F87288B81EC8A870E9445
:100A4000E108BE01DF91CF910C949A0880914F028A
:100A5000811107C08EE392E00E94080581E0809337
:100A60004F028EE392E008951F920F920FB60F92FD
:100A700011242F933F938F939F93AF93BF938091B4
:100A8000580290915902A0915A02B0915B023091A4
:100A9000570223E0230F2D3720F40196A11DB11D2D
:100AA00005C026E8230F0296A11DB11D2093570211
:100AB0008093580290935902A0935A02B0935B021C
:100AC00080915C0290915D02A0915E02B0915F0204
:100AD0000196A11DB11D80935C0290935D02A093CD
:100AE0005E02B0935F02BF91AF919F918F913F9152
:100AF0002F910F900FBE0F901F9018952FB7F8945D
:100B0000609158027091590280915A0290915B0253
:100B10002FBF08953FB7F89480915C0290915D02D9
:100B2000A0915E02B0915F0226B5A89B05C02F3F41
:100B300019F00196A11DB11D3FBF6627782F892F9F
:100B40009A2F620F711D811D911D42E0660F771F64
:100B5000881F991F4A95D1F70895CF92DF92EF929F
:100B6000FF92CF93DF936B017C010E948A05EB011A
:100B7000C114D104E104F10489F00E94C10E0E9465
:100B80008A056C1B7D0B683E734090F381E0C81AA8
:100B9000D108E108F108C851DC4FEACFDF91CF91CD
:100BA000FF90EF90DF90CF900895789484B58260A5
:100BB00084BD84B5816084BD85B5826085BD85B501
:100BC000816085BDEEE6F0E0808181608083E1E8B0
:100BD000F0E01082808182608083808181608083E8
:100BE000E0E8F0E0808181608083E1E9F0E08081ED
:100BF00082608083808181608083E0E9F0E0808191
:100C000081608083E1ECF0E080818460808380817A
:100C100082608083808181608083E3ECF0E080816A
:100C200081608083E0ECF0E0808182608083E2EC90
:100C3000F0E0808181608083EAE7F0E08081846079
:100C400080838081826080838081816080838081D5
:100C500080688083089590E0FC013197EF30F105C2
:100C6000B0F5EA5AFF4F0C94E40E809180008F7724
:100C700003C0809180008F7D8093800008958091D3
:100C80008000877FF9CF84B58F7702C084B58F7DD0
:100C900084BD0895809190008F7707C08091900067
:100CA0008F7D03C080919000877F8093900008958E
:100CB0008091C0008F7703C08091C0008F7D8093AA
:100CC000C00008958091C200877F8093C20008957C
:100CD000CF93DF9390E0FC01E55EFE4F2491FC0191
:100CE000E65CFE4F8491882349F190E0880F991FBC
:100CF000FC01EB58FE4FA591B49189599E4FFC0120
:100D0000C591D4919FB7611108C0F8948C9120953A
:100D100082238C93888182230AC0623051F4F89434
:100D20008C91322F309583238C938881822B8883FA
:100D300004C0F8948C91822B8C939FBFDF91CF914C
:100D400008950F931F93CF93DF931F92CDB7DEB714
:100D5000282F30E0F901E450FF4F8491F901E55E5E
:100D6000FE4F1491F901E65CFE4F04910023C9F097
:100D7000882321F069830E942B066981E02FF0E02F
:100D8000EE0FFF1FE959FE4FA591B4919FB7F8945C
:100D90008C91611103C01095812301C0812B8C932C
:100DA0009FBF0F90DF91CF911F910F910895CF9327
:100DB000DF93282F30E0F901E450FF4F8491F901CF
:100DC000E55EFE4FD491F901E65CFE4FC491CC2361
:100DD00091F081110E942B06EC2FF0E0EE0FFF1F27
:100DE000E75AFE4FA591B4912C912D2381E090E01C
:100DF00021F480E002C080E090E0DF91CF9108957F
:100E0000CF93DF931F92CDB7DEB76983DC01ED91FD
:100E1000FC910280F381E02D41E050E0BE016F5F64
:100E20007F4F09950F90DF91CF910895CF93DF9376
:100E3000EC018C859D8597FF05C082E00E94920B96
:100E40009D878C878C859D85DF91CF91089583E068
:100E50000C940D0EFC018485958597FD06C082E0FB
:100E60000E943A0B90E00196089582E00E943A0BAE
:100E700090E00895FC018485958597FD05C02FEFCE
:100E80003FEF35872487089582E00C94920BCF932F
:100E9000DF93EC018091A901882331F083E00E9467
:100EA000C30B1816190634F081E090E09B838A8307
:100EB00080E090E0DF91CF910895FC0120812E5FCA
:100EC000208342E450E063E871E080E80C945E0C1B
:100ED000FC0121818081813A59F4213209F05CC002
:100EE00047E050E062EA71E080E00E945E0C67C07B
:100EF000813209F051C0233289F4838190E0982F28
:100F000088273281832BA0E0B0E080939E019093EC
:100F10009F01A093A001B093A1010FC0203239F42A
:100F200067E070E082EA91E00E948F0C0AC02232F2
:100F300021F482818093A90104C02D7F203209F021
:100F40003EC08091A2019091A301A091A401B09113
:100F5000A501803B9440A105B10501F58091A9014F
:100F600080FD1CC080910008909101089093FF0AB9
:100F70008093FE0A87E797E7909301088093000823
:100F80002BE088E190E00FB6F894A895809360007C
:100F90000FBE2093600013C080E0089588E10FB673
:100FA000F89480936000109260000FBEA895809125
:100FB000FE0A9091FF0A909301088093000881E057
:100FC00008952FEF3FEFFC01358724870895CF93D5
:100FD000C091A9016AE070E080E090E00E94AD0558
:100FE00081E0C11101C080E0CF91089510926302A9
:100FF0001092620288EE93E0A0E0B0E08093640279
:1010000090936502A0936602B093670283E092E03A
:1010100090936102809360028FEF9FEF90936D0237
:1010200080936C020895EF92FF920F931F93CF93DA
:10103000DF937B01FC01C281D38100E010E02097A7
:1010400081F0E881F9810280F381E02DB701CE01C2
:10105000099597FD08C0080F191F0884D985C02D70
:10106000EECFC80102C08FEF9FEFDF91CF911F91AC
:101070000F91FF90EF9008950F931F93CF93DF93FD
:101080008B01FC01C281D381209771F0E881F98145
:101090000480F581E02DB801CE010995009731F467
:1010A0000884D985C02DF0CF80E090E0DF91CF910A
:1010B0001F910F9108950F931F93CF93DF938B018F
:1010C000FC01C281D381209771F0E881F98106800B
:1010D000F781E02DB801CE010995080F111D088494
:1010E000D985C02DF0CFF8011082DF91CF911F91EB
:1010F0000F9108950F931F93CF93DF938B01FC0102
:10110000C281D381209771F0E881F9810190F0814B
:10111000E02DB801CE010995811106C00884D9855A
:10112000C02DF0CF80E001C081E0DF91CF911F9111
:101130000F910895CF93DF93FC01DB012181149679
:101140008C91149790E0820F911D0897B4F5C2819D
:10115000D381209719F47383628308C088859985A9
:10116000009711F0EC01FACFB987A8878081129619
:101170008C931297818113968C9313978081159687
:101180009C911597890F808380E014969C91149709
:10119000891788F41696CD91DC911797C80FD11D49
:1011A0009881C181D0E0C655DE4F988391819F5FC1
:1011B00091838F5FEACF81E001C080E0DF91CF9122
:1011C00008958091B40281110DC082E08093B00235
:1011D00084E08093B1021092B3021092B20281E0D7
:1011E0008093B40280EB92E008956115710581F05F
:1011F000DB010D900020E9F7AD0141505109461B7C
:10120000570BDC01ED91FC910280F381E02D0994F4
:1012100080E090E008950C94F5086FE072E00C9483
:10122000F5080F931F93CF93DF93EC010E94F5080D
:101230008C01CE010E940D09800F911FDF91CF918B
:101240001F910F9108958F929F92AF92BF92CF926C
:10125000DF92EF92FF920F931F93CF93DF93CDB75F
:10126000DEB7A1970FB6F894DEBF0FBECDBF7C01ED
:10127000C42EE52FCB01D22E19A221E02D1510F09E
:101280002AE0D22E8E010F5D1F4F8D2C912CA12CA8
:10129000B12C6C2D7E2FA50194010E94C20E8C2DC5
:1012A000D29E80191124015011098A3014F4805DF6
:1012B00001C0895CF8018083211531054105510584
:1012C00021F0C22EE32FCA01E4CFB801C7010E946A
:1012D000F508A1960FB6F894DEBF0FBECDBFDF9123
:1012E000CF911F910F91FF90EF90DF90CF90BF9023
:1012F000AF909F908F9008952115310541F4DC0146
:10130000ED91FC910190F081E02D642F09940C94F3
:1013100023090F931F93CF93DF93EC019A01462F7C
:1013200050E060E070E00E947C098C01CE010E94D8
:101330000D09800F911FDF91CF911F910F9108959B
:101340000F931F93CF93DF93EC010E947E05688774
:1013500079878A879B87E881F9810084F185E02D70
:10136000CE01099597FF15C00E947E050885198555
:101370002A853B85601B710B820B930B0C811D81B1
:101380002E813F81601771078207930720F38FEF4B
:101390009FEFDF91CF911F910F910895FF920F93CF
:1013A0001F93CF93DF93EC018B01F42ECE010E94AB
:1013B000A0099C0197FD28C08D32910519F1C097B5
:1013C0000A9710F1FF2019F02E323105F9F00130A3
:1013D0001105F9F00230110569F42D30310551F095
:1013E00034F4295031092230310520F012C0203266
:1013F000310579F4E881F9810680F781E02DCE018D
:101400000995D4CF8DE203C0C90105C08EE290E0FA
:1014100002C08FEF9FEFDF91CF911F910F91FF904F
:101420000895CF92DF92FF920F931F93CF93DF9394
:1014300000D000D0CDB7DEB76C01042F40E00E9491
:10144000CE09FC0197FD4BC020E030E0A901F12C52
:10145000112707FD1095E017F107E9F0ED32F105CE
:10146000C1F0CF01C0970A97B0F4AAE0B0E00E94A3
:10147000EA0E9B01AC01CF01AA2797FDA095BA2FD8
:10148000280F391F4A1F5B1F205331094109510999
:1014900002C0FF24F394D601ED91FC910680F78100
:1014A000E02DC60129833A834B835C830995C601ED
:1014B0000E94A009FC01C09729813A814B815C817F
:1014C0000A9748F2E017F10731F2FF2061F0662732
:1014D0007727CB01621B730B840B950B06C060E072
:1014E00070E0CB0102C0CA01B9010F900F900F90BC
:1014F0000F90DF91CF911F910F91FF90DF90CF90D0
:101500000895615030F02091F100FC012083019694
:10151000F8CF289884E68093C50208954091C002D0
:101520005091C1022091BE023091BF024217530771
:10153000B4F49091E8009570E1F39091E80092FD89
:1015400019C08093F1008091C0029091C102019670
:101550008F739927892B19F48EEF8093E80080917F
:10156000C0029091C10201969093C1028093C00283
:1015700081E0089580E00895CF92DF92EF92FF928C
:101580000F931F93CF93DF931F92CDB7DEB7082F32
:10159000162FF42E862F880F8E5F99830E948E0A55
:1015A00083E00E948E0AE02EC02E9981D92E8C2DC8
:1015B0008E19811798F4F601F7FE02C0849101C0DC
:1015C00080810E948E0A082F80E00E948E0A80236C
:1015D000FFEFCF1ADF0A8111EACF01C081E00F903F
:1015E000DF91CF911F910F91FF90EF90DF90CF90FF
:1015F00008958091D70081608093D70080EA80931E
:10160000D80089B5806189BD89B5826089BD09B47A
:1016100000FEFDCF61E070E080E090E00E94AD054B
:101620008091D8008F7C80618093D8008091E00009
:10163000807F8093E0000895CF93DF931F92CDB712
:10164000DEB71982CE0101960E945D070E94E10873
:10165000BE016F5F7F4F0E94130889810F90DF9159
:10166000CF9108952FB7FC012083F89467706093A1
:10167000E9000895CF93DF931F92CDB7DEB7682FAF
:10168000CE0101960E94320B8091F20099819FBF9A
:101690000F90DF91CF910895FF920F931F93CF93F7
:1016A000DF9300D0CDB7DEB7F62E8A019091C40249
:1016B000992311F057FF03C08FEF9FEF2BC0682FC6
:1016C000CE0101967A830E94320B8091F20090E065
:1016D000A8017A81801791070CF4AC01EF2DF72F48
:1016E000F40E84E6FE1639F028988093C502909196
:1016F000F1009193F7CF4115510521F08091F2004F
:10170000882321F089818FBFCA0104C08BE68093B2
:10171000E800F8CF0F900F90DF91CF911F910F91BC
:10172000FF900895CF93DF931F92CDB7DEB741E0CE
:1017300050E0BE016F5F7F4F0E944C0B019719F480
:10174000898190E002C08FEF9FEF0F90DF91CF91E2
:101750000895CF93DF931F92CDB7DEB7682FCE01E8
:1017600001960E94320B9091E800892F807295FFBC
:1017700004C09091F20080E4891B99819FBF0F9073
:10178000DF91CF9108956F927F928F929F92AF9247
:10179000BF92CF92DF92EF92FF920F931F93CF935E
:1017A000DF931F92CDB7DEB7782E7B01C42EB52E06
:1017B0008091C402882369F0042F152F8AEFD82E58
:1017C000872D8072982E9AE3A92E872D8074882EFB
:1017D00011C08FEF9FEF57C0872D0E94A90B682E75
:1017E00081110CC0DA94A9F361E070E080E090E030
:1017F0000E94AD050115110579F73BC0282F30E097
:10180000021713070CF4602E672DCE0101960E947B
:10181000320B8091E80085FF29C0262D30E0021BA5
:10182000130B992039F06A948FEF6816B1F010927B
:10183000F100F9CFF701862D77FE07C0815058F0EF
:1018400094919093F1003196F9CF815020F09191CD
:101850009093F100FACFE20EF31E8091E80085FF2D
:101860000FC00115110511F481100AC089818FBFC5
:10187000C1CF5D9884E68093C6028C2D9B2D03C05A
:10188000A092E800F3CF0F90DF91CF911F910F91BD
:10189000FF90EF90DF90CF90BF90AF909F908F9090
:1018A0007F906F9008951092E9001092C1021092FB
:1018B000C0029093BF028093BE020895CF92DF9240
:1018C000FF920F931F93CF93DF9300D0CDB7DEB776
:1018D000F82E8A016B0101151105B1F0F601F7FE32
:1018E00002C0849101C0808149835A830E948E0A7C
:1018F00001501109FFEFCF1ADF0A49815A81811186
:10190000EACF8FEF9FEF01C0CA010F900F90DF91D8
:10191000CF911F910F91FF90DF90CF9008951F936B
:10192000CF93DF931F92CDB7DEB7162F2091E8003B
:1019300022FFFCCF612F79830E94810A8BEF809375
:10194000E800812F7981972F0F90DF91CF911F9120
:1019500008951F920F920FB60F921124DF92EF920B
:10196000FF920F931F932F933F934F935F936F9328
:101970007F938F939F93AF93BF93EF93FF93CF93F7
:10198000DF93CDB7DEB76C97DEBFCDBF1092E90015
:101990008091E80083FF23C168E0CE0145960E9454
:1019A000810A82EF8093E8003D8937FF05C080916E
:1019B000E80080FFFCCF03C08EEF8093E800832F08
:1019C000807609F0F0C02E894F89D88C21110CC087
:1019D000303829F48091C3028093F10002C0109244
:1019E000F1001092F100F4C0842F90E09D29213085
:1019F00049F43111EDC0019709F0EAC08091C302AA
:101A00008D7F0AC0233059F43111E2C0019709F0EB
:101A1000DFC08091C30282608093C302D9C02530A9
:101A200041F48091E80080FFFCCF40684093E300E0
:101A3000CFC0263009F08DC0EB8CFC8C22E0D21296
:101A40002CC080E090E00E94530C0E941C0B99E097
:101A50008E010F5F1F4FF801292F11922A95E9F788
:101A60009983DA8291E09E8390EA98879AEF99872A
:101A70002091C0023091C102275F3F4F3C832B83EE
:101A80008D83C7010E94530C49E050E0B80180E00B
:101A90000E945E0C0E941C0B9BC0C7010E94530C4D
:101AA0000E94E108BE016B5E7F4F0E943C080097D8
:101AB00019F00CF08DC090C081E0D8120EC08B8D53
:101AC0009C8D089719F481E08093BD028091BD023E
:101AD00081112FC067ED71E031C0E3E0DE127CC000
:101AE0008F89882349F1823029F440E860E185EF4D
:101AF00091E01CC0813029F440E86BE089EE91E070
:101B000015C0833009F068C00E94E1088E010F5FA4
:101B10001F4FB8010E945B08F80101900020E9F70F
:101B20003197E01BF10B40E06E2FC8010E94BC0A08
:101B30004DC065EC71E002C066E072E061157105B0
:101B400009F44AC0FB01449150E080E80E945E0C19
:101B50003FC0273009F440C0283021F481E0809351
:101B6000F10036C02930A1F53370B1F5EBEAF1E0B0
:101B700081E021E036E39081992361F08093E900D0
:101B80002093EB0091919093EC003093ED008F5FE8
:101B9000873089F78EE78093EA001092EA008F89F8
:101BA0008093C40215C08B8D9C8D0E94530C898D2F
:101BB000811105C0CE0145960E94680707C00E94AA
:101BC000E108BE016B5E7F4F0E947A08882321F0F6
:101BD0008EEF8093E80003C081E28093EB006C9667
:101BE0000FB6F894DEBF0FBECDBFDF91CF91FF914E
:101BF000EF91BF91AF919F918F917F916F915F9185
:101C00004F913F912F911F910F91FF90EF90DF9097
:101C10000F900FBE0F901F9018958093E900809150
:101C2000F200882319F08AE38093E80008951F9258
:101C30000F920FB60F9211242F933F934F935F9300
:101C40006F937F938F939F93AF93BF93CF93EF93B4
:101C5000FF93C091E1008091E100837F8093E100D8
:101C60008093E100C3FF0FC01092E90081E08093F0
:101C7000EB001092EC0082E38093ED001092C4021E
:101C800088E08093F000C2FF19C083E00E940D0E2F
:101C90008091C602882339F08091C60281508093DA
:101CA000C602882389F18091C502882339F080918A
:101CB000C50281508093C502882341F1C4FF10C042
:101CC0008091E2008E7E81608093E2008091E1004D
:101CD0008F7E8093E1008091C2028E7E806111C070
:101CE000C0FF16C08091E2008E7E80618093E2008A
:101CF0008091E1008E7E8093E1008091C2028E7E11
:101D000081608093C20204C05D9ACDCF289AD6CF5D
:101D1000FF91EF91CF91BF91AF919F918F917F9163
:101D20006F915F914F913F912F910F900FBE0F9048
:101D30001F9018951092C4021092C3021092C20212
:101D40000E94F90AE1EEF0E080818E7E80838DE0D2
:101D50008093E200559A209A089508950E94D5052F
:101D60000E94AD0E8CEB92E00E949A0E0E942A0314
:101D7000C0E0D0E00E9489032097E1F30E940000B8
:101D8000F9CF0895A1E21A2EAA1BBB1BFD010DC0BD
:101D9000AA1FBB1FEE1FFF1FA217B307E407F5071B
:101DA00020F0A21BB30BE40BF50B661F771F881FF7
:101DB000991F1A9469F760957095809590959B018D
:101DC000AC01BD01CF010895EE0FFF1F0590F49106
:101DD000E02D09940E94F50EA59F900DB49F900DE3
:101DE000A49F800D911D11240895A29FB001B39F5F
:101DF000C001A39F700D811D1124911DB29F700D14
:101E0000811D1124911D0895F999FECF92BD81BDC8
:101E1000F89A992780B50895262FF999FECF1FBA11
:101E200092BD81BD20BD0FB6F894FA9AF99A0FBE03
:081E300001960895F894FFCF1C
:101E38000000C7028000FE81060000000000FE7F4F
:101E4800080000000000FF810A0000000000FF7F7A
:101E58000900000000000001170000000000010157
:101E68001600000000000201150000000000030138
:101E78001400000000000401130000000000050128
:101E880012000000000006010C000000000007011D
:101E98000400000000000801010000000000090122
:101EA8000000000000000A010200000000000B0111
:101EB8000300000000000C011000000000000D01EC
:101EC8000E00000000000E010F0000000000FFFFE0
:101ED800FFFF00E100000000000000C18081000059
:101EE80000566F6C756D653A2000486561647068CE
:101EF8006F6E657320706C756767656420696E2105
:101F0800004865616470686F6E65732072656D6FF7
:101F18007665642100566F6C756D65205361766532
:101F2800642100000000004E0406047504EA030062
:101F3800000000000747072A073A07160727070D7A
:101F48000A006E616E00696E66006F7666002E008C
:00000001FF
