:100000000C946E010C9496010C9496010C9496013C
:100010000C9496010C9496010C9496010C94960104
:100020000C9496010C9496010C94930A0C945F091D
:100030000C9496010C9496010C9496010C949601E4
:100040000C9496010C9496010C9496010C949601D4
:100050000C94F1030C9496010C9496010C941804E2
:100060000C9496010C9496010C9496010C949601B4
:100070000C9496010C9496010C9496010C949601A4
:100080000C9496010C9496010C9496010C94960194
:100090000C9496010C9496010C9496010C94960184
:1000A0000C9496010C9496010C94960127052A0550
:1000B00019051D0523054B054B054B052E0532057E
:1000C00036053C0540054B054605000000020009C9
:1000D0000F0000030401000C0000000000000000FD
:1000E00000000000000000000408020110408040F1
:1000F000102040804080080204018040201002014E
:10010000108010204040040404040403040502028B
:1001100002020403020202020606060606060404A0
:1001200002020204000000002300260029002C0027
:100130002F0000000000250028002B002E003100B9
:1001400000000000240027002A002D0030000000DD
:100150000000000000002A2B280000000000000022
:1001600000000000000000000000000000002C9EC5
:10017000B4A0A1A2A434A6A7A5AE362D3738271E59
:100180001F20212223242526B333B62EB7B89F84FF
:1001900085868788898A8B8C8D8E8F909192939497
:1001A00095969798999A9B9C9D2F3130A3AD3504D5
:1001B00005060708090A0B0C0D0E0F101112131477
:1001C00015161718191A1B1C1DAFB1B0B50009047C
:1001D0000200010300000009210101000122650065
:1001E0000705840340000105010902A1010901A1DD
:1001F00000850105091901290315002501950375DD
:100200000181029501750581030501093009310954
:10021000381581257F750895038106C0C005010941
:1002200006A1018502050719E029E71500250175DA
:1002300001950881029501750881039506750815D9
:100240000025650507190029658100C000C180816E
:10025000C11201000202000040412336800001016A
:10026000020001120100020000004041233680001C
:10027000010102000141726475696E6F204C4C43AC
:100280000041726475696E6F204C656F6E617264B7
:100290006F0004030904080B0002020201000904B4
:1002A00000000102020000052400100105240101E4
:1002B000010424020605240600010705810310003D
:1002C0004009040100020A00000007050202400084
:1002D00000070583024000001A07C50B11241FBE4A
:1002E000CFEFDAE0DEBFCDBF11E0A0E0B1E0E0E0AB
:1002F000F8E102C005900D92AA38B107D9F722E0C3
:10030000AAE8B1E001C01D92A131B207E1F712E005
:10031000CCEDD2E004C02297FE010E94E40BC83D60
:10032000D107C9F70E9428070C94FE0B0C9400001B
:100330008091990190919A019093980180939701EF
:10034000089580919701909198018032910514F061
:100350008FE190E090939A018093990108958091A4
:100360009B0190919C014F97E9F080919B019091A6
:100370009C01019690939C0180939B0160E08BE02F
:100380000E94850568E270E080E090E00E949104A0
:1003900061E08BE00E94850565E070E080E090E020
:1003A0000C949104089580919B0190919C01892B5C
:1003B000E9F080919B0190919C01019790939C01A1
:1003C00080939B0160E087E00E94850568E270E011
:1003D00080E090E00E94910461E087E00E94850542
:1003E00065E070E080E090E00C949104089582E272
:1003F00090E090939C0180939B0180919B01909150
:100400009C01181619061CF40E94D301F6CF08951A
:100410000E94F70180E090E00E94E80B8F7190E06D
:1004200090939A01809399019093960180939501FE
:100430000895CF93DF93C1E0D1E081E0C336D807C0
:1004400031F062E088810E944C052796F6CF61E08A
:100450008DE00E944C0560E085E00E944C0562E062
:1004600083E00E944C0562E082E00E944C0561E05E
:100470008BE00E944C0561E08BE00E94850561E005
:1004800087E00E944C0561E087E00E9485050E949C
:10049000080280E1809381001092800021E0209387
:1004A0009F0180E49CE99093A1018093A001909327
:1004B00087008093860081E18093810080EA93E049
:1004C00090939E0180939D0120936F001092810074
:1004D000109285001092840080919F01806180932A
:1004E0008100DF91CF910895FF920F931F93CF93D7
:1004F000DF9383E00E94BB05FF24F394892B09F06E
:10050000F12C82E00E94BB05D1E0892B09F0D0E0FC
:1005100085E00E94BB05C1E0892B09F0C0E0809115
:100520008A01C81769F0C0938A01CC2339F00E9470
:10053000980110929A011092990102C00E94A101A3
:1005400080918C01F81213C00E9462040091910105
:10055000109192012091930130919401601B710BD5
:10056000820B930B6536710581059105D0F0FF2054
:10057000B1F08091990190919A018F3191057CF4AD
:10058000019690939A01809399010E94620460936E
:100590009101709392018093930190939401F09252
:1005A0008C0180918B01D81313C00E9462040091CA
:1005B0008D0110918E0120918F0130919001601B6F
:1005C000710B820B930B6536710581059105D0F097
:1005D000DD23B1F08091990190919A0118161906C6
:1005E0007CF4019790939A01809399010E94620490
:1005F00060938D0170938E0180938F019093900191
:10060000D0938B0180919B0190919C012091990145
:1006100030919A018217930714F40E94AF018091E0
:100620009B0190919C012091990130919A0128178A
:10063000390714F40E94D301C1117CC020919B01A1
:1006400030919C018091990190919A012817390766
:1006500009F070C080919B0190919C0120919501BF
:10066000309196012817390709F464C00E9462048A
:100670000091910110919201209193013091940188
:10068000601B710B820B930B693E734081059105D2
:1006900008F450C00E94620400918D0110918E01F7
:1006A00020918F0130919001601B710B820B930B95
:1006B000693E734081059105E8F160919B0170915D
:1006C0009C0180E090E00E94F00B80919B01909152
:1006D0009C01909396018093950161E08DE00E94CA
:1006E000850562E370E080E090E00E94910460E0A4
:1006F0008DE00E94850562E370E080E090E00E945A
:10070000910461E08DE00E94850562E370E080E085
:1007100090E00E94910460E08DE00E94850562E314
:1007200070E080E090E0DF91CF911F910F91FF90FA
:100730000C949104DF91CF911F910F91FF90089538
:10074000BF92CF92DF92EF92FF920F931F93CF93BE
:10075000DF9300E011E0C2E0D1E0F1E0C436DF0752
:10076000B1F1FE01319780810E94BB05BB24B39497
:10077000892B09F0B12C8881B816F1F00E9462042F
:10078000C980DA80EB80FC806C197D098E099F0995
:100790006A3171058105910578F0B8820E94620482
:1007A00069837A838B839C83BB2051F0F80160813D
:1007B0008BEA91E00E945706095F1F4F2796CDCF25
:1007C000F80160818BEA91E00E94C506F5CFDF91C8
:1007D000CF911F910F91FF90EF90DF90CF90BF903E
:1007E00008951F920F920FB60F9211242F933F93EB
:1007F0004F935F936F937F938F939F93AF93BF9329
:10080000EF93FF93E0919D01F0919E010995FF9177
:10081000EF91BF91AF919F918F917F916F915F9178
:100820004F913F912F910F900FBE0F901F901895F1
:100830001F920F920FB60F9211242F933F938F9315
:100840009F93AF93BF938091A3019091A401A09136
:10085000A501B091A6013091A20123E0230F2D370D
:1008600020F40196A11DB11D05C026E8230F0296B4
:10087000A11DB11D2093A2018093A3019093A40117
:10088000A093A501B093A6018091A7019091A80122
:10089000A091A901B091AA010196A11DB11D80935B
:1008A000A7019093A801A093A901B093AA01BF91B9
:1008B000AF919F918F913F912F910F900FBE0F900D
:1008C0001F9018952FB7F8946091A3017091A4011F
:1008D0008091A5019091A6012FBF08953FB7F8948C
:1008E0008091A7019091A801A091A901B091AA01BE
:1008F00026B5A89B05C02F3F19F00196A11DB11D7B
:100900003FBF6627782F892F9A2F620F711D811D97
:10091000911D42E0660F771F881F991F4A95D1F7F6
:100920000895CF92DF92EF92FF92CF93DF936B0106
:100930007C010E946E04EB01C114D104E104F104B6
:1009400089F00E94070B0E946E046C1B7D0B683EB1
:10095000734090F381E0C81AD108E108F108C8514A
:10096000DC4FEACFDF91CF91FF90EF90DF90CF90F7
:100970000895789484B5826084BD84B5816084BD17
:1009800085B5826085BD85B5816085BDEEE6F0E008
:10099000808181608083E1E8F0E010828081826064
:1009A0008083808181608083E0E8F0E080818160E5
:1009B0008083E1E9F0E080818260808380818160D2
:1009C0008083E0E9F0E0808181608083E1ECF0E009
:1009D0008081846080838081826080838081816067
:1009E0008083E3ECF0E0808181608083E0ECF0E0E4
:1009F000808182608083E2ECF0E08081816080838E
:100A0000EAE7F0E080818460808380818260808377
:100A1000808181608083808180688083089590E0F8
:100A2000FC013197EF30F105B0F5EA5AFF4F0C9415
:100A3000E20B809180008F7703C0809180008F7DD2
:100A400080938000089580918000877FF9CF84B5DE
:100A50008F7702C084B58F7D84BD0895809190000A
:100A60008F7707C0809190008F7D03C080919000A8
:100A7000877F8093900008958091C0008F7703C096
:100A80008091C0008F7D8093C00008958091C20046
:100A9000877F8093C2000895CF93DF9390E0FC019D
:100AA000E851FF4F2491FC01EA5FFE4F84918823B7
:100AB00049F190E0880F991FFC01E05CFE4FA59181
:100AC000B4918E5C9E4FFC01C591D4919FB761118A
:100AD00008C0F8948C91209582238C93888182237E
:100AE0000AC0623051F4F8948C91322F30958323F0
:100AF0008C938881822B888304C0F8948C91822BFC
:100B00008C939FBFDF91CF9108950F931F93CF9345
:100B1000DF931F92CDB7DEB7282F30E0F901E653FF
:100B2000FF4F8491F901E851FF4F1491F901EA5FF9
:100B3000FE4F04910023C9F0882321F069830E94AD
:100B40000F056981E02FF0E0EE0FFF1FEE5CFE4F16
:100B5000A591B4919FB7F8948C91611103C0109541
:100B6000812301C0812B8C939FBF0F90DF91CF9188
:100B70001F910F910895CF93DF93282F30E0F90153
:100B8000E653FF4F8491F901E851FF4FD491F901E9
:100B9000EA5FFE4FC491CC2391F081110E940F05B2
:100BA000EC2FF0E0EE0FFF1FEC5DFE4FA591B4912E
:100BB0002C912D2381E090E021F480E002C080E0C0
:100BC00090E0DF91CF910895FF920F931F93CF9301
:100BD000DF93EC01F62EE881F9810480F581E02DA8
:100BE00009958C01E881F9810680F781E02D6F2D50
:100BF000CE010995C8019927DF91CF911F910F91DF
:100C0000FF900895FC0120812F5F208349E150E08F
:100C10006EEC71E080E80C94000945E650E067EE68
:100C200071E080E80C940009EF92FF920F931F93FC
:100C3000CF93DF931F92CDB7DEB789838B017A0103
:100C400041E050E0BE016F5F7F4F84E00E94650885
:100C5000A701B80184E40E9465080F90DF91CF914D
:100C60001F910F91FF90EF900895FC019181808179
:100C7000813A31F481E0913091F0933089F411C0E0
:100C8000813271F49B3021F482818093630105C02D
:100C90009A3031F482818093620181E00895089551
:100CA00080E0089548E050E082E00C941406CF9371
:100CB000DF93DC01683818F0E8E7E60F25C0E62F7F
:100CC000F0E067FF11C0E058F10981E090E001C059
:100CD000880FEA95EAF714969C911497982B14962E
:100CE0009C931497E0E010C0E25BFE4FE491EE238A
:100CF00009F440C0E7FF08C014968C9114978260F5
:100D000014968C931497EF7716968C9116978E17EE
:100D100041F117968C9117978E1719F118968C91AF
:100D200018978E17F1F019968C9119978E17C9F0B4
:100D30001A968C911A978E17A1F01B968C911B977F
:100D40008E1779F080E090E0ED01C80FD91F2E8159
:100D5000211102C0EE8305C0019686309105A1F7EE
:100D600009C0BD016C5F7F4FCD010E94520681E03A
:100D700090E008C081E090E013969C938E931297C8
:100D800080E090E0DF91CF910895683818F0E8E7AF
:100D9000E60F25C0E62FF0E067FF12C0E058F1092A
:100DA00021E030E001C0220FEA95EAF72095DC014E
:100DB00014963C911497322314963C93E0E00FC0B4
:100DC000E25BFE4FE491EE2329F1E7FF08C0DC016E
:100DD00014962C9114972D7F14962C93EF7720E086
:100DE00030E0EE2351F0DC01A20FB31F16964C91B8
:100DF00016974E1302C016961C922F5F3F4F263057
:100E0000310579F7BC016C5F7F4F0E94520681E08B
:100E100090E0089580E090E00895FC01168217822A
:100E200010861186128613861482BC016C5F7F4F78
:100E30000C9452061092B7011092AE011092AD01BF
:100E400080E791E09093AC018093AB010895089501
:100E50000E94B9040E94270788EB91E00E94E90AEA
:100E60000E941902C0E0D0E00E9474022097E1F3D2
:100E70000E940000F9CFCF92DF92EF92FF920F9382
:100E80001F93CF93DF936C017A01EB01E60EF71EFF
:100E900000E010E0CE15DF0561F06991D601ED911B
:100EA000FC910190F081E02DC6010995080F191FF2
:100EB000F1CFC801DF91CF911F910F91FF90EF907B
:100EC000DF90CF9008954091BC015091BD012091D9
:100ED000BA013091BB0142175307B4F49091E80076
:100EE0009570E1F39091E80092FD19C08093F100B4
:100EF0008091BC019091BD0101968F739927892B38
:100F000019F48EEF8093E8008091BC019091BD01AF
:100F100001969093BD018093BC0181E0089580E02B
:100F20000895CF92DF92FF920F931F93CF93DF9399
:100F30001F92CDB7DEB7082F162F862F880F8E5F32
:100F400099830E94630783E00E946307F02EC02EFE
:100F50009981D92E8C2D8F19811778F4F6018491FF
:100F60000E946307082F80E00E9463078023FFEF41
:100F7000CF1ADF0A8111EECF01C081E00F90DF911F
:100F8000CF911F910F91FF90DF90CF900895615006
:100F900030F02091F100FC0120830196F8CF2898D1
:100FA00084E68093BF0108952FB7FC012083F89455
:100FB00067706093E9000895CF93DF931F92CDB7D8
:100FC000DEB7682FCE0101960E94D4078091F2000F
:100FD00099819FBF0F90DF91CF910895FF920F935A
:100FE0001F93CF93DF9300D0CDB7DEB7F62E8A01E3
:100FF0009091BE01992311F057FF03C08FEF9FEF2F
:101000002BC0682FCE0101967A830E94D40780916D
:10101000F20090E0A8017A81801791070CF4AC01EE
:10102000EF2DF72FF40E84E6FE1639F02898809302
:10103000BF019091F1009193F7CF4115510521F037
:101040008091F200882321F089818FBFCA0104C0FA
:101050008BE68093E800F8CF0F900F90DF91CF914F
:101060001F910F91FF900895CF93DF931F92CDB7FB
:10107000DEB741E050E0BE016F5F7F4F0E94EE0798
:10108000019719F4898190E002C08FEF9FEF0F90D4
:10109000DF91CF910895CF93DF931F92CDB7DEB745
:1010A000682FCE0101960E94D4079091E800892F05
:1010B000807295FF04C09091F20080E4891B9981B1
:1010C0009FBF0F90DF91CF9108956F927F928F9283
:1010D0009F92AF92BF92CF92DF92EF92FF920F93C7
:1010E0001F93CF93DF931F92CDB7DEB7782E7B018E
:1010F000C42EB52E8091BE01882369F0042F152FD0
:101100008AEFD82E872D8072982E9AE3A92E872DEC
:101110008074882E11C08FEF9FEF57C0872D0E94DB
:101120004B08682E81110CC0DA94A9F361E070E0DD
:1011300080E090E00E9491040115110579F73BC011
:10114000282F30E0021713070CF4602E672DCE0114
:1011500001960E94D4078091E80085FF29C0262DC2
:1011600030E0021B130B992039F06A948FEF681658
:10117000B1F01092F100F9CFF701862D77FE07C08C
:10118000815058F094919093F1003196F9CF8150AD
:1011900020F091919093F100FACFE20EF31E80912E
:1011A000E80085FF0FC00115110511F481100AC078
:1011B00089818FBFC1CF5D9884E68093C0018C2D5B
:1011C0009B2D03C0A092E800F3CF0F90DF91CF9149
:1011D0001F910F91FF90EF90DF90CF90BF90AF9055
:1011E0009F908F907F906F9008951092E9001092D9
:1011F000BD011092BC019093BB018093BA01089588
:10120000CF92DF92FF920F931F93CF93DF9300D083
:10121000CDB7DEB7F82E8A016B0101151105B1F0CB
:10122000F601F7FE02C0849101C0808149835A8390
:101230000E94630701501109FFEFCF1ADF0A4981AD
:101240005A818111EACF8FEF9FEF01C0CA010F9041
:101250000F90DF91CF911F910F91FF90DF90CF9072
:1012600008951F93CF93DF931F92CDB7DEB7162F4C
:101270002091E80022FFFCCF612F79830E94C707ED
:101280008BEF8093E800812F7981972F0F90DF916A
:10129000CF911F910895CF93DF931F92CDB7DEB703
:1012A0001982CE0101960E94650BCE0101960E9423
:1012B0000206898190E00F90DF91CF9108951F92EF
:1012C0000F920FB60F921124EF92FF920F931F937C
:1012D0002F933F934F935F936F937F938F939F933E
:1012E000AF93BF93EF93FF93CF93DF93CDB7DEB769
:1012F0006297DEBFCDBF1092E9008091E80083FFC6
:10130000EBC068E0CE010A960E94C70782EF809387
:10131000E8009A8597FF05C08091E80080FFFCCF28
:1013200003C08EEF8093E800892F807609F0B9C062
:101330008B85811105C01092F1001092F100C5C09B
:10134000282F2D7F213009F4C0C0853049F48091C9
:10135000E80080FFFCCF8C8580688093E300B5C0F7
:10136000863009F076C02D85E888F988223071F53D
:1013700080E090E02A8B0E94F5080E944B0999E0DA
:101380008E010F5F1F4FF801392F11923A95E9F73F
:1013900099832A892A8391E09E8390E898879AEF1F
:1013A00099872091BC013091BD01275F3F4F3C835D
:1013B0002B838D83C7010E94F50849E050E0B801F6
:1013C00080E00E9400090E944B097FC0C7012A8B60
:1013D0000E94F5082A89223241F482E290E00E94BC
:1013E0000D06892B09F071C074C0213069F4888919
:1013F0009989089711F42093B9018091B90181115D
:1014000018C063E672E01AC0233009F062C08C8510
:10141000882391F0823021F460E181E892E006C0F7
:10142000813009F056C06BE085E792E00E94910799
:101430004AC061E572E002C062E972E061157105BF
:1014400009F447C0FB01449150E080E80E94000984
:101450003CC0873009F43DC0883021F481E080939E
:10146000F10033C0893089F5937099F5EDE4F2E02D
:1014700081E021E096E38093E9002093EB00349132
:101480003093EC009093ED008F5F3196853099F7A3
:101490008EE78093EA001092EA008C858093BE016B
:1014A00014C0888999890E94F5088E85811105C02C
:1014B000CE010A960E94700B06C0823051F4CE0114
:1014C0000A960E943506882321F08EEF8093E8006B
:1014D00003C081E28093EB0062960FB6F894DEBF02
:1014E0000FBECDBFDF91CF91FF91EF91BF91AF9133
:1014F0009F918F917F916F915F914F913F912F912C
:101500001F910F91FF90EF900F900FBE0F901F90C3
:1015100018958093E9008091F200882319F08AE3FE
:101520008093E80008951F920F920FB60F92112436
:101530002F933F934F935F936F937F938F939F93DB
:10154000AF93BF93EF93FF938091E1001092E1007E
:1015500083FF0FC01092E90091E09093EB0010928E
:10156000EC0092E39093ED001092BE0198E090930E
:10157000F00082FF1DC083E00E94890A8091C001B3
:10158000882339F08091C00181508093C001882365
:1015900069F08091BF01882359F08091BF0181508B
:1015A0008093BF01811104C0289A02C05D9AF1CFD7
:1015B000FF91EF91BF91AF919F918F917F916F912B
:1015C0005F914F913F912F910F900FBE0F901F9001
:1015D00018951092BE0181E08093D70080EA809335
:1015E000D80082E189BD09B400FEFDCF61E070E062
:1015F00080E090E00E94910480E98093D8008CE024
:101600008093E2001092E000559A209A0895089580
:10161000CF93DF931F92CDB7DEB76983DC01ED91E5
:10162000FC910280F381E02D41E050E0BE016F5F4C
:101630007F4F09950F90DF91CF910895CF93DF935E
:10164000EC018C859D8597FF05C082E00E943408DF
:101650009D878C878C859D85DF91CF91089583E050
:101660000C94890AFC018485958597FD06C082E06B
:101670000E94DC0790E00196089582E00E94DC075A
:1016800090E00895FC018485958597FD05C02FEFB6
:101690003FEF35872487089582E00C943408CF9378
:1016A000DF93EC0180916B01882331F083E00E948D
:1016B00065081816190634F081E090E09B838A8350
:1016C00080E090E0DF91CF910895FC0120812E5FB2
:1016D000208342E450E066E972E080E80C9400095F
:1016E000FC0181819081913A59F4813209F03CC02A
:1016F00047E050E064E671E080E00E94000943C0EA
:10170000913291F5803239F467E070E084E691E03F
:101710000E94310906C0823209F035C0828180936F
:101720006B018091640190916501A0916601B09177
:101730006701803B9440A105B105C1F480916B0124
:1017400080FD14C087E797E7909301088093000815
:101750002BE088E190E00FB6F894A89580936000A4
:101760000FBE209360000FC080E0089588E10FB69F
:10177000F89480936000109260000FBEA8951092BC
:1017800001081092000881E008951092C40110929F
:10179000C30188EE93E0A0E0B0E08093C501909390
:1017A000C601A093C701B093C8018EE791E0909362
:1017B000C2018093C1018FEF9FEF9093CE01809380
:1017C000CD010895EE0FFF1F0590F491E02D0994CF
:1017D000F999FECF92BD81BDF89A992780B50895F9
:1017E000262FF999FECF1FBA92BD81BD20BD0FB63D
:1017F000F894FA9AF99A0FBE01960895F894FFCFDB
:10180000DA060000000000D9080000000000D80A35
:101810000000000000D70900000000008017000051
:1018200000000082160000000000201500000000EB
:1018300000811400000000007A130000000000780E
:10184000120000000000730C0000000000630400A0
:1018500000000000B0000000000000B10100000026
:101860000000010100E10000000000000000000095
:10187000E4053B075706C5060D0700000000080BEE
:0A1880004F0B320B420B1E0B2F0B17
:00000001FF
