:100000000C9407010C942F010C942F010C942F01D8
:100010000C942F010C942F010C942F010C942F01A0
:100020000C942F010C942F010C94EA090C947C0879
:100030000C942F010C942F010C942F010C942F0180
:100040000C942F010C942F010C942F010C942F0170
:100050000C9431010C942F010C942F010C94DC03AF
:100060000C942F010C942F010C942F010C942F0150
:100070000C942F010C942F010C942F010C942F0140
:100080000C942F010C942F010C942F010C942F0130
:100090000C942F010C942F010C942F010C942F0120
:1000A0000C942F010C942F010C942F01EB04EE04FF
:1000B000DD04E104E7040F050F050F05F204F60463
:1000C000FA04000504050F050A0505010904A1014C
:1000D00085030509190129101500250175019510E1
:1000E000550065008102050109011581257FA100E8
:1000F00009300931750895028102C0C00000000274
:1001000000090F0000030401000C000000000000C3
:1001100000000000000000000000000408020110C0
:100120004080401020408040800802040180402030
:100130001002011080102040402004040404040335
:100140000405020202020403020202020606060677
:100150000606040402020204040000000023002634
:100160000029002C002F0000000000250028002B93
:10017000002E00310000000000240027002A002D7E
:1001800000300012010002EF0201404123368000DE
:100190000101020301120100020000004041233668
:1001A0008000010102030141726475696E6F204C89
:1001B0004C430041726475696E6F204C656F6E61CF
:1001C00072646F0004030904080B000202020100BC
:1001D00009040000010202000005240010010524AA
:1001E000010101042402060524060001070581031C
:1001F00010004009040100020A0000000705020285
:1002000040000007058302400000D401760B112452
:100210001FBECFEFDAE0DEBFCDBF11E0A0E0B1E05E
:10022000E6E3F7E102C005900D92A83CB107D9F7CB
:1002300022E0A8ECB1E001C01D92A836B207E1F7B8
:1002400012E0CEE0D2E004C02297FE010E94950B9E
:10025000CA30D107C9F70E94810A0C94990B0C94FB
:1002600000001F920F920FB60F9211242F933F930D
:100270004F935F936F937F938F939F93AF93BF93AE
:10028000EF93FF93E091C801F091C9010995FF91A7
:10029000EF91BF91AF919F918F917F916F915F91FE
:1002A0004F913F912F910F900FBE0F901F90189577
:1002B000CF93DF93EC018091D701811113C010928D
:1002C000CE011092CD018AEC90E09093D001809302
:1002D000CF0182E390E09093D2018093D10181E03D
:1002E0008093D7010E94CE036DEC71E00E945F0302
:1002F000188219821B821A82DF91CF9108950F9381
:100300001F93FC01A62F82819381411113C001E04C
:1003100010E020E030E0062E04C0000F111F221F65
:10032000331F0A94D2F700951095082319231383DD
:1003300002830FC041E050E060E070E004C0440F71
:10034000551F661F771FAA95D2F7482B592B538349
:1003500042831F910F910895FC0160830895FC0171
:1003600061830895CF93DF9300D000D0CDB7DEB77F
:10037000FC019281838199838A8380818B8381812F
:100380008C830E94CE0324E030E0AE014F5F5F4FCC
:1003900063E00E947C030F900F900F900F90DF910D
:1003A000CF9108950C94B20183ED91E00C94580123
:1003B000AF92BF92CF92DF92EF92FF920F931F9373
:1003C000CF93DF9301E011E0C3E0D1E0A12CF1E095
:1003D000CB39DF0771F1FE01319780810E94490519
:1003E000BB24B394892B09F0B12C8881B816E9F0AD
:1003F0000E942604C980DA80EB80FC806C197D099C
:100400008E099F096A3171058105910510F50DC0AE
:100410006F3FA9F5F8016081B69E602D112483ED30
:1004200091E00E94AC01AA24A394085F1F4F289674
:10043000CECFAA2071F183ED91E0DF91CF911F9192
:100440000F91FF90EF90DF90CF90BF90AF900C9402
:10045000B201B8820E94260469837A838B839C83CD
:10046000FE01339760816E3F99F6F8016081B69E78
:10047000602D112483ED91E00E94AF01D4CFF801EB
:100480004081B49E402D112483ED91E00E947F01B4
:10049000CACFDF91CF911F910F91FF90EF90DF9026
:1004A000CF90BF90AF900895CF93DF93C2E0D1E09B
:1004B00081E0CA39D80731F062E088810E941005D6
:1004C0002896F6CF83ED91E00E94D20180E18093DF
:1004D00081001092800021E02093CA0180E49CE911
:1004E0009093CC018093CB019093870080938600FA
:1004F00081E18093810088ED91E09093C901809320
:10050000C80120936F001092810010928500109214
:1005100084008091CA01806180938100DF91CF9136
:1005200008950895FB0128E4208329E4218324E42D
:100530002283DC011D962C911D972F702F5B238346
:100540001D968D919C911E9724E0969587952A95EE
:10055000E1F78F708F5B848385E00895CF93DF93FD
:10056000CDB7DEB769970FB6F894DEBF0FBECDBF2B
:10057000FC01DB018C918F5F8C93BE016F5F7F4F1D
:1005800089E1DB011D928A95E9F799E0998384E07E
:100590008A8321E02D8383E08E839A8791E29B8773
:1005A0002C872D872F8792E2988B97E09B8B95E085
:1005B0009C8B8E8B80E490E0988F8F8B298F82812B
:1005C0008B8395858685998B8A8B838180688D8BBB
:1005D00049E150E080E00E94310869960FB6F89436
:1005E000DEBF0FBECDBFDF91CF910895DC01FB01CF
:1005F00012962C91129730E0848195812817390743
:10060000D1F491818081813A31F481E0913091F08F
:10061000933089F411C0813271F49B3021F48281CE
:100620001F968C9305C09A3031F4828150968C933A
:1006300081E00895089580E00895EF92FF920F936E
:100640001F93CF93DF937C01FB018081813871F58B
:100650008381823259F5D70112968C91129790E0DE
:10066000248135812817390709F51B96CD91DC9136
:100670001C9700E010E0209789F04C815D816A8131
:100680007B8180E80E9431088F3FBFEF9B0759F0C4
:10069000080F191F0990D881C02DEDCF81E0F70117
:1006A0008787C80105C08FEF9FEF02C080E090E010
:1006B000DF91CF911F910F91FF90EF900895FC0172
:1006C000A385B485109719F47487638709C08D9149
:1006D0009C911197009711F0DC01F9CF6D937C93F9
:1006E00085859685DB0114962D913C911597820F97
:1006F000931F968785870895AF92BF92CF92DF921E
:10070000EF92FF920F931F93CF93DF931F92CDB77A
:10071000DEB77C0169836A01590141E050E0BE0106
:100720006F5F7F4FFC0183810E9496078C0197FDCC
:100730000BC0F7018381A501B60180640E94960772
:1007400097FD02C0800F911F0F90DF91CF911F91F5
:100750000F91FF90EF90DF90CF90BF90AF900895F2
:10076000CF93DF93EC0121E02C832D830A969F83A6
:100770008E83198618868FEA91E0998388831C8678
:100780001B861E861D862F87288B81EC8A870E94F8
:100790004006BE01DF91CF910C94F9058091F001E4
:1007A000811107C08FED91E00E94B00381E080933A
:1007B000F0018FED91E008951F920F920FB60F9206
:1007C00011242F933F938F939F93AF93BF93809167
:1007D000F9019091FA01A091FB01B091FC013091D7
:1007E000F80123E0230F2D3720F40196A11DB11D40
:1007F00005C026E8230F0296A11DB11D2093F80124
:100800008093F9019093FA01A093FB01B093FC014E
:100810008091FD019091FE01A091FF01B091000235
:100820000196A11DB11D8093FD019093FE01A0933F
:10083000FF01B0930002BF91AF919F918F913F91C3
:100840002F910F900FBE0F901F9018952FB7F8940F
:100850006091F9017091FA018091FB019091FC0186
:100860002FBF08953FB7F8948091FD019091FE014C
:10087000A091FF01B091000226B5A89B05C02F3FB3
:1008800019F00196A11DB11D3FBF6627782F892F52
:100890009A2F620F711D811D911D42E0660F771F17
:1008A000881F991F4A95D1F70895CF92DF92EF9252
:1008B000FF92CF93DF936B017C010E943204EB0126
:1008C000C114D104E104F10489F00E94940A0E9449
:1008D00032046C1B7D0B683E734090F381E0C81AB4
:1008E000D108E108F108C851DC4FEACFDF91CF9180
:1008F000FF90EF90DF90CF900895789484B5826058
:1009000084BD84B5816084BD85B5826085BD85B5B3
:10091000816085BDEEE6F0E0808181608083E1E862
:10092000F0E010828081826080838081816080839A
:10093000E0E8F0E0808181608083E1E9F0E080819F
:1009400082608083808181608083E0E9F0E0808143
:1009500081608083E1ECF0E080818460808380812D
:1009600082608083808181608083E3ECF0E080811D
:1009700081608083E0ECF0E0808182608083E2EC43
:10098000F0E0808181608083EAE7F0E0808184602C
:100990008083808182608083808181608083808188
:1009A00080688083089590E0FC013197EF30F10575
:1009B000B0F5EA5AFF4F0C94930B809180008F772B
:1009C00003C0809180008F7D809380000895809186
:1009D0008000877FF9CF84B58F7702C084B58F7D83
:1009E00084BD0895809190008F7707C0809190001A
:1009F0008F7D03C080919000877F80939000089541
:100A00008091C0008F7703C08091C0008F7D80935C
:100A1000C00008958091C200877F8093C20008952E
:100A2000CF93DF9390E0FC01E55EFE4F2491FC0143
:100A3000E65CFE4F8491882349F190E0880F991F6E
:100A4000FC01EB58FE4FA591B49189599E4FFC01D2
:100A5000C591D4919FB7611108C0F8948C912095ED
:100A600082238C93888182230AC0623051F4F894E7
:100A70008C91322F309583238C938881822B8883AD
:100A800004C0F8948C91822B8C939FBFDF91CF91FF
:100A90000895CF93DF93282F30E0F901E450FF4F02
:100AA0008491F901E55EFE4FD491F901E65CFE4FB9
:100AB000C491CC2391F081110E94D304EC2FF0E07B
:100AC000EE0FFF1FE75AFE4FA591B4912C912D23F5
:100AD00081E090E021F480E002C080E090E0DF91CE
:100AE000CF910895EF92FF920F931F93CF93DF93CF
:100AF0007B01FC01C281D38100E010E0209781F0EE
:100B0000E881F9810280F381E02DB701CE010995DA
:100B100097FD08C0080F191F0884D985C02DEECF96
:100B2000C80102C08FEF9FEFDF91CF911F910F910E
:100B3000FF90EF9008950F931F93CF93DF938B0156
:100B4000FC01C281D381209771F0E881F981048092
:100B5000F581E02DB801CE010995009731F40884A4
:100B6000D985C02DF0CF80E090E0DF91CF911F912B
:100B70000F9108950F931F93CF93DF938B01FC0187
:100B8000C281D381209771F0E881F9810680F781D5
:100B9000E02DB801CE010995080F111D0884D985F3
:100BA000C02DF0CFF8011082DF91CF911F910F91EE
:100BB00008950F931F93CF93DF938B01FC01C281A4
:100BC000D381209771F0E881F9810190F081E02DC7
:100BD000B801CE010995811106C00884D985C02DC0
:100BE000F0CF80E001C081E0DF91CF911F910F91A4
:100BF0000895CF93DF93FC01DB01218114968C9142
:100C0000149790E0820F911D0897B4F5C281D381AB
:100C1000209719F47383628308C0888599850097AB
:100C200011F0EC01FACFB987A887808112968C93D6
:100C30001297818113968C931397808115969C91BE
:100C40001597890F808380E014969C9114978917DB
:100C500088F41696CD91DC911797C80FD11D988115
:100C6000C181D0E0C856DE4F988391819F5F918308
:100C70008F5FEACF81E001C080E0DF91CF910895DE
:100C80008091050281110DC082E08093010284E011
:100C900080930202109204021092030281E080937A
:100CA000050281E092E00895615030F02091F1005A
:100CB000FC0120830196F8CF289884E680931602E1
:100CC0000895409111025091120220910F0230912B
:100CD000100242175307B4F49091E8009570E1F3C5
:100CE0009091E80092FD19C08093F100809111026B
:100CF0009091120201968F739927892B19F48EEF28
:100D00008093E800809111029091120201969093D5
:100D100012028093110281E0089580E00895CF923D
:100D2000DF92EF92FF920F931F93CF93DF931F9267
:100D3000CDB7DEB7082F162FF42E862F880F8E5FC3
:100D400099830E94610683E00E946106E02EC02E16
:100D50009981D92E8C2D8E19811798F4F601F7FE02
:100D600002C0849101C080810E946106082F80E04A
:100D70000E9461068023FFEFCF1ADF0A8111EACFBC
:100D800001C081E00F90DF91CF911F910F91FF90F3
:100D9000EF90DF90CF9008958091D700816080938D
:100DA000D70080EA8093D80089B5806189BD89B574
:100DB000826089BD09B400FEFDCF61E070E080E093
:100DC00090E00E9455048091D8008F7C80618093D0
:100DD000D8008091E000807F8093E0000895CF9359
:100DE000DF931F92CDB7DEB71982CE0101960E9424
:100DF000F20A0E944006BE016F5F7F4F0E9472059B
:100E000089810F90DF91CF9108952FB7FC01208346
:100E1000F89467706093E9000895CF93DF931F9271
:100E2000CDB7DEB7682FCE0101960E9405078091ED
:100E3000F20099819FBF0F90DF91CF910895FF92AB
:100E40000F931F93CF93DF9300D0CDB7DEB7F62E6D
:100E50008A0190911502992311F057FF03C08FEF7B
:100E60009FEF2BC0682FCE0101967A830E94050761
:100E70008091F20090E0A8017A81801791070CF42C
:100E8000AC01EF2DF72FF40E84E6FE1639F028980A
:100E9000809316029091F1009193F7CF411551057F
:100EA00021F08091F200882321F089818FBFCA014F
:100EB00004C08BE68093E800F8CF0F900F90DF918D
:100EC000CF911F910F91FF900895CF93DF931F92C1
:100ED000CDB7DEB741E050E0BE016F5F7F4F0E94AB
:100EE0001F07019719F4898190E002C08FEF9FEFEF
:100EF0000F90DF91CF910895CF93DF931F92CDB7DD
:100F0000DEB7682FCE0101960E9405079091E80098
:100F1000892F807295FF04C09091F20080E4891BB4
:100F200099819FBF0F90DF91CF9108956F927F922B
:100F30008F929F92AF92BF92CF92DF92EF92FF92E9
:100F40000F931F93CF93DF931F92CDB7DEB7782E09
:100F50007B01C42EB52E80911502882369F0042FE1
:100F6000152F8AEFD82E872D8072982E9AE3A92EFE
:100F7000872D8074882E11C08FEF9FEF57C0872D6B
:100F80000E947C07682E81110CC0DA94A9F361E0FD
:100F900070E080E090E00E9455040115110579F79A
:100FA0003BC0282F30E0021713070CF4602E672D8A
:100FB000CE0101960E9405078091E80085FF29C0B7
:100FC000262D30E0021B130B992039F06A948FEF25
:100FD0006816B1F01092F100F9CFF701862D77FE77
:100FE00007C0815058F094919093F1003196F9CF59
:100FF000815020F091919093F100FACFE20EF31E10
:101000008091E80085FF0FC00115110511F48110D2
:101010000AC089818FBFC1CF5D9884E68093170293
:101020008C2D9B2D03C0A092E800F3CF0F90DF9191
:10103000CF911F910F91FF90EF90DF90CF90BF90D5
:10104000AF909F908F907F906F9008951092E900DD
:1010500010921202109211029093100280930F02CC
:101060000895CF92DF92FF920F931F93CF93DF9358
:1010700000D0CDB7DEB7F82E8A016B01011511053E
:10108000B1F0F601F7FE02C0849101C0808149836E
:101090005A830E94610601501109FFEFCF1ADF0A3F
:1010A00049815A818111EACF8FEF9FEF01C0CA01B8
:1010B0000F900F90DF91CF911F910F91FF90DF90D4
:1010C000CF9008951F93CF93DF931F92CDB7DEB7D4
:1010D000162F2091E80022FFFCCF612F79830E9418
:1010E00054068BEF8093E800812F7981972F0F9022
:1010F000DF91CF911F9108951F920F920FB60F921B
:101100001124DF92EF92FF920F931F932F933F933F
:101110004F935F936F937F938F939F93AF93BF93FF
:10112000EF93FF93CF93DF93CDB7DEB76C97DEBF1E
:10113000CDBF1092E9008091E80083FF23C168E0F1
:10114000CE0145960E94540682EF8093E8003D89C7
:1011500037FF05C08091E80080FFFCCF03C08EEF11
:101160008093E800832F807609F0F0C02E894F89A4
:10117000D88C21110CC0303829F48091140280934E
:10118000F10002C01092F1001092F100F4C0842F1F
:1011900090E09D29213049F43111EDC0019709F00B
:1011A000EAC0809114028D7F0AC0233059F43111B6
:1011B000E2C0019709F0DFC0809114028260809341
:1011C0001402D9C0253041F48091E80080FFFCCFA3
:1011D00040684093E300CFC0263009F08DC0EB8C0F
:1011E000FC8C22E0D2122CC080E090E00E94260805
:1011F0000E94EF0699E08E010F5F1F4FF801292F23
:1012000011922A95E9F79983DA8291E09E8390EA18
:1012100098879AEF99872091110230911202275FE7
:101220003F4F3C832B838D83C7010E94260849E0F2
:1012300050E0B80180E00E9431080E94EF069BC098
:10124000C7010E9426080E944006BE016B5E7F4FC8
:101250000E949B05009719F00CF08DC090C081E0B2
:10126000D8120EC08B8D9C8D089719F481E0809365
:101270000E0280910E0281112FC065E971E031C02C
:10128000E3E0DE127CC08F89882349F1823029F4A3
:1012900040E860E183EB91E01CC0813029F440E834
:1012A0006BE087EA91E015C0833009F068C00E94C6
:1012B00040068E010F5F1F4FB8010E94BA05F8016A
:1012C00001900020E9F73197E01BF10B40E06E2F11
:1012D000C8010E948F064DC063E871E002C064EC53
:1012E00071E06115710509F44AC0FB01449150E0B9
:1012F00080E80E9431083FC0273009F440C0283000
:1013000021F481E08093F10036C02930A1F53370DB
:10131000B1F5E9E9F1E081E021E036E3908199233C
:1013200061F08093E9002093EB0091919093EC00A1
:101330003093ED008F5F873089F78EE78093EA0066
:101340001092EA008F898093150215C08B8D9C8DB9
:101350000E942608898D811105C0CE0145960E9404
:10136000FD0A07C00E944006BE016B5E7F4F0E94CF
:10137000D905882321F08EEF8093E80003C081E235
:101380008093EB006C960FB6F894DEBF0FBECDBF16
:10139000DF91CF91FF91EF91BF91AF919F918F918D
:1013A0007F916F915F914F913F912F911F910F917D
:1013B000FF90EF90DF900F900FBE0F901F90189549
:1013C0008093E9008091F200882319F08AE38093EA
:1013D000E80008951F920F920FB60F9211242F93D9
:1013E0003F934F935F936F937F938F939F93AF93AD
:1013F000BF93CF93EF93FF93C091E1008091E10001
:10140000837F8093E1008093E100C3FF0FC01092BF
:10141000E90081E08093EB001092EC0082E380937E
:10142000ED001092150288E08093F000C2FF19C011
:1014300083E00E94E00980911702882339F08091AF
:101440001702815080931702882389F18091160238
:10145000882339F0809116028150809316028823E8
:1014600041F1C4FF10C08091E2008E7E81608093C4
:10147000E2008091E1008F7E8093E1008091130271
:101480008E7E806111C0C0FF16C08091E2008E7E0A
:1014900080618093E2008091E1008E7E8093E10084
:1014A000809113028E7E81608093130204C05D9A46
:1014B000CDCF289AD6CFFF91EF91CF91BF91AF9129
:1014C0009F918F917F916F915F914F913F912F915C
:1014D0000F900FBE0F901F9018951092150210924A
:1014E0001402109213020E94CC06E1EEF0E080811B
:1014F0008E7E80838DE08093E200559A209A089535
:1015000008950E947D040E94800A8DE092E00E946E
:101510006D0A0E945402C0E0D0E00E949102209720
:10152000E1F30E940000F9CF0895CF93DF931F925B
:10153000CDB7DEB76983DC01ED91FC910280F381C8
:10154000E02D41E050E0BE016F5F7F4F09950F90A5
:10155000DF91CF910895CF93DF93EC018C859D852A
:1015600097FF05C082E00E9465079D878C878C8568
:101570009D85DF91CF91089583E00C94E009FC01F3
:101580008485958597FD06C082E00E940D0790E056
:101590000196089582E00E940D0790E00895FC01F5
:1015A0008485958597FD05C02FEF3FEF358724870C
:1015B000089582E00C946507CF93DF93EC0180914E
:1015C000AA01882331F083E00E94960718161906B5
:1015D00034F081E090E09B838A8380E090E0DF91AB
:1015E000CF910895FC0120812E5F208342E450E0DA
:1015F00068EC71E080E80C943108FC012181808165
:10160000813A59F4213209F05CC047E050E063EAC6
:1016100071E080E00E94310867C0813209F051C05A
:10162000233289F4838190E0982F88273281832B9D
:10163000A0E0B0E080939F019093A001A093A1014E
:10164000B093A2010FC0203239F467E070E083EA62
:1016500091E00E9462080AC0223221F482818093C4
:10166000AA0104C02D7F203209F03EC08091A30161
:101670009091A401A091A501B091A601803B944056
:10168000A105B10501F58091AA0180FD1CC08091E2
:101690000008909101089093FF0A8093FE0A87E763
:1016A00097E790930108809300082BE088E190E091
:1016B0000FB6F894A895809360000FBE2093600049
:1016C00013C080E0089588E10FB6F894809360001D
:1016D000109260000FBEA8958091FE0A9091FF0ABB
:1016E000909301088093000881E0089510921B02F6
:1016F00010921A0288EE93E0A0E0B0E080931C0202
:1017000090931D02A0931E02B0931F028BEB91E0F9
:1017100090931902809318028FEF9FEF9093250208
:10172000809324020895EE0FFF1F0590F491E02DA1
:061730000994F894FFCFBC
:10173600FE81060000000000FE7F08000000000099
:10174600FF810A0000000000FF7F09000000000082
:101756000001170000000000010116000000000053
:101766000201150000000000030114000000000043
:101776000401130000000000050112000000000033
:1017860006010C0000000000070104000000000034
:10179600080101000000000009010000000000002F
:1017A6000A010200000000000B0103000000000017
:1017B6000C011000000000000D010E0000000000EA
:1017C6000E010F000000000000C18081000000FF34
:1017D600FFFFFF00E100000000000000000000F62F
:1017E60002AE021D03920200000000950ADC0ABF49
:0817F6000ACF0AAB0ABC0A008D
:00000001FF
