:100000000C94B1040C94D9040C94D9040C94D90424
:100010000C94D9040C94D9040C94D9040C94D904EC
:100020000C94D9040C94D9040C949E070C941008D9
:100030000C94D9040C94D9040C94D9040C94D904CC
:100040000C94D9040C94D9040C94D9040C94D904BC
:100050000C94A90D0C94D9040C94D9040C94E40BC1
:100060000C94D9040C94D9040C94D9040C94D9049C
:100070000C94D9040C94D9040C94D9040C94D9048C
:100080000C94D9040C94D9040C94D9040C94D9047C
:100090000C94D9040C94D9040C94D9040C94D9046C
:1000A0000C94D9040C94D9040C94D9043E0641064E
:1000B000300634063A0662066206620645064906BE
:1000C0004D065306570662065D064C6F6164696E05
:1000D0006720436F6E6669672100536176696E67BA
:1000E00020507265736574732100536176696E6781
:1000F00020436F6E6669672100070605040100084A
:100100000A0B0C0D0900000000000000002A2B283B
:1001100000000000000000000000000000000000DF
:1001200000000000002C9EB4A0A1A2A434A6A7A5A4
:10013000AE362D3738271E1F20212223242526B333
:1001400033B62EB7B89F8485868788898A8B8C8D35
:100150008E8F909192939495969798999A9B9C9D47
:100160002F3130A3AD350405060708090A0B0C0D25
:100170000E0F101112131415161718191A1B1C1D27
:10018000AFB1B0B50000000000240027002A002D08
:1001900000300000000000250028002B002E003158
:1001A00000000000002300260029002C002F00047E
:1001B000040404040304050202020204030202020E
:1001C00002060606060606040402020204040408E7
:1001D000020110408040102040804080080204014D
:1001E00080402010020110801020404020000000BC
:1001F0000200090F0000030401000C0000000000D1
:10020000000000000000000000000000080B0002D9
:10021000020201000904000001020200000524009E
:100220001001052401010104240206052406000131
:100230000705810310004009040100020A000000C4
:100240000705020240000007058302400000040386
:10025000090441726475696E6F204C4C4300417211
:100260006475696E6F204C656F6E6172646F001209
:10027000010002000000404123368000010102031A
:100280000112010002EF020140412336800001010A
:100290000203012020202020202000203D200020DB
:1002A0003D20463132202020202000203D204631B4
:1002B00031202020202000203D20463130202020E9
:1002C000202000203D204639202020202020002012
:1002D0003D20463820202020202000203D20463789
:1002E00020202020202000203D20463620202020D5
:1002F000202000203D2046352020202020200020E6
:100300003D20463420202020202000203D20463360
:1003100020202020202000203D20463220202020A8
:10032000202000203D2046312020202020200020B9
:10033000203D20537061636520202000203D204334
:10034000617073204C6B2000203D20456E6420209E
:1003500020202000203D20486F6D652020202000B7
:10036000203D20506720446F776E2000203D2050B4
:100370006720557020202000203D2044656C657466
:1003800065202000203D20496E7365727420200096
:10039000203D20455343202020202000203D205296
:1003A000657475726E202000203D2054414220204B
:1003B00020202000203D204261636B737063200089
:1003C000203D20522047554920202000203D20522A
:1003D00020416C7420202000203D20522053686969
:1003E00066742000203D2052204374726C2020004F
:1003F000203D204C2047554920202000203D204C06
:1004000020416C7420202000203D204C205368693E
:1004100066742000203D204C204374726C20200024
:10042000203D2052204172726F772000203D204CE9
:10043000204172726F772000203D2044204172726B
:100440006F772000203D2055204172726F77200089
:10045000203D20416C74203220202000203D20418E
:100460006C74203120202000203D20566F6C202D00
:1004700020202000203D20566F6C202B20202000C3
:10048000203D20477061642000203D204A6F792084
:10049000322059202000203D204A6F7920322058F8
:1004A000202000203D204A6F792031205920200053
:1004B000203D204A6F7920312058202000203D2007
:1004C00047706164205A2D202000203D2047706134
:1004D00064205A2B202000203D2047706164205268
:1004E00020202000203D2047706164204C202020E7
:1004F00000203D2047706164204420202000203DE2
:1005000020477061642055202020000A3C6B6579EB
:10051000636F64653E207461626C653A0A00203D39
:100520002053434C4B202020202000203D204D49CB
:10053000534F202020202000203D204D4F534920A4
:100540002020202000203D20566F6C20446F776EC5
:100550002000203D20566F6C205570202020002068
:100560003D2045736361706520202000203D2045BB
:100570006E7465722020202000203D20436F696E3C
:10058000202020202000203D205374617274202000
:1005900020200020203D2042746E20362020202084
:1005A0000020203D2042746E203520202020002095
:1005B000203D2042746E2034202020200020203D49
:1005C0002042746E2033202020200020203D204235
:1005D000746E2032202020200020203D2042746EA6
:1005E0002031202020200020203D204A6F792052F9
:1005F000202020200020203D204A6F79204C202000
:1006000020200020203D204A6F79204420202020F7
:100610000020203D204A6F79205520202020000A0C
:100620003C627574746F6E3E207461626C653A0A48
:1006300000517569636B2047616D657061643A2094
:10064000206700517569636B204B6579626F617239
:10065000643A206B004C6F61643A202020202020F7
:1006600020202020206C00536176653A2020202035
:100670002020202020202073004D6F64653A202028
:100680002020202020202020206D203C3120616C63
:1006900074312C203220616C74323E203C6820681A
:1006A0006F6C642C207420746F67676C653E004427
:1006B000756D7020616C6C3A202020202020206411
:1006C0000042696E6420616C6C3A2020202020205A
:1006D0002061203C6B6579636F64653E203C6B65EF
:1006E00079636F64653E202E2E2E0042696E642071
:1006F00073696E676C653A2020202062203C627529
:1007000074746F6E3E203C6B6579636F64653E2048
:100710003C6F7074696F6E616C3A616C74313E202D
:100720003C6F7074696F6E616C3A616C74323E003C
:100730000A50696361646520436F6E6669670048AB
:1007400065616470686F6E65732044657465637479
:1007500065642C20566F6C3A2030004865616470E7
:10076000686F6E65732052656D6F7665642C2056D8
:100770006F6C3A00536176696E6720566F6C756DC9
:10078000653A2000566F6C756D653A2000566F6CA7
:10079000756D653A200055736167653A2062203CAB
:1007A000627574746F6E3E203C6B6579636F64652F
:1007B0003E203C6F7074696F6E616C3A616C74318D
:1007C0003E203C6F7074696F6E616C3A616C74327C
:1007D0003E0020616C74323A200020616C74313A22
:1007E000200020746F3A2000426F756E643A20003A
:1007F00055736167653A2061203C6B6579636F646E
:10080000653E203C6B6579636F64653E202E2E2E1D
:1008100000206B657928732900426F756E64200093
:100820004C6F61646564204475616C20416E616C3D
:100830006F67004C6F616465642047616D6570612E
:1008400064004C6F61646564204B6579626F61720E
:10085000640045473A206D2031207420203D20203F
:1008600053657420616C743120746F202874296F73
:1008700067676C65206D6F64650055736167653AE5
:10088000206D203C3120616C74312C203220616C51
:1008900074323E203C6820686F6C642C2074207495
:1008A0006F67676C653E00416C743220736574201D
:1008B000746F20746F67676C6500416C74322073CD
:1008C000657420746F20686F6C6400416C74312013
:1008D00073657420746F20746F67676C6500416C7A
:1008E00074312073657420746F20686F6C640050DD
:1008F00069636164652062322E330005010906A137
:10090000018502050719E029E71500250175019504
:100910000881029501750881039506750815002563
:10092000650507190029658100C005010904A101B9
:100930008503050919012910150025017501951078
:10094000550065008102050109011581257FA1007F
:100950000930093109330934750895048102C0C092
:10096000081911241FBECFEFDAE0DEBFCDBF11E0C2
:10097000A0E0B1E0E0E6F4E302C005900D92A43EF1
:10098000B107D9F723E0A4EEB1E001C01D92AE306B
:10099000B207E1F714E0C1EBD4E004C02197FE01F7
:1009A0000E94AB19C03BD107C9F70E9404120C94F6
:1009B0002E1A0C94000040917502509176022091FD
:1009C00073023091740242175307B4F49091E80017
:1009D0009570E1F39091E80092FD19C08093F100C9
:1009E000809175029091760201968F739927892BD9
:1009F00019F48EEF8093E800809175029091760251
:100A00000196909376028093750281E0089580E0CC
:100A10000895CF92DF92EF92FF920F931F93CF939F
:100A2000DF931F92CDB7DEB7182F062FE42E862F47
:100A3000880F8E5F99830E94DB0483E00E94DB04B1
:100A4000F12EC12E9981D92E8C2D8F19801798F4F3
:100A5000F601E7FE02C0849101C080810E94DB04A0
:100A6000182F80E00E94DB048123FFEFCF1ADF0AFA
:100A70008111EACF01C081E00F90DF91CF911F91EA
:100A80000F91FF90EF90DF90CF900895DF92EF925B
:100A9000FF920F931F93CF93DF93D82E8A017B0190
:100AA000E40EF51EEB01CE15DF0571F0D7FE03C095
:100AB000FE01849101C088810E94DB04219681118E
:100AC000F2CF8FEF9FEF01C0C801DF91CF911F914F
:100AD0000F91FF90EF90DF900895615030F02091DA
:100AE000F100FC0120830196F8CF289884E68093DA
:100AF0008E020895CF92DF92EF92FF920F931F9391
:100B0000CF93DF936C017A018B01C0E0D0E0CE156A
:100B1000DF0589F0D8016D918D01D601ED91FC9131
:100B20000190F081E02DC6010995892B11F47E0119
:100B300002C02196ECCFC701DF91CF911F910F9199
:100B4000FF90EF90DF90CF90089580916A0281111D
:100B50000DC082E08093660284E080936702109269
:100B600069021092680281E080936A0286E692E050
:100B700008950F931F93CF93DF931F92CDB7DEB7E6
:100B800082E0898342E450E06CE072E080E80E94F9
:100B900046050E94A505DC0112960D911C91139744
:100BA0000115110569F0D801ED91FC910280F381E6
:100BB000E02DBE016F5F7F4FC801099597FF07C009
:100BC00089810F90DF91CF911F910F910895F801C6
:100BD00000851185E5CFCF93DF931F92CDB7DEB7A8
:100BE0006983DC01ED91FC910280F381E02D41E00D
:100BF00050E0BE016F5F7F4F09950F90DF91CF915D
:100C0000089583E08093E9008091F200882319F031
:100C10008AE38093E8000895FC018485958597FD1B
:100C20000BC09FB7F89482E08093E9008091F200B6
:100C30009FBF90E0019608959FB7F89482E080935B
:100C4000E9008091F2009FBF90E0089590E0FC01E0
:100C50003197EF30F105B0F5EA5AFF4F0C94AB191C
:100C6000809180008F7703C0809180008F7D80937A
:100C70008000089580918000877FF9CF84B58F77B9
:100C800002C084B58F7D84BD0895809190008F77D8
:100C900007C0809190008F7D03C080919000877F76
:100CA0008093900008958091C0008F7703C0809159
:100CB000C0008F7D8093C00008958091C200877F1F
:100CC0008093C20008953FB7F8948091620290919A
:100CD0006302A0916402B091650226B5A89B05C08D
:100CE0002F3F19F00196A11DB11D3FBFBA2FA92FAB
:100CF000982F8827820F911DA11DB11DBC01CD0128
:100D000042E0660F771F881F991F4A95D1F7089513
:100D1000DC01FB0112968C91129790E024813581C1
:100D200082179307D1F491818081813A31F481E077
:100D3000913091F0933089F411C0813271F49B307D
:100D400021F482811F968C9305C09A3031F4828100
:100D500050968C9381E00895089580E00895DC0119
:100D6000FB0188E4808389E4818384E482831D9687
:100D70009C911D979F709F5B93831D968D919C9175
:100D80001E9724E0969587952A95E1F78F708F5BE3
:100D9000848385E00895EF92FF920F931F93CF9382
:100DA000DF93FB012081213851F52381223239F56F
:100DB000DC0112962C9130E0448155814217530793
:100DC000F1F4EC010B851C85E12CF12C01151105CA
:100DD00091F0F801448155816281738180E80E941D
:100DE00046058F3FFFEF9F0769F0E80EF91ED80117
:100DF0000D911C91EBCF81E08F87C70105C080E08A
:100E000090E002C08FEF9FEFDF91CF911F910F9184
:100E1000FF90EF900895CF93DF93CDB7DEB769973A
:100E20000FB6F894DEBF0FBECDBFFC01DB018C9185
:100E30008F5F8C93BE016F5F7F4F89E1DB011D9255
:100E40008A95E9F729E0298384E08A8391E09D83EC
:100E500083E08E832A8721E22B879C879D879F874B
:100E600022E2288B27E02B8B25E02C8B8E8B20E435
:100E700030E0388F2F8B998F82818B839585868583
:100E8000998B8A8B838180688D8B49E150E080E06B
:100E90000E94460569960FB6F894DEBF0FBECDBF1F
:100EA000DF91CF910895FC0182818F5BFB018083EC
:100EB00081E008950E94B819CF93DF931F92CDB7B8
:100EC000DEB7FC018485958597FD05C02FEF3FEFC8
:100ED000358724870BC0CE0101960E94DA11019755
:100EE00019F4898190E002C08FEF9FEF0F90DF919E
:100EF000CF9108950F931F93CF93DF931F92CDB798
:100F0000DEB78C01FC018485958597FF0EC0CE016C
:100F100001960E94DA11019719F4298130E002C08C
:100F20002FEF3FEFF80135872487F80184859585F9
:100F30000F90DF91CF911F910F9108951F920F9203
:100F40000FB60F9211248F939F938091E10090919F
:100F5000E100937F9093E10083FF0FC01092E900BE
:100F600091E09093EB001092EC0092E39093ED00EF
:100F700010928F0298E09093F00082FF20C093E0DF
:100F80009093E9009091F200992319F09AE39093DD
:100F9000E80090917702992339F09091770291506F
:100FA00090937702992389F190918E02992339F0D9
:100FB00090918E02915090938E02992341F184FF7B
:100FC00010C08091E2008E7E81608093E20080916B
:100FD000E1008F7E8093E100809179028E7E8061B6
:100FE00011C080FF16C08091E2008E7E80618093E8
:100FF000E2008091E1008E7E8093E1008091790291
:101000008E7E81608093790204C05D9ACDCF289A4C
:10101000D6CF9F918F910F900FBE0F901F90189574
:101020001F920F920FB60F921124CF92DF92EF9280
:10103000FF920F931F932F933F934F935F936F9361
:101040007F938F939F93AF93BF93EF93FF93CF9330
:10105000DF93CDB7DEB76C97DEBFCDBF1092E9004E
:101060008091E80083FFFAC168E0CE0145960E94B6
:101070006D0582EF8093E8008D8987FF05C0909110
:10108000E80090FFFCCF03C09EEF9093E800982FFC
:10109000907609F0C6C09E892F89188D91110CC0D9
:1010A000803829F480917A028093F10002C0109276
:1010B000F1001092F10047C1422F50E0512B9130C6
:1010C00051F4811140C14130510509F03CC180917A
:1010D0007A028D7F0BC0933061F4811134C14130AD
:1010E000510509F030C180917A02826080937A02C2
:1010F0002AC1953041F48091E80080FFFCCF206840
:101100002093E30020C1963009F05FC0EB8CFC8C8B
:101110001092E9001092760210927502123091F549
:1011200010927402109273020E94B90599E0BE01F8
:101130006F5F7F4FDB01E92F1D92EA95E9F79983F5
:101140001A8391E09E8390EA98879AEF998720917D
:10115000750230917602275F3F4F3C832B838D834E
:101160001092E9001092760210927502F0927402C9
:10117000E092730249E050E080E00E9446050E9440
:10118000B905E1C0F0927402E09273020E94A505D5
:10119000DC011296ED90FC901397E114F10409F430
:1011A000C0C0D701ED91FC910480F581E02DBE0116
:1011B0006B5E7F4FC7010995009719F00CF0C3C013
:1011C000C6C0F701E084F184E8CF973009F4BFC0CE
:1011D000983021F481E08093F100B5C0993009F096
:1011E000B2C0837009F0B3C0E1E0F1E081E021E03A
:1011F00036E39081992361F08093E9002093EB001E
:1012000091919093EC003093ED008F5F873089F7D8
:101210008EE78093EA001092EA008F8980938F0214
:1012200092C08B8D9C8D1092E900109276021092E4
:1012300075029093740280937302898D811156C058
:101240008E899D89913A59F4813209F080C047E036
:1012500050E06BE071E080E00E94460574C091327E
:1012600009F075C0833289F4888D90E0982F882723
:101270002F89822BA0E0B0E08093070190930801B2
:10128000A0930901B0930A015EC0803269F4809195
:10129000E80082FFFCCF67E08BE091E00E946D05E3
:1012A0008BEF8093E80006C0823209F04CC08F8932
:1012B0008093120180917802882319F0EEEFFAE012
:1012C00002C0E0E0F8E080910B0190910C01A09148
:1012D0000D01B0910E01803B9440A105B10509F0CC
:1012E00088C08091120180FFA0C083C00E94A50524
:1012F000DC0112960D911C9113970115110539F11E
:10130000D801ED91FC910190F081E02DBE016B5E62
:101310007F4FC8010995811116C0F801008511851C
:10132000ECCF1130C1F0133091F48F89882309F488
:1013300055C08230E9F440E860E18EE592E00E9419
:101340000905882321F08EEF8093E80087C081E2B1
:101350008093EB0083C08B8D9C8D089711F41093C4
:10136000720280917202811136C06FE672E038C05D
:10137000813029F440E86BE082E592E0E0CF8330F1
:1013800031F70E94A505DC011296ED90FC901397B1
:101390008E010F5F1F4F6801E114F10479F0D7014E
:1013A000ED91FC910680F781E02DB801C701099508
:1013B000080F111DF701E084F184EECFD8011C92D3
:1013C000F60101900020E9F73197BF016C197D0902
:1013D00040E0C601B4CF61E872E002C06EE472E0A2
:1013E0006115710509F4B3CFFB01449150E080E829
:1013F00033CF0FB6F894A8958091600088618093F0
:101400006000109260000FBEA895EE3F2AE0F20740
:1014100039F08091FE0A9091FF0A9183808393CFE7
:101420001092FF0A1092FE0A8ECFEE3F8AE0F80774
:1014300031F0808191819093FF0A8093FE0A87E7C3
:1014400097E7918380839BE088E10FB6F894A89595
:10145000809360000FBE9093600075CF6C960FB6BE
:10146000F894DEBF0FBECDBFDF91CF91FF91EF911A
:10147000BF91AF919F918F917F916F915F914F91AC
:101480003F912F911F910F91FF90EF90DF90CF90A0
:101490000F900FBE0F901F901895CF93DF93282FBA
:1014A00030E0F901E351FE4F8491F901E253FE4F20
:1014B000D491F901E155FE4FC491CC2391F08111F3
:1014C0000E942606EC2FF0E0EE0FFF1FEF55FE4FB7
:1014D000A591B491EC91ED2381E090E021F480E0BE
:1014E00002C080E090E0DF91CF9108951F93CF93E9
:1014F000DF93282F30E0F901E351FE4F8491F90189
:10150000E253FE4FD491F901E155FE4FC491CC2333
:10151000C9F0162F81110E942606EC2FF0E0EE0F85
:10152000FF1FED56FE4FA591B4918FB7F89411119E
:1015300005C09C91ED2FE095E92302C0EC91ED2BC5
:10154000EC938FBFDF91CF911F910895CF93DF93DD
:1015500090E0FC01E253FE4F2491FC01E155FE4F67
:101560008491882361F190E0880F991FFC01EB576B
:10157000FE4FC591D491FC01ED56FE4FA591B4915B
:10158000611109C09FB7F8948881209582238883D0
:10159000EC912E230BC0623061F49FB7F894388130
:1015A000822F809583238883EC912E2B2C939FBFD1
:1015B00006C08FB7F894E8812E2B28838FBFDF9168
:1015C000CF9108958F929F92AF92BF92CF92DF9268
:1015D000EF92FF926B017C010E9463064B015C015C
:1015E000C114D104E104F104F1F00E946306DC01AE
:1015F000CB0188199909AA09BB09883E9340A10526
:10160000B10570F321E0C21AD108E108F10888EEB3
:10161000880E83E0981EA11CB11CC114D104E10402
:10162000F10419F7DDCFFF90EF90DF90CF90BF90DE
:10163000AF909F908F9008958F929F92AF92BF929C
:10164000CF92DF92EF92FF920F931F93CF93DF938E
:1016500000D01F92CDB7DEB7382F8B0180918F025B
:10166000811103C08FEF9FEF7DC08091790280FFD1
:1016700005C08091E00082608093E0004A018AEF1B
:10168000F82E832F8770E82E9FE3C92E832F807258
:10169000B82E2AE3D22E832F8074A82E81149104B1
:1016A00009F457C08FB7F894E092E9009091E800F0
:1016B00095FF05C09091F2002C2D291B01C020E060
:1016C0008FBF211110C0FA94FF2061F261E070E039
:1016D00080E090E039834A835B830E94E20A39818B
:1016E0004A815B81DBCF822F90E0881699060CF44B
:1016F000282D6FB7F894E092E9008091E80085FF0B
:1017000026C0822F90E0881A990ABB2029F0215028
:10171000A8F01092F100FBCFF80137FF07C021506D
:1017200058F074917093F1003196F9CF215020F068
:1017300071917093F100FACF080F191F8091E800A2
:1017400085FF0DC08114910411F4A11008C06FBF72
:10175000A5CF5D9884E680937702CA0103C0D0923A
:10176000E800F5CF0F900F900F90DF91CF911F9170
:101770000F91FF90EF90DF90CF90BF90AF909F9030
:101780008F900895CF93DF93EC018091120188230D
:1017900031F083E00E941C0B1816190634F081E02A
:1017A00090E09B838A8380E090E0DF91CF91089561
:1017B0002FB7F89460915E0270915F028091600291
:1017C000909161022FBF08951F920F920FB60F9252
:1017D00011242F933F938F939F93AF93BF93809147
:1017E0005E0290915F02A0916002B091610230911F
:1017F0005D0223E0230F2D3720F40196A11DB11DBA
:1018000005C026E8230F0296A11DB11D20935D029D
:1018100080935E0290935F02A0936002B093610296
:101820008091620290916302A0916402B09165027E
:101830000196A11DB11D8093620290936302A09353
:101840006402B0936502BF91AF919F918F913F91D8
:101850002F910F900FBE0F901F901895AF92BF92CF
:10186000CF92DF92EF92FF920F931F93CF93DF936C
:101870001F92CDB7DEB77C0169836A01590141E04F
:1018800050E0BE016F5F7F4FFC0183810E941C0B03
:101890008C0197FD0BC0F7018381A501B60180641F
:1018A0000E941C0B97FD02C0800F911F0F90DF91CB
:1018B000CF911F910F91FF90EF90DF90CF90BF904D
:1018C000AF9008958091550281116BC081E08093A3
:1018D0004802809349022EE432E030934B02209379
:1018E0004A0210924D0210924C0225E631E03093EC
:1018F0004502209344021092500210924F0210921F
:10190000520210925102809353028093540281EC50
:1019100080934E020E94A505FC012181809148021E
:1019200090E0820F911D089724F081E0809355028A
:1019300038C0A281B381109729F484E492E09383A4
:1019400082830EC018968D919C911997009711F083
:10195000DC01F8CF84E492E019969C938E9318975B
:10196000808180934602818180934702908180919B
:101970004902890F808380E0909148028917A8F678
:10198000A0914A02B0914B02A80FB11D9C91A18178
:10199000B0E0A050BF4F9C9391819F5F91838F5F78
:1019A000EBCF84E492E00895CF93DF93DC016838B5
:1019B00010F0685825C0E62FF0E067FF12C0E0582D
:1019C000F10981E090E001C0880FEA95EAF780957F
:1019D00014969C911497892314968C93149760E025
:1019E0000FC0EB5FFE4F6491662329F167FF08C0CB
:1019F00014968C9114978D7F14968C9314976F770F
:101A0000FD01369686E0662321F09081961301C091
:101A10001082815031968111F6CFED010E94620C47
:101A2000AE014C5F5F4F28E030E062E00E942E0C78
:101A300081E090E002C080E090E0DF91CF910895D6
:101A4000CF93DF93DC01683810F068582DC0E62F83
:101A5000F0E067FF11C0E058F10981E090E001C0BB
:101A6000880FEA95EAF714969C911497892B14969F
:101A70008C93149760E018C0EB5FFE4F6491611186
:101A800009C081E090E013969C938E93129780E0BA
:101A900090E046C067FF08C014968C91149782604E
:101AA00014968C9314976F7716968C9116978617C9
:101AB00051F117968C911797861729F118968C91EA
:101AC0001897861701F119968C9119978617D9F0F6
:101AD0001A968C911A978617B1F01B968C911B97CA
:101AE000861789F0FD01369680E090E02191211162
:101AF00005C0FD01E80FF91F668305C00196863019
:101B00009105A1F7BECFED010E94620CAE014C5FC2
:101B10005F4F28E030E062E00E942E0C81E090E010
:101B2000DF91CF910895EF92FF921F93CF93DF93B0
:101B3000EC01162F0E94200D7C01612FCE010E9426
:101B4000D40CC7019927DF91CF911F91FF90EF909F
:101B500008951F920F920FB60F9211242F933F9367
:101B60004F935F936F937F938F939F93AF93BF93A5
:101B7000EF93FF93E0917B02F0917C020995FF9136
:101B8000EF91BF91AF919F918F917F916F915F91F5
:101B90004F913F912F910F900FBE0F901F9018956E
:101BA00080917D0290917E02019790937E028093B6
:101BB0007D0260E087E00E94760A68E270E080E0E3
:101BC00090E00E94E20A61E087E00E94760A65E008
:101BD00070E080E090E00C94E20AEF92FF920F93A5
:101BE0001F93962F482F50E0FA01EE0FFF1FDF01E1
:101BF000A40FB51FAA5EBE4F1C966C911C97209136
:101C000043026C3F49F020FF04C01D968C91811166
:101C1000682F6D3F09F443C021FF08C04E0F5F1FBE
:101C2000FA01EA5EFE4F86858111682F6A3F61F4F2
:101C3000992309F484C08091140190911501883191
:101C4000910591F001960CC06B3F99F4992309F42A
:101C500076C08091140190911501009729F00197A9
:101C600090931501809314018091140180935C017D
:101C70009BC06C3F91F480915B0182FF06C0992369
:101C800009F45DC020FD05C002C0992311F0216058
:101C900001C02E7F2093430252C06D3F91F480918A
:101CA0005B0183FF06C0992309F480C021FD05C0B4
:101CB00002C0992311F0226001C02D7F20934302BE
:101CC00075C0663F11F49F5727C0673F11F49F57B7
:101CD0002AC0683F11F49F572DC0693F21F49F57D8
:101CE0009093EF0250C06C3D08F44FC06E3D81F000
:101CF00030F46C3DA1F06D3D01F56FE711C0603E21
:101D0000A9F020F0613EC9F461E811C06FE701C09D
:101D100061E8969F902D11249093EC0234C061E805
:101D2000969F902D11249093ED022DC06FE7969F02
:101D3000902D11249093EE0226C0663EA8F18AE110
:101D4000860F2091F0023091F10241E050E060E016
:101D500070E07A018B0104C0EE0CFF1C001F111F04
:101D60008A95D2F7911107C0D801C7018095909547
:101D70008223932304C0D801C701822B932B909315
:101D8000F1028093F00281E013C06D3060F099237E
:101D900029F080EE92E00E94200D06C080EE92E0D5
:101DA0000E94D40C01C004C080E002C06DEFC7CF18
:101DB0001F910F91FF90EF9008954F925F926F9255
:101DC0007F928F929F92AF92BF92CF92DF92EF92CB
:101DD000FF920F931F93CF93DF93C4EED1E04DE6B4
:101DE000A42E41E0B42E8501E12CF12C912C442449
:101DF0004A9453E0552E612C712CF701EA5EFE4F98
:101E00008485865F8430B8F5D801EC91E23108F022
:101E1000E251F0E0E750FF4FE49120917B00E3FBBB
:101E2000CC24C0F8D12CC60135E0880F991F3A9513
:101E3000E1F7922F9F7D892B80937B00E770E06410
:101E4000E0937C0080917A00806480937A00809196
:101E50007A0086FDFCCFA091780080917900B0E0F7
:101E6000B82B2EEF30E00E94B119A30192010E941D
:101E7000D319822E09C0F80180810E944D0A88245E
:101E80008394892B09F0812C8881881601F10E94A6
:101E9000D80B29813A814B815C81DC01CB01821B0B
:101EA000930BA40BB50B4A97A105B10580F088826E
:101EB0000E94D80B69837A838B839C83682D802F43
:101EC0008A190E94ED0D882311F099249394F3E070
:101ED000EF0EF11C25960F5F1F4F89E3E816F10402
:101EE00009F08BCF992091F0DF91CF911F910F9145
:101EF000FF90EF90DF90CF90BF90AF909F908F902A
:101F00007F906F905F904F900C943211DF91CF9142
:101F10001F910F91FF90EF90DF90CF90BF90AF9007
:101F20009F908F907F906F905F904F900895EF9269
:101F3000FF920F931F93CF93DF931F92CDB7DEB71E
:101F40008AEE90E00E947B1006E111E088E0E82E26
:101F5000F12CF80161918F01C70169830E94BD19BD
:101F60006981681719F0C7010E94C519FFEFEF1AC0
:101F7000FF0A8FE4E816F10461F70F90DF91CF912B
:101F80001F910F91FF90EF900895FF920F931F9371
:101F9000CF93DF93C1EDD1E008E010E0FC2E8CE0A0
:101FA000F80EC8010E94BD19299190E0022E000C84
:101FB000330B82179307B9F40F5F1F4FFC12F1CF59
:101FC0008AEC90E00E947B1006E111E0C8E0D0E0CE
:101FD000CE010E94BD19F80181938F012196CF3463
:101FE000D105B1F70BC08AED90E00E947B10DF9124
:101FF000CF911F910F91FF900C94970FDF91CF918C
:102000001F910F91FF900895BC01009791F0FC0182
:1020100001900020E9F73197AF01481B590BE0917F
:102020009002F09191020280F381E02D80E992E02C
:10203000099480E090E008950F931F930E94D80BBD
:10204000609398027093990280939A0290939B02F6
:10205000E0919002F09191020084F185E02D80E9F9
:1020600092E0099597FF1FC00E94D80B009198023B
:102070001091990220919A0230919B02DC01CB01D0
:10208000801B910BA20BB30B00919402109195024F
:10209000209196023091970280179107A207B3070B
:1020A000B8F28FEF9FEF1F910F91089580EE91E0AE
:1020B0000C9404100F931F93CF93DF938C01C0E017
:1020C000D0E0F801EC0FFD1F6491662371F0E09100
:1020D0009002F09191020190F081E02D80E992E070
:1020E0000995892B11F02196ECCFCE01DF91CF918C
:1020F0001F910F910895CF93DF930E945A10EC0126
:102100000E9456108C0F9D1FDF91CF9108958F92E2
:102110009F92AF92BF920F931F93CF93DF93CDB750
:10212000DEB7A1970FB6F894DEBF0FBECDBF19A2E0
:10213000423008F44AE08E010F5D1F4F842E912C2F
:10214000A12CB12CA50194010E94FD19E62FB90123
:10215000CA0101501109EA3014F4E05D01C0E95CE4
:10216000D801EC93232B242B252B61F7C8010E9467
:102170000410A1960FB6F894DEBF0FBECDBFDF915D
:10218000CF911F910F91BF90AF909F908F90089526
:10219000E0919002F09191020190F081E02D682F82
:1021A00080E992E00994CF92DF92EF92FF92CF9371
:1021B000DF936C01990FEE08FF08F7FE12C08DE265
:1021C0000E94C810EC0166277727CB016C197D09A6
:1021D0008E099F094AE00E9487107C01EC0EFD1ECB
:1021E00006C04AE0C701B6010E9487107C010E9428
:1021F00056108E0D9F1DDF91CF91FF90EF90DF90D5
:10220000CF9008950C940410CF92DF92EF92FF923A
:10221000CF93DF936C01990FEE08FF08F7FE17C00C
:102220008DE20E94C810EC0166277727CB016C195C
:102230007D098E099F094AE00E9487108C0F9D1F1F
:10224000DF91CF91FF90EF90DF90CF9008954AE01B
:10225000C701B601DF91CF91FF90EF90DF90CF9053
:102260000C948710CF93DF9300D000D000D0CDB76F
:10227000DEB7ECEEF2E09481858199838A838081D8
:102280008B8381818C8382818D8383818E830E9465
:10229000620C26E030E0AE014F5F5F4F63E00E94CA
:1022A0002E0C26960FB6F894DEBF0FBECDBFDF9181
:1022B000CF910895682F70E080E090E04AE00C94A0
:1022C0008710FF920F931F93CF93DF9300D000D01E
:1022D000CDB7DEB70E941C10FC0197FD11C08D32F6
:1022E000910591F0C0970A9778F0E0919002F091F3
:1022F00091020680F781E02D80E992E00995EACF0E
:1023000060E070E0CB014CC020E030E0A901F12C8E
:10231000E130F105F1F0ED32F105C9F0CF01C097E0
:102320000A97B8F4AAE0B0E00E94F2198F01FF0FFB
:10233000220B330BDC01CB01800F911FA21FB31FB7
:102340009C01AD01205331094109510902C0FF240C
:10235000F394E0919002F09191020680F781E02DD4
:1023600080E992E029833A834B835C8309950E943C
:102370001C10FC01C09729813A814B815C810A972E
:1023800038F2E130F10521F2FF2041F0662777278E
:10239000CB01621B730B840B950B02C0CA01B90100
:1023A0000F900F900F900F90DF91CF911F910F9191
:1023B000FF900895FC0180918F02811103C08FEF7F
:1023C0009FEF08959FB7F89482E08093E9002091F1
:1023D000F20030E01216130614F421E030E021156B
:1023E000310559F0289884E680938E028091F1009F
:1023F00080838091F200882319F09FBFC90108955E
:102400008BE68093E800F9CFCF93DF931F92CDB78F
:10241000DEB7789484B5826084BD84B5816084BD64
:1024200085B5826085BD85B5816085BD80916E0072
:10243000816080936E0010928100809181008260A3
:1024400080938100809181008160809381008091E0
:1024500080008160809380008091910082608093F1
:102460009100809191008160809391008091900013
:102470008160809390008091C10084608093C1004E
:102480008091C10082608093C1008091C100816011
:102490008093C1008091C30081608093C3008091CC
:1024A000C00082608093C0008091C20081608093F0
:1024B000C20080917A00846080937A0080917A00D3
:1024C000826080937A0080917A00816080937A00A4
:1024D00080917A00806880937A0010928F02109227
:1024E0007A02109279028091D70081608093D700A0
:1024F00080EA8093D80089B5806189BD89B5826002
:1025000089BD09B400FEFDCF61E070E080E090E09D
:102510000E94E20A8091D8008F7C80618093D8006D
:102520008091E000807F8093E0008091E1008E7ECA
:102530008093E1008DE08093E200559A209AEEEFBF
:10254000FFE7859194918B3F9C4D19F481E0809336
:1025500078028FEF9FEF90939D0280939C0284E618
:1025600090E0A0E0B0E08093940290939502A09355
:102570009602B09397020E94C50F0E943211BDE6E9
:10258000EB2EB1E0FB2E13E11E0D62E0F70181910D
:102590007F010E94A60A1E11F8CF61E08DE00E9423
:1025A000A60A61E08BE00E94A60A61E08BE00E942F
:1025B000760A61E087E00E94A60A61E087E00E9457
:1025C000760A60E085E00E94A60A85E00E944D0A36
:1025D00021E0892B09F020E02093130110915C0188
:1025E00082E290E090937E0280937D0280917D0252
:1025F00090917E02181619064CF480917D029091FC
:102600007E02892B99F30E94D00DF0CF812F90E0AC
:10261000909315018093140180E1809381001092C2
:10262000800081E08093810220E43CE930938002C5
:1026300020937F02309387002093860091E190934E
:1026400081002DED3EE030937C0220937B0280934D
:102650006F0010928100109285001092840080918A
:102660008102806180938100A0E06A2EA0E07A2E32
:1026700008E110E080E992E00E940C06892B09F441
:102680009EC480E992E00E945C07992788369105F4
:10269000E1F1CCF48136910509F4ACC344F48B32FA
:1026A000910509F45FC48D9709F46FC4E3CF8436B4
:1026B000910509F450C38736910509F42EC382367B
:1026C0009105C1F6E6C38D36910509F4EAC254F4CA
:1026D0008B36910509F410C38C36910559F60E948A
:1026E000C50FC8CF8337910509F439C486379105E2
:1026F00049F08E36910509F0BDCFE0E8F1E080E0C9
:1027000090E01CC38FEE98E0EDC280E397E00E945A
:102710007B108BEE96E00E947B1081EC96E00E948D
:102720007B108FEA96E00E947B1089E796E00E947A
:102730007B1087E696E00E947B1085E596E00E947C
:102740007B1083E496E00E947B1081E396E00E9478
:102750007B108FE196E00E947B1080E090E00E9469
:10276000041181E196E00E945A1081E090E00E94FD
:10277000041183E096E00E945A1082E090E00E94EB
:10278000041185EF95E00E945A1083E090E00E94CA
:10279000041187EE95E00E945A100E94561084E0C2
:1027A00090E00E94041189ED95E00E945A1085E0A6
:1027B00090E00E9404118BEC95E00E945A1086E094
:1027C00090E00E9404118DEB95E00E945A1087E082
:1027D00090E00E9404118FEA95E00E945A1088E070
:1027E00090E00E94041181EA95E00E945A1089E06D
:1027F00090E00E94041183E995E00E945A100E9423
:1028000056108AE090E00E94041186E895E00E944C
:102810005A108BE090E00E94041189E795E00E9435
:102820005A108CE090E00E9404118CE695E00E9422
:102830005A108DE090E00E9404118FE595E00E940F
:102840005A100E9456108EE090E00E94041182E51A
:1028500095E00E945A108FE090E00E94041185E4F8
:1028600095E00E945A100E94561080E190E00E946C
:10287000041188E395E00E945A1081E190E00E94E3
:1028800004118BE295E00E945A1082E190E00E94D0
:1028900004118EE195E00E945A100E9456108BE0C0
:1028A00095E00E947B108CED90E00E9404118EEF69
:1028B00094E00E945A108DED90E00E94041181EF87
:1028C00094E00E945A108EED90E00E94041184EE74
:1028D00094E00E945A108FED90E00E94041187ED61
:1028E00094E00E945A1080EE90E00E9404118AEC5D
:1028F00094E00E945A1081EE90E00E9404118DEB4A
:1029000094E00E945A100E94561086EF90E00E94B8
:10291000041180EB94E00E945A1087EF90E00E942F
:10292000041183EA94E00E945A1088EF90E00E941C
:10293000041186E994E00E945A1089EF90E00E9409
:10294000041189E894E00E945A100E945610F6EE95
:10295000EF2EF12CC7010E94041180E894E00E9440
:102960005A10C701865E91090E940411F0EFEF161C
:10297000F10424F48EED91E00E9402118DED91E0BE
:102980000E940211C701019783709927892B11F4C6
:102990000E9456102FEFE21AF20A36EFE316F10406
:1029A000C9F60E9456108AEF90E00E94041184E755
:1029B00094E00E945A108BEF90E00E94041188E688
:1029C00094E00E945A108CEF90E00E9404118CE574
:1029D00094E00E945A108DEF90E00E94041180E56F
:1029E00094E00E945A100E9456108AED90E00E94D6
:1029F000041184E494E00E945A1089ED90E00E9452
:102A0000041188E394E00E945A1088ED90E00E943F
:102A100004118CE294E00E945A1087ED90E00E942D
:102A2000041180E294E00E945A100E94561080E83F
:102A300090E00E94041184E194E00E945A1081E821
:102A400090E00E94041188E094E00E945A1082E80D
:102A500090E00E9404118CEF93E00E945A1083E8EA
:102A600090E00E94041180EF93E00E945A100E94AF
:102A7000561084E890E00E94041184EE93E00E94D6
:102A80005A1085E890E00E94041188ED93E00E94BE
:102A90005A1086E890E00E9404118CEC93E00E94AA
:102AA0005A1087E890E00E94041180EC93E00E94A5
:102AB0005A100E94561082EB90E00E94041184EBA1
:102AC00093E00E945A1083EB90E00E94041188EA80
:102AD00093E00E945A1080EB90E00E9404118CE970
:102AE00093E00E945A1081EB90E00E94041180E96B
:102AF00093E00E945A100E94561081ED90E00E94CF
:102B0000041184E893E00E945A1084ED90E00E9442
:102B1000041188E793E00E945A1083ED90E00E9430
:102B200004118CE693E00E945A1086ED90E00E941A
:102B3000041180E693E00E945A100E94561082ED24
:102B400090E00E94041184E593E00E945A1085ED04
:102B500090E00E94041188E493E00E945A1081ECF6
:102B600090E00E9404118CE393E00E945A108DE0E3
:102B700090E00E9404118FE293E00E945A100E949C
:102B8000561082EC90E00E94041183E293E00E94D0
:102B90005A1083EC90E00E94041187E193E00E94B8
:102BA0005A1084EC90E00E9404118BE093E00E94A4
:102BB0005A1085EC90E00E9404118FEF92E00E9481
:102BC0005A100E94561086EC90E00E94041183EF88
:102BD00092E00E945A1087EC90E00E94041187EE68
:102BE00092E00E945A1088EC90E00E9404118BED54
:102BF00092E00E945A1089EC90E00E9404118FEC40
:102C000092E00E945A100E9456108AEC90E00E94B6
:102C1000041183EC92E00E945A108BEC90E00E9429
:102C2000041187EB92E00E945A108CEC90E00E9415
:102C300004118BEA92E00E945A108DEC90E00E9401
:102C400004118FE992E00E945A100E9456100E94CF
:102C50005610E1E2EE2EF12CC7010E94041184E629
:102C6000E816F10424F48EED91E00E9402118BE944
:102C700092E00E945A108E2D0E94C81083E992E0C3
:102C80000E945A10C70183709927892B11F40E9462
:102C90005610EFEFEE1AFE0AFFE7EF16F104E1F629
:102CA000A6C080E992E00E945C070E94611180E961
:102CB00092E069830E945C0780E992E00E945C07D1
:102CC0006981662391F0883619F0843771F480C2E7
:102CD000613009F087C280915B018B7F80935B013B
:102CE0008EED98E00E947B10C5CC8AE798E00E94A8
:102CF0007B1082E598E0F6CFE6EAF1E080E090E034
:102D00002191DC01AA5EBE4F1C962C930396893359
:102D10009105B1F782E498E0E5CFE3E9F1E080E0E6
:102D200090E02191DC01AA5EBE4F1C962C93039685
:102D300089339105B1F783E398E0D4CF2191DC0189
:102D4000AA5EBE4F1C962C93039689339105B1F76A
:102D500080E298E0C7CF81E60E94C810E12CF12CF8
:102D60008EED91E00E940211F701EA5EFE4F84852C
:102D70000E945A1123E0E20EF11C39E3E316F1043C
:102D800079F7E12CF12C8EED91E00E940211F70110
:102D9000EA5EFE4F85850E945A1183E0E80EF11C21
:102DA000E9E3EE16F10479F7E12CF12C8EED91E0D8
:102DB0000E940211F701EA5EFE4F86850E945A11B9
:102DC000F3E0EF0EF11C29E3E216F10479F78EED42
:102DD00091E00E94021180915B010E945A118EEDD8
:102DE00091E00E94021180915C010E945A110E94A0
:102DF000561040CCF12C80E992E00E945C078032B2
:102E0000C9F50E9461113AE3F31203C060935C01BB
:102E10002FC089E3F81203C060935B0129C02F2DF6
:102E200030E0E5E2EF1560F426523109F901EE0FCA
:102E3000FF1F2E0F3F1FF901EA5EFE4F668718C085
:102E4000F2E1FF1560F423513109F901EE0FFF1F84
:102E50002E0F3F1FF901EA5EFE4F658709C0F90199
:102E6000EE0FFF1F2E0F3F1FF901EA5EFE4F648732
:102E7000F394C1CFFF2051F089E198E00E945A10ED
:102E80008F2D0E945A1181E198E02CCF80EF97E0BE
:102E900029CF80E992E00E945C070E946111C62E52
:102EA00022E1261708F4E6CB80E992E00E945C0755
:102EB0000E946111D62E662309F44EC0EC2CF12C31
:102EC000C701880F991F8E0D9F1DFC01EA5EFE4F02
:102ED0007F0160E084850E94ED0DF701D48688EEC5
:102EE00097E00E945A108C2D0E945A1182EE97E0B2
:102EF0000E945A108D2D0E945A1180E992E00E9482
:102F00005C07809709F073CF0E946111D62E60E0B4
:102F1000F70185850E94ED0DF701D5868AED97E0D2
:102F20000E945A108D2D0E945A1180E992E00E9451
:102F30005C07809709F05BCF0E946111D62E60E09C
:102F4000F70186850E94ED0DF701D68682ED97E0A8
:102F50000E945A108D2D49CF86E997E0C3CE0E947A
:102F6000970F88CB809114019091150188319105BC
:102F700029F001969093150180931401809114011A
:102F800080935C018DE897E011C0809114019091CD
:102F90001501009729F00197909315018093140172
:102FA0008091140180935C0184E897E00E945A109C
:102FB00080911401909115010E94D3105BCB85E0A4
:102FC0000E944D0AFF24F394892B09F0F12C809183
:102FD0001301F81609F463C069E170E080E090E045
:102FE0000E94E20A85E00E944D0A21E030E0892B30
:102FF00011F020E030E08F2D90E02817390709F01C
:103000004EC00E94D80B8090840290908502A090C0
:103010008602B0908702DC01CB0188199909AA09C0
:10302000BB09893E9340A105B105C8F1F092130197
:103030000E94D80B6093840270938502809386026D
:1030400090938702FF2089F08FE397E00E947B1026
:1030500080911401909115019093830280938202D4
:1030600010921501109214011AC080918202909161
:103070008302893191052CF49093150180931401FA
:1030800004C010931501009314018BE597E00E9492
:103090005A1080911401909115010E94D310E09074
:1030A0001401F090150180917D0290917E028E15A1
:1030B0009F051CF580917D0290917E024897E9F072
:1030C00080917D0290917E02019690937E02809382
:1030D0007D0260E08BE00E94760A68E270E080E0AA
:1030E00090E00E94E20A61E08BE00E94760A65E0CF
:1030F00070E080E090E00E94E20A80917D02909171
:103100007E02E816F90644F480917D0290917E02D9
:10311000892B11F00E94D00D80917D0290917E024A
:10312000E816F90609F04DC080915C0190E020910D
:103130008C0230918D022817390709F442C00E9491
:10314000D80BC0908802D0908902E0908A02F0905B
:103150008B02DC01CB018C199D09AE09BF09813DB1
:103160009740A105B10568F184E797E00E945A10E5
:1031700060915C0170E080E090E04AE00E9487107E
:103180000E94561060915C018EE490E069830E9479
:10319000BD196981681721F08EE490E00E94C5197D
:1031A0000E94D80B609388027093890280938A02F0
:1031B00090938B0280915C0190E090938D028093BC
:1031C0008C026114710409F455CA0E94000052CAAD
:1031D000613099F480915B01846080935B018BEC9A
:1031E00098E080CD623009F045CA80915B01877F0D
:1031F00080935B018AEB98E075CD623009F03ACAA2
:1032000080915B01886080935B0187EA98E06ACDDA
:10321000109293021092920288EE93E0A0E0B0E048
:103220008093940290939502A0939602B093970294
:103230008DEB91E090939102809390028FEF9FEF3E
:1032400090939D0280939C021092E3021092E202FE
:103250008DEC91E09093E1028093E0028091F8027E
:10326000811113C01092F3021092F2028BEF98E0DA
:103270009093F5028093F4028FE290E09093F7022E
:103280008093F60281E08093F8020E94620CFC01B8
:10329000A385B485109729F482EF92E09487838701
:1032A0000BC08D919C911197009711F0DC01F9CF23
:1032B00082EF92E08D939C93258536858091F6026E
:1032C0009091F702820F931F96878587809106035E
:1032D000811113C010920103109200038AE299E059
:1032E000909303038093020386E390E09093050399
:1032F0008093040381E0809306030E94620CFC012A
:10330000A385B485109729F480E093E094878387A0
:103310000BC08D919C911197009711F0DC01F9CFB2
:1033200080E093E08D939C932585368580910403FE
:1033300090910503820F931F968785871092EC0268
:103340001092ED021092EE021092EF021092F10232
:103350001092F0020895EE0FFF1F0590F491E02DFA
:1033600009940E941F1AB7FF0895821B930B0895BA
:1033700081E090E0F8940C942E1AF999FECF92BD5A
:1033800081BDF89A992780B50895262FF999FECF27
:103390001FBA92BD81BD20BD0FB6F894FA9AF99A72
:1033A0000FBE01960895052E97FB1EF400940E940F
:1033B000EA1957FD07D00E94FD1907FC03D04EF40F
:1033C0000C94EA1950954095309521953F4F4F4FF9
:1033D0005F4F089590958095709561957F4F8F4FC1
:1033E0009F4F08950E941F1AA59F900DB49F900DA6
:1033F000A49F800D911D11240895A1E21A2EAA1BED
:10340000BB1BFD010DC0AA1FBB1FEE1FFF1FA21794
:10341000B307E407F50720F0A21BB30BE40BF50B91
:10342000661F771F881F991F1A9469F7609570951A
:10343000809590959B01AC01BD01CF010895A29F9D
:10344000B001B39FC001A39F700D811D1124911D78
:10345000B29F700D811D1124911D0895F894FFCF26
:1034600000C18081000000FFFFFFFF00E1000000BD
:103470000000000118005069636164652062322E0B
:103480003300DA0000D90000D80000D70000800027
:10349000008200002000008100007A000078000017
:1034A000730000630000B00000B10000FA0000FBF0
:1034B00000006900006F00007000000014010000AF
:1034C000000000000088060B07CB06AF06191A1C87
:1034D0001B1716151413120C0400010302100E0F13
:1034E000F8F9F6F7E6E7E8E9EAEBECEDEEEFF0F1F4
:1034F000F2F3F4DCDDDEDFE6E7E8E9EAEBECEDEE43
:10350000EFF0F1F2F3F4DAD9D8D7808220817A781B
:103510007363B0B1FAFB696F7000000000EB05C285
:103520000B0C065C077A07010600000000930D7A79
:10353000055069636164652062322E3300202000EB
:043540000D0A000070
:00000001FF
