:100000000C9466040C948E040C948E040C948E0450
:100010000C948E040C948E040C948E040C948E0418
:100020000C948E040C948E040C945E1A0C94F018AC
:100030000C948E040C948E040C948E040C948E04F8
:100040000C948E040C948E040C948E040C948E04E8
:100050000C94DE0D0C948E040C948E040C94D81029
:100060000C948E040C948E040C948E040C948E04C8
:100070000C948E040C948E040C948E040C948E04B8
:100080000C948E040C948E040C948E040C948E04A8
:100090000C948E040C948E040C948E040C948E0498
:1000A0000C948E040C948E040C948E04E711EA11C7
:1000B000D911DD11E3110B120B120B12EE11F2111B
:1000C000F611FC1100120B120612566F6C756D655D
:1000D0003A2000566F6C756D653A20005573616764
:1000E000653A2062203C627574746F6E3E203C6BF2
:1000F0006579636F64653E203C6F7074696F6E61F3
:100100006C3A616C74313E203C6F7074696F6E6143
:100110006C3A616C74323E0020616C74323A20009B
:1001200020616C74313A200020746F3A2000426FD5
:10013000756E643A200055736167653A2061203C12
:100140006B6579636F64653E203C6B6579636F64B2
:10015000653E202E2E2E00206B65792873290042E3
:100160006F756E6420004C6F616465642047616D3B
:1001700065706164004C6F61646564204B657962F1
:100180006F6172640045473A206D20312074202051
:100190003D202053657420616C743120746F2028D9
:1001A00074296F67676C65206D6F646500557361B6
:1001B00067653A206D203C3120616C74312C20320F
:1001C00020616C74323E203C6820686F6C642C2087
:1001D0007420746F67676C653E00416C74322073E5
:1001E000657420746F20746F67676C6500416C7470
:1001F000322073657420746F20686F6C6400416CEA
:1002000074312073657420746F20746F67676C6538
:1002100000416C74312073657420746F20686F6CBA
:1002200064005069636164652076322E3200536148
:1002300076696E6720436F6E666967210053617649
:10024000696E67205072657365747321004C6F612D
:1002500064696E6720436F6E666967210020202005
:100260002020202000203D2000203D20463132204B
:100270002020202000203D20463131202020202039
:1002800000203D20463130202020202000203D202D
:10029000463920202020202000203D2046382020E4
:1002A0002020202000203D20463720202020202014
:1002B00000203D20463620202020202000203D2008
:1002C000463520202020202000203D2046342020BC
:1002D0002020202000203D204633202020202020E8
:1002E00000203D20463220202020202000203D20DC
:1002F00046312020202020200020203D2053706106
:10030000636520202000203D2043617073204C6BEA
:100310002000203D20456E64202020202000203D2C
:1003200020486F6D652020202000203D2050672050
:10033000446F776E2000203D2050672055702020AC
:100340002000203D2044656C657465202000203D20
:1003500020496E73657274202000203D2045534370
:10036000202020202000203D2052657475726E20D0
:100370002000203D20544142202020202000203D0C
:10038000204261636B7370632000203D2052204740
:10039000554920202000203D205220416C7420200F
:1003A0002000203D20522053686966742000203DC3
:1003B0002052204374726C202000203D204C2047A6
:1003C000554920202000203D204C20416C742020E5
:1003D0002000203D204C2053686966742000203D99
:1003E000204C204374726C202000203D205220417C
:1003F00072726F772000203D204C204172726F771F
:100400002000203D2044204172726F772000203D63
:100410002055204172726F772000203D20416C747E
:10042000203220202000203D20416C7420312020EB
:100430002000203D20566F6C202D20202000203DE4
:1004400020566F6C202B20202000203D204770611B
:10045000642000203D2047706164205A2D20200038
:10046000203D2047706164205A2B202000203D2031
:1004700047706164205220202000203D2047706199
:1004800064204C20202000203D20477061642044DF
:1004900020202000203D204770616420552020202E
:1004A000000A3C6B6579636F64653E207461626C21
:1004B000653A0A00203D2053434C4B202020202049
:1004C00000203D204D49534F202020202000203D7A
:1004D000204D4F5349202020202000203D20566FE2
:1004E0006C20446F776E2000203D20566F6C2055A5
:1004F0007020202000203D2045736361706520201E
:100500002000203D20456E746572202020200020B0
:100510003D20436F696E202020202000203D205385
:1005200074617274202020200020203D2042746ECF
:100530002036202020200020203D2042746E2035CF
:10054000202020200020203D2042746E20342020D6
:1005500020200020203D2042746E203320202020C7
:100560000020203D2042746E2032202020200020D8
:10057000203D2042746E2031202020200020203D8C
:10058000204A6F792052202020200020203D204A40
:100590006F79204C202020200020203D204A6F79B8
:1005A0002044202020200020203D204A6F79205523
:1005B00020202020000A3C627574746F6E3E207407
:1005C00061626C653A0A00517569636B2047616D21
:1005D000657061643A20206700517569636B204B38
:1005E0006579626F6172643A206B004C6F61643AA6
:1005F00020202020202020202020206C0053617605
:10060000653A202020202020202020202073004D2B
:100610006F64653A20202020202020202020206D9B
:10062000203C3120616C74312C203220616C74329A
:100630003E203C6820686F6C642C207420746F67C7
:10064000676C653E0044756D7020616C6C3A2020CB
:100650002020202020640042696E6420616C6C3A86
:100660002020202020202061203C6B6579636F646E
:10067000653E203C6B6579636F64653E202E2E2EAF
:100680000042696E642073696E676C653A202020B1
:100690002062203C627574746F6E3E203C6B6579FD
:1006A000636F64653E203C6F7074696F6E616C3A75
:1006B000616C74313E203C6F7074696F6E616C3A8E
:1006C000616C74323E000A50696361646520436F57
:1006D0006E6669670005010904A101850305091912
:1006E000012910150025017501951055006500813F
:1006F00002050109011581257FA100093009310991
:1007000032750895038102C0C005010906A1018563
:1007100002050719E029E7150025017501950881F3
:100720000295017508810395067508150025650574
:1007300007190029658100C00000000000000000CA
:100740002A2B28000000000000000000000000002C
:1007500000000000000000002C9EB4A0A1A2A43460
:10076000A6A7A5AE362D3738271E1F202122232409
:100770002526B333B62EB7B89F8485868788898AA5
:100780008B8C8D8E8F909192939495969798999A41
:100790009B9C9D2F3130A3AD350405060708090A3F
:1007A0000B0C0D0E0F101112131415161718191A21
:1007B0001B1C1DAFB1B0B5000000000200090F0006
:1007C00000030401000C0000000000000000000015
:1007D00000000000000000040802011040804010EA
:1007E0002040804080080204018040201002011057
:1007F0008010204040200404040404030405020285
:1008000002020403020202020606060606060404A9
:100810000202020404000000002300260029002C2C
:10082000002F0000000000250028002B002E0031C2
:100830000000000000240027002A002D00300008DE
:100840000B00020202010009040000010202000084
:1008500005240010010524010101042402060524D9
:100860000600010705810310004009040100020A87
:100870000000000705020240000007058302400057
:100880000012010002EF0201404123368000010105
:1008900002030112010002000000404123368000E3
:1008A000010102030141726475696E6F204C4C4373
:1008B0000041726475696E6F204C656F6E61726481
:1008C0006F0004030904890E8A0F8B1311241FBEC5
:1008D000CFEFDAE0DEBFCDBF11E0A0E0B1E0E6ECA3
:1008E000F6E302C005900D92A03EB107D9F723E0D0
:1008F000A0EEB1E001C01D92A030B207E1F718E010
:10090000CCECD8E004C02297FE010E942D1BC63C0F
:10091000D107C9F70E94F51A0C94611B0C940000D2
:100920000F931F93CF93DF9302E611E0C8E0D0E06E
:10093000CE010E944B1BF80121918F0190E03327DB
:1009400027FD30958217930731F42196C431D105E4
:1009500079F781E001C080E0DF91CF911F910F9185
:10096000089580914D0190914E01909342028093A1
:10097000410208958091410290914202893191058E
:1009800014F088E190E090934E0180934D0108951A
:1009900080914302909144024897E9F0809143028C
:1009A000909144020196909344028093430260E048
:1009B0008BE00E94451268E270E080E090E00E94C7
:1009C000511161E08BE00E94451265E070E080E02B
:1009D00090E00C945111089580914302909144024B
:1009E000892BE9F080914302909144020197909302
:1009F00044028093430260E087E00E94451268E26F
:100A000070E080E090E00E94511161E087E00E9478
:100A1000451265E070E080E090E00C94511108957B
:100A200061E08BE00E940C1261E08BE00E944512B5
:100A300061E087E00E940C1261E087E00E944512AD
:100A400060E085E00C940C12809143029091440286
:100A500020914D0130914E018217930714F40E94AA
:100A6000C804809143029091440220914D0130913D
:100A70004E012817390714F40C94EC040895809162
:100A80004D0190914E018831910529F00196909386
:100A90004E0180934D01089580914D0190914E013A
:100AA000009729F0019790934E0180934D0108958E
:100AB00082E290E09093440280934302809143024B
:100AC00090914402181619061CF40E94EC04F6CF0B
:100AD0000895CF93DF9366EC76E089E992E00E9477
:100AE000F81461E876E089E992E00E94F81467E57D
:100AF00076E089E992E00E94F81465E476E089E9FD
:100B000092E00E94F8146FE076E089E992E00E949A
:100B1000F8146DEF75E089E992E00E94F8146BEE2D
:100B200075E089E992E00E94F81469ED75E089E9C1
:100B300092E00E94F81467EC75E089E992E00E9467
:100B4000F81465EB75E089E992E00E94F8144AE038
:100B500050E060E070E089E992E00E94AD1567EA3C
:100B600075E089E992E00E94C8144AE050E061E033
:100B700070E089E992E00E94AD1569E975E089E9C4
:100B800092E00E94C8144AE050E062E070E089E917
:100B900092E00E94AD156BE875E089E992E00E9451
:100BA000C8144AE050E063E070E089E992E00E94F6
:100BB000AD156DE775E089E992E00E94C81489E9F6
:100BC00092E00E94F4144AE050E064E070E089E9A9
:100BD00092E00E94AD156FE675E089E992E00E940F
:100BE000C8144AE050E065E070E089E992E00E94B4
:100BF000AD1561E675E089E992E00E94C8144AE00B
:100C000050E066E070E089E992E00E94AD1563E58E
:100C100075E089E992E00E94C8144AE050E067E07C
:100C200070E089E992E00E94AD1565E475E089E91C
:100C300092E00E94C8144AE050E068E070E089E960
:100C400092E00E94AD1567E375E089E992E00E94A9
:100C5000C8144AE050E069E070E089E992E00E943F
:100C6000AD1569E275E089E992E00E94C81489E94E
:100C700092E00E94F4144AE050E06AE070E089E9F2
:100C800092E00E94AD156CE175E089E992E00E9466
:100C9000C8144AE050E06BE070E089E992E00E94FD
:100CA000AD156FE075E089E992E00E94C8144AE052
:100CB00050E06CE070E089E992E00E94AD1562E0DE
:100CC00075E089E992E00E94C8144AE050E06DE0C6
:100CD00070E089E992E00E94AD1565EF74E089E962
:100CE00092E00E94C81489E992E00E94F4144AE05C
:100CF00050E06EE070E089E992E00E94AD1568EE88
:100D000074E089E992E00E94C8144AE050E06FE084
:100D100070E089E992E00E94AD156BED74E089E91D
:100D200092E00E94C81489E992E00E94F4144AE01B
:100D300050E060E170E089E992E00E94AD156EEC50
:100D400074E089E992E00E94C8144AE050E061E151
:100D500070E089E992E00E94AD1561EC74E089E9E8
:100D600092E00E94C8144AE050E062E170E089E934
:100D700092E00E94AD1564EB74E089E992E00E9474
:100D8000C81489E992E00E94F41461EA74E089E9E8
:100D900092E00E94F8144AE050E06CED70E089E9BE
:100DA00092E00E94AD1564E974E089E992E00E9446
:100DB000C8144AE050E06DED70E089E992E00E94CD
:100DC000AD1567E874E089E992E00E94C8144AE032
:100DD00050E06EED70E089E992E00E94AD156AE79F
:100DE00074E089E992E00E94C8144AE050E06FED97
:100DF00070E089E992E00E94AD156DE674E089E942
:100E000092E00E94C8144AE050E060EE70E089E988
:100E100092E00E94AD1560E674E089E992E00E94DC
:100E2000C8144AE050E061EE70E089E992E00E9467
:100E3000AD1563E574E089E992E00E94C81489E980
:100E400092E00E94F414C6EED0E04AE050E0BE0109
:100E500089E992E00E94AD156AE474E089E992E0C4
:100E60000E94C8144AE050E0BE01665E710989E93B
:100E700092E00E94AD15C03FD10534F46FE671E0F9
:100E800089E992E00E94EB146EE671E089E992E054
:100E90000E94EB14CE01019783709927892B21F4CE
:100EA00089E992E00E94F4142196C63FD10569F6C3
:100EB00089E992E00E94F4144AE050E06AEF70E0A1
:100EC00089E992E00E94AD156EE374E089E992E051
:100ED0000E94C8144AE050E06BEF70E089E992E0AC
:100EE0000E94AD1562E374E089E992E00E94C814A3
:100EF0004AE050E06CEF70E089E992E00E94AD15A5
:100F000066E274E089E992E00E94C8144AE050E089
:100F10006DEF70E089E992E00E94AD156AE174E03E
:100F200089E992E00E94C81489E992E00E94F414D1
:100F30004AE050E06AED70E089E992E00E94AD1568
:100F40006EE074E089E992E00E94C8144AE050E043
:100F500069ED70E089E992E00E94AD1562E074E00D
:100F600089E992E00E94C8144AE050E068ED70E020
:100F700089E992E00E94AD1566EF73E089E992E09D
:100F80000E94C8144AE050E067ED70E089E992E001
:100F90000E94AD156AEE73E089E992E00E94C814E0
:100FA00089E992E00E94F4144AE050E060E870E0C1
:100FB00089E992E00E94AD156EED73E089E992E057
:100FC0000E94C8144AE050E061E870E089E992E0CC
:100FD0000E94AD1562ED73E089E992E00E94C814A9
:100FE0004AE050E062E870E089E992E00E94AD15C5
:100FF00066EC73E089E992E00E94C8144AE050E090
:1010000063E870E089E992E00E94AD156AEB73E055
:1010100089E992E00E94C81489E992E00E94F414E0
:101020004AE050E064E870E089E992E00E94AD1582
:101030006EEA73E089E992E00E94C8144AE050E049
:1010400065E870E089E992E00E94AD1562EA73E01C
:1010500089E992E00E94C8144AE050E066E870E036
:1010600089E992E00E94AD1566E973E089E992E0B2
:101070000E94C8144AE050E067E870E089E992E015
:101080000E94AD156AE873E089E992E00E94C814F5
:1010900089E992E00E94F4144AE050E062EB70E0CB
:1010A00089E992E00E94AD156EE773E089E992E06C
:1010B0000E94C8144AE050E063EB70E089E992E0D6
:1010C0000E94AD1562E773E089E992E00E94C814BE
:1010D0004AE050E060EB70E089E992E00E94AD15D3
:1010E00066E673E089E992E00E94C8144AE050E0A5
:1010F00061EB70E089E992E00E94AD156AE573E06A
:1011000089E992E00E94C81489E992E00E94F414EF
:101110004AE050E061ED70E089E992E00E94AD158F
:101120006EE473E089E992E00E94C8144AE050E05E
:1011300064ED70E089E992E00E94AD1562E473E02D
:1011400089E992E00E94C8144AE050E063ED70E043
:1011500089E992E00E94AD1566E373E089E992E0C7
:101160000E94C8144AE050E066ED70E089E992E020
:101170000E94AD156AE273E089E992E00E94C8140A
:1011800089E992E00E94F4144AE050E062ED70E0D8
:1011900089E992E00E94AD156EE173E089E992E081
:1011A0000E94C8144AE050E065ED70E089E992E0E1
:1011B0000E94AD1562E173E089E992E00E94C814D3
:1011C0004AE050E061EC70E089E992E00E94AD15E0
:1011D00066E073E089E992E00E94C8144AE050E0BA
:1011E0006DE070E089E992E00E94AD1569EF72E070
:1011F00089E992E00E94C81489E992E00E94F414FF
:101200004AE050E062EC70E089E992E00E94AD159E
:101210006DEE72E089E992E00E94C8144AE050E065
:1012200063EC70E089E992E00E94AD1561EE72E036
:1012300089E992E00E94C8144AE050E064EC70E052
:1012400089E992E00E94AD1565ED72E089E992E0CE
:101250000E94C8144AE050E065EC70E089E992E031
:101260000E94AD1569EC72E089E992E00E94C81411
:1012700089E992E00E94F4144AE050E066EC70E0E4
:1012800089E992E00E94AD156DEB72E089E992E088
:101290000E94C8144AE050E067EC70E089E992E0EF
:1012A0000E94AD1561EB72E089E992E00E94C814DA
:1012B0004AE050E068EC70E089E992E00E94AD15E8
:1012C00065EA72E089E992E00E94C8144AE050E0C1
:1012D00069EC70E089E992E00E94AD1569E972E07D
:1012E00089E992E00E94C81489E992E00E94F4140E
:1012F0004AE050E06AEC70E089E992E00E94AD15A6
:101300006DE872E089E992E00E94C8144AE050E07A
:101310006BEC70E089E992E00E94AD1561E872E043
:1013200089E992E00E94C8144AE050E06CEC70E059
:1013300089E992E00E94AD1565E772E089E992E0E3
:101340000E94C8144AE050E06DEC70E089E992E038
:101350000E94AD1569E672E089E992E00E94C81426
:1013600089E992E00E94F41489E992E00E94F41461
:10137000C1E2D0E04AE050E0BE0189E992E00E947B
:10138000AD15C436D10534F46FE671E089E992E019
:101390000E94EB1465E672E089E992E00E94C814AD
:1013A0006C2F89E992E00E94ED146DE572E089E905
:1013B00092E00E94C814CE0183709927892B21F4F2
:1013C00089E992E00E94F4142196CF37D10591F675
:1013D00089E992E0DF91CF910C94F414EF92FF929F
:1013E0000F931F93CF93DF931F92CDB7DEB76EE2BB
:1013F00072E089E992E00E94F81406E011E088E0CA
:10140000E82EF12CF80161918F01C70169830E94D8
:101410004B1B6981681719F0C7010E94531BFFEF2E
:10142000EF1AFF0A8FE4E816F10461F70F90DF91DD
:10143000CF911F910F91FF90EF9008950F931F93FD
:10144000CF93DF930E9490048823A9F06DE472E0AB
:1014500089E992E00E94F81406E011E0C8E0D0E0CB
:10146000CE010E944B1BF80181938F012196CF344E
:10147000D105B1F70CC06DE372E089E992E00E94FA
:10148000F814DF91CF911F910F910C94EE09DF9129
:10149000CF911F910F910895CF93DF9340E855E2CC
:1014A00060E070E089E992E00E94851344E650E034
:1014B00060E070E089E992E00E9452160E941E0AE4
:1014C00080E592E00E94870EC7E9D1E062E0899151
:1014D0000E940C1281E0CA3AD807C1F761E08DE0A2
:1014E0000E940C120E941005C0914C010E945805E8
:1014F0008C2F90E090934E0180934D0180E180937A
:1015000081001092800021E02093470280E49CE952
:1015100090934902809348029093870080938600BD
:1015200081E1809381008EE49BE09093460280935A
:10153000450220936F001092810010928500109256
:10154000840080914702806180938100DF91CF9178
:101550000895462F90E09C01220F331FF901E80FF8
:10156000F91FEA5FFE4F648550913F026C3F39F0EE
:1015700050FF03C075857111672F6D3FA1F151FFB9
:1015800008C0F901E80FF91FEA5FFE4F8685811157
:10159000682F6A3F31F4442309F468C00E943F0574
:1015A00007C06B3F51F4442309F460C00E944C050E
:1015B00080914D0180934C016DC06C3F91F48091FE
:1015C0004B0182FF06C0442309F450C050FD05C002
:1015D00002C0442311F0516001C05E7F50933F026E
:1015E00045C06D3F91F480914B0183FF06C04423B9
:1015F00009F452C051FD05C002C0442311F05260ED
:1016000001C05D7F50933F0247C06C3DB0F16E3D1D
:1016100081F030F46C3DB1F06D3D31F56FE713C0F2
:10162000603EC9F020F0613EF9F461E815C06FE753
:1016300001C061E8469F602D112480E592E00E9480
:101640005A0E19C061E8469F602D112480E592E092
:101650000E945D0E10C06FE7469F602D112480E54B
:1016600092E00E94600E07C0663EA0F0665E80E5D4
:1016700092E00E942D0E81E008956D3050F083E6D7
:1016800092E0442319F00E94BE0E04C00E942C0F69
:1016900001C0089580E008956DEFE8CF9F92AF926A
:1016A000BF92CF92DF92EF92FF920F931F93CF934F
:1016B000DF9307E911E0C0EED1E0B12CA12CF801D5
:1016C00081918F010E947B1299249394892B09F0B8
:1016D000912C88819816F1F00E942211C980DA803D
:1016E000EB80FC806C197D098E099F096A317105B8
:1016F0008105910578F098820E94221169837A838E
:101700008B839C83692D8B2D0E94A90A882311F05D
:10171000AA24A3942596B394F3E1BF12D0CFAA20B4
:1017200079F080E592E0DF91CF911F910F91FF90CA
:10173000EF90DF90CF90BF90AF909F900C94630E8E
:10174000DF91CF911F910F91FF90EF90DF90CF909D
:10175000BF90AF909F900895AF92BF92CF92DF92CB
:10176000EF92FF920F931F93CF93DF931F92CDB70A
:10177000DEB789E992E00E94CE12892B09F4D9C123
:1017800089E992E00E94DE1299278736910509F4D3
:1017900084C01CF58136910509F4D2C07CF48B32EB
:1017A000910509F4AFC18D9721F70E944C058091F6
:1017B0004D0180934C016AEC70E0ACC1823691051A
:1017C00009F405C184369105A1F661E689E992E044
:1017D0000E94ED1402E111E06EC08C36910509F40F
:1017E0008EC15CF488369105B9F08B36910509F607
:1017F000E4E8F1E0A2E1B1E046C08337910509F4E5
:101800007BC18637910529F08D36910509F0B1CF5E
:1018100006C062E272E029C00E946905AACF89E988
:1018200092E00E94DE1241E060E070E089E992E01F
:101830000E94581689E992E069830E94DE1289E9C4
:1018400092E00E94DE1269816623A1F0883619F0C9
:10185000843781F493C1613009F09AC180914B01C2
:101860008B7F80934B0161E172E089E992E00E94F5
:10187000F8147FCF6DEA71E089E992E00E94F814D4
:1018800065E871E0F2CF81918C93139681E0E7399E
:10189000F807C9F765E771E0E8CFE1E7F1E0A2E119
:1018A000B1E081918C93139691E0E438F907C9F780
:1018B00066E671E0DACF6FE671E089E992E00E94B6
:1018C000EB144AE050E0F801608189E992E00E945F
:1018D000DA150D5F1F4FF1E00B341F0761F703E1CD
:1018E00011E06FE671E089E992E00E94EB144AE0B2
:1018F00050E0F801608189E992E00E94DA150D5FFD
:101900001F4FF1E00C341F0761F704E111E06FE6AF
:1019100071E089E992E00E94EB144AE050E0F8019E
:10192000608189E992E00E94DA150D5F1F4FF1E0B6
:101930000D341F0761F789E992E00E94F41419CF72
:1019400010E089E992E00E94DE12803259F541E010
:1019500060E070E089E992E00E945816812F90E0E3
:10196000163250F08697FC01EE0FFF1FE80FF91FAB
:10197000EA5FFE4F668714C0133150F04397FC01B5
:10198000EE0FFF1FE80FF91FEA5FFE4F658708C0E3
:10199000FC01EE0FFF1FE80FF91FEA5FFE4F64879F
:1019A0001F5FCFCF112381F06FE571E089E992E0ED
:1019B0000E94C8144AE050E0612F89E992E00E9439
:1019C000DA1567E571E051CF66E371E04ECF89E942
:1019D00092E00E94DE1241E060E070E089E992E06E
:1019E0000E945816C62E82E18C1508F4C2CE89E9F1
:1019F00092E00E94DE1241E060E070E089E992E04E
:101A00000E945816D62E662309F473C00C2D10E0E0
:101A10007801EE0CFF1C5701A00EB11EF501EA5F24
:101A2000FE4F5F0160E084850E94A90AF501D4861B
:101A30006EE271E089E992E00E94C8144AE050E049
:101A40006C2D89E992E00E94DA1568E271E089E97B
:101A500092E00E94C8144AE050E06D2D89E992E0BE
:101A60000E94DA1589E992E00E94DE12809709F05F
:101A700062CF41E060E070E089E992E00E94581690
:101A8000D62E60E0F50185850E94A90AF501D5866C
:101A900060E271E089E992E00E94C8144AE050E0F7
:101AA0006D2D89E992E00E94DA1589E992E00E94A1
:101AB000DE12809709F03FCF41E060E070E089E9F5
:101AC00092E00E945816D62E60E0F50186850E94AD
:101AD000A90AF501D68668E171E089E992E00E94E1
:101AE000C8144AE050E06D2D89E992E00E94DA15B1
:101AF00022CF6CED70E0B9CE0E94EE093ACE0E9482
:101B00001E0A37CE0E943F0580914D0180934C0103
:101B100063ED70E089E992E00E94C81460914D0184
:101B200070914E014AE050E089E992E00E94B515BB
:101B300020CE85E00E947B1221E0892B09F020E075
:101B400080914002281769F020934002222339F047
:101B50000E94B10410924E0110924D0102C00E94E9
:101B6000BA040F90DF91CF911F910F91FF90EF90EA
:101B7000DF90CF90BF90AF900C942405613099F422
:101B800080914B01846080934B016EEF71E06DCECC
:101B9000623009F0EECD80914B01877F80934B013D
:101BA0006DEE71E062CE623009F0E3CD80914B01C1
:101BB000886080934B016AED71E057CE1F920F92BF
:101BC0000FB60F9211242F933F934F935F936F9310
:101BD0007F938F939F93AF93BF93EF93FF93E09186
:101BE0004502F09146020995FF91EF91BF91AF91A7
:101BF0009F918F917F916F915F914F913F912F9125
:101C00000F900FBE0F901F901895CF93DF93EC01AC
:101C100080915502811113C010924B0210924A021A
:101C200085ED96E090934D0280934C0284E390E022
:101C300090934F0280934E0281E0809355020E9460
:101C4000CA106AE472E00E945B10188219821A823C
:101C50001C821B82DF91CF9108950F931F93FC018B
:101C6000A62F83819481411113C001E010E020E090
:101C700030E0062E04C0000F111F221F331F0A94EC
:101C8000D2F70095109508231923148303830FC0FE
:101C900041E050E060E070E004C0440F551F661F53
:101CA000771FAA95D2F7482B592B548343831F9152
:101CB0000F910895FC0160830895FC0161830895EC
:101CC000FC0162830895CF93DF9300D000D01F9270
:101CD000CDB7DEB7FC019381848199838A838081AB
:101CE0008B8381818C8382818D830E94CA1025E041
:101CF00030E0AE014F5F5F4F63E00E9478100F90BD
:101D00000F900F900F900F90DF91CF9108950C944A
:101D1000630E80E592E00C94050EFC0113821282A2
:101D20002EEA31E03183208380916F02811113C04C
:101D300010925E0210925D0289E097E0909360023B
:101D400080935F028FE290E0909362028093610241
:101D500081E080936F020E94CA106DE572E00C94DE
:101D60005B10CF93DF93EB010E94CA1028E030E0B4
:101D7000AE0162E0DF91CF910C947810CF93DF93A6
:101D8000DC01683818F0E8E7E60F25C0E62FF0E040
:101D900067FF11C0E058F10981E090E001C0880FB1
:101DA000EA95EAF714969C911497982B14969C93B5
:101DB0001497E0E010C0E85CF84FE491EE2309F4DA
:101DC00040C0E7FF08C014968C9114978260149667
:101DD0008C931497EF7716968C9116978E1741F186
:101DE00017968C9117978E1719F118968C91189752
:101DF0008E17F1F019968C9119978E17C9F01A96D3
:101E00008C911A978E17A1F01B968C911B978E17A9
:101E100079F080E090E0ED01C80FD91F2E812111EB
:101E200002C0EE8305C0019686309105A1F709C076
:101E3000BD016C5F7F4FCD010E94B10E81E090E04B
:101E400008C081E090E013969C938E93129780E0F7
:101E500090E0DF91CF910895683818F0E8E7E60F39
:101E600025C0E62FF0E067FF12C0E058F10921E03D
:101E700030E001C0220FEA95EAF72095DC011496C4
:101E80003C911497322314963C93E0E00FC0E85C39
:101E9000F84FE491EE2329F1E7FF08C0DC01149626
:101EA0002C9114972D7F14962C93EF7720E030E03F
:101EB000EE2351F0DC01A20FB31F16964C9116973A
:101EC0004E1302C016961C922F5F3F4F26303105ED
:101ED00079F7BC016C5F7F4F0E94B10E81E090E00A
:101EE000089580E090E00895FF920F931F93CF93A1
:101EF000DF93EC01F62E0E94BE0E8C016F2DCE01F9
:101F00000E942C0FC8019927DF91CF911F910F914B
:101F1000FF90089583E692E00C948D0EFB0128E477
:101F2000208329E4218324E42283DC011D962C9163
:101F30001D972F702F5B23831D968D919C911E976B
:101F400024E0969587952A95E1F78F708F5B8483BF
:101F500085E00895CF93DF93CDB7DEB769970FB6CD
:101F6000F894DEBF0FBECDBFFC01DB018C918F5F0B
:101F70008C93BE016F5F7F4F89E1DB011D928A95D3
:101F8000E9F799E0998384E08A8321E02D8383E057
:101F90008E839A8791E29B872C872D872F8792E2E9
:101FA000988B97E09B8B95E09C8B8E8B80E490E0E8
:101FB000988F8F8B298F82818B8395858685998BCE
:101FC0008A8B838180688D8B49E150E080E00E949C
:101FD000A51869960FB6F894DEBF0FBECDBFDF918E
:101FE000CF910895DC01FB0112962C91129730E0FD
:101FF0008481958128173907D1F491818081813AB4
:1020000031F481E0913091F0933089F411C0813244
:1020100071F49B3021F482811F968C9305C09A3015
:1020200031F4828150968C9381E00895089580E088
:102030000895EF92FF920F931F93CF93DF937C014C
:10204000FB018081813871F58381823259F5D70196
:1020500012968C91129790E02481358128173907C8
:1020600009F51B96CD91DC911C9700E010E02097BC
:1020700089F04C815D816A817B8180E80E94A5188E
:102080008F3FBFEF9B0759F0080F191F0990D881A8
:10209000C02DEDCF81E0F7018787C80105C08FEF24
:1020A0009FEF02C080E090E0DF91CF911F910F91F0
:1020B000FF90EF900895FC01A385B485109719F463
:1020C0007487638709C08D919C911197009711F0D7
:1020D000DC01F9CF6D937C9385859685DB011496A1
:1020E0002D913C911597820F931F968785870895B0
:1020F000AF92BF92CF92DF92EF92FF920F931F9316
:10210000CF93DF931F92CDB7DEB77C0169836A015D
:10211000590141E050E0BE016F5F7F4FFC018381B8
:102120000E940A188C0197FD0BC0F7018381A5015D
:10213000B60180640E940A1897FD02C0800F911FAB
:102140000F90DF91CF911F910F91FF90EF90DF9053
:10215000CF90BF90AF900895CF93DF93EC0121E033
:102160002C832D830A969F838E831986188686EB8F
:1021700091E0998388831C861B861E861D862F8787
:10218000288B81EC8A870E947614BE01DF91CF9163
:102190000C942F1480918802811107C087E792E088
:1021A0000E94AC1081E08093880287E792E0089556
:1021B0001F920F920FB60F9211242F933F938F937C
:1021C0009F93AF93BF938091910290919202A091BF
:1021D0009302B09194023091900223E0230F2D37A7
:1021E00020F40196A11DB11D05C026E8230F02961B
:1021F000A11DB11D209390028093910290939202B1
:10220000A0939302B09394028091950290919602CC
:10221000A0919702B09198020196A11DB11D8093E3
:10222000950290939602A0939702B0939802BF9163
:10223000AF919F918F913F912F910F900FBE0F9073
:102240001F9018952FB7F8946091910270919202A7
:1022500080919302909194022FBF08953FB7F89414
:102260008091950290919602A0919702B091980268
:1022700026B5A89B05C02F3F19F00196A11DB11DE1
:102280003FBF6627782F892F9A2F620F711D811DFE
:10229000911D42E0660F771F881F991F4A95D1F75D
:1022A0000895CF92DF92EF92FF92CF93DF936B016D
:1022B0007C010E942E11EB01C114D104E104F10450
:1022C00089F00E94081B0E942E116C1B7D0B683E3A
:1022D000734090F381E0C81AD108E108F108C851B1
:1022E000DC4FEACFDF91CF91FF90EF90DF90CF905E
:1022F0000895789484B5826084BD84B5816084BD7E
:1023000085B5826085BD85B5816085BDEEE6F0E06E
:10231000808181608083E1E8F0E0108280818260CA
:102320008083808181608083E0E8F0E0808181604B
:102330008083E1E9F0E08081826080838081816038
:102340008083E0E9F0E0808181608083E1ECF0E06F
:1023500080818460808380818260808380818160CD
:102360008083E3ECF0E0808181608083E0ECF0E04A
:10237000808182608083E2ECF0E0808181608083F4
:10238000EAE7F0E0808184608083808182608083DE
:10239000808181608083808180688083089590E05F
:1023A000FC013197EF30F105B0F5EA5AFF4F0C947C
:1023B0002B1B809180008F7703C0809180008F7DE0
:1023C00080938000089580918000877FF9CF84B545
:1023D0008F7702C084B58F7D84BD08958091900071
:1023E0008F7707C0809190008F7D03C0809190000F
:1023F000877F8093900008958091C0008F7703C0FD
:102400008091C0008F7D8093C00008958091C200AC
:10241000877F8093C2000895CF93DF9390E0FC0103
:10242000E952F84F2491FC01EA50F84F8491882337
:1024300049F190E0880F991FFC01EF5CF74FA591DF
:10244000B4918D5D974FFC01C591D4919FB76111F7
:1024500008C0F8948C91209582238C9388818223E4
:102460000AC0623051F4F8948C91322F3095832356
:102470008C938881822B888304C0F8948C91822B62
:102480008C939FBFDF91CF9108950F931F93CF93AC
:10249000DF931F92CDB7DEB7282F30E0F901E85463
:1024A000F84F8491F901E952F84F1491F901EA507B
:1024B000F84F04910023C9F0882321F069830E941A
:1024C000CF116981E02FF0E0EE0FFF1FED5DF74FB8
:1024D000A591B4919FB7F8948C91611103C01095A8
:1024E000812301C0812B8C939FBF0F90DF91CF91EF
:1024F0001F910F910895CF93DF93282F30E0F901BA
:10250000E854F84F8491F901E952F84FD491F90158
:10251000EA50F84FC491CC2391F081110E94CF1161
:10252000EC2FF0E0EE0FFF1FEB5EF74FA591B4919B
:102530002C912D2381E090E021F480E002C080E026
:1025400090E0DF91CF910895CF93DF931F92CDB7A5
:10255000DEB76983DC01ED91FC910280F381E02D0F
:1025600041E050E0BE016F5F7F4F09950F90DF9112
:10257000CF910895CF93DF93EC018C859D8597FFD4
:1025800005C082E00E94D9179D878C878C859D8528
:10259000DF91CF91089583E00C94541AFC01848557
:1025A000958597FD06C082E00E94811790E0019614
:1025B000089582E00E94811790E00895FC018485CF
:1025C000958597FD05C02FEF3FEF35872487089548
:1025D00082E00C94D917CF93DF93EC0180915A01DC
:1025E000882331F083E00E940A181816190634F087
:1025F00081E090E09B838A8380E090E0DF91CF913F
:102600000895FC0120812E5F208342E450E06FE3B7
:1026100078E080E80C94A518FC0121818081813A42
:1026200059F4213209F05CC047E050E063E571E005
:1026300080E00E94A51867C0813209F051C02332A2
:1026400089F4838190E0982F88273281832BA0E042
:10265000B0E080934F0190935001A0935101B0934B
:1026600052010FC0203239F467E070E083E591E059
:102670000E94D6180AC0223221F4828180935A0126
:1026800004C02D7F203209F03EC08091530190910B
:102690005401A0915501B0915601803B9440A10591
:1026A000B10501F580915A0180FD1CC080910008A0
:1026B000909101089093FF0A8093FE0A87E797E7BD
:1026C00090930108809300082BE088E190E00FB61A
:1026D000F894A895809360000FBE2093600013C00B
:1026E00080E0089588E10FB6F8948093600010921E
:1026F00060000FBEA8958091FE0A9091FF0A90930A
:1027000001088093000881E008952FEF3FEFFC015E
:1027100035872487089510929C0210929B0288EEC0
:1027200093E0A0E0B0E080939D0290939E02A0937E
:102730009F02B093A00282EC91E090939A02809362
:1027400099028FEF9FEF9093A6028093A5020895C0
:10275000EF92FF920F931F93CF93DF937B01FC01C6
:10276000C281D38100E010E0209781F0E881F981F7
:102770000280F381E02DB701CE01099597FD08C0D5
:10278000080F191F0884D985C02DEECFC80102C0DB
:102790008FEF9FEFDF91CF911F910F91FF90EF90FF
:1027A00008950F931F93CF93DF938B01FC01C28198
:1027B000D381209771F0E881F9810480F581E02DC3
:1027C000B801CE010995009731F40884D985C02D50
:1027D000F0CF80E090E0DF91CF911F910F910895AD
:1027E0000F931F93CF93DF938B01FC01C281D381A1
:1027F000209771F0E881F9810680F781E02DB8011A
:10280000CE010995080F111D0884D985C02DF0CF80
:10281000F8011082DF91CF911F910F9108950F93CE
:102820001F93CF93DF938B01FC01C281D38120974B
:1028300071F0E881F9810190F081E02DB801CE01BD
:102840000995811106C00884D985C02DF0CF80E09C
:1028500001C081E0DF91CF911F910F910895CF9337
:10286000DF93FC01DB01218114968C91149790E099
:10287000820F911D0897B4F5C281D381209719F476
:102880007383628308C088859985009711F0EC01F5
:10289000FACFB987A887808112968C93129781818D
:1028A00013968C931397808115969C911597890F99
:1028B000808380E014969C911497891788F416966B
:1028C000CD91DC911797C80FD11D9881C181D0E0BF
:1028D000C55ADE4F988391819F5F91838F5FEACFC6
:1028E00081E001C080E0DF91CF9108958091ED02F9
:1028F00081110DC082E08093E90284E08093EA02B6
:102900001092EC021092EB0281E08093ED0289EECE
:1029100092E00895CF92DF92EF92FF920F931F9370
:10292000CF93DF937C016A01EB0100E010E00C150E
:102930001D0571F06991D701ED91FC910190F08135
:10294000E02DC7010995892B19F00F5F1F4FEFCFBD
:10295000C801DF91CF911F910F91FF90EF90DF9011
:10296000CF9008956115710581F0DB010D90002075
:10297000E9F7AD0141505109461B570BDC01ED91C0
:10298000FC910280F381E02D099480E090E00895AD
:10299000EF92FF920F931F93CF93DF938C017B01F4
:1029A000C0E0D0E0F701EC0FFD1F6491662359F001
:1029B000F801A081B181ED91FC91C8010995892BA5
:1029C00011F02196EFCFCE01DF91CF911F910F91A2
:1029D000FF90EF9008950C94B214DC01ED91FC91FE
:1029E0000190F081E02D09946EEC71E00C94B2142A
:1029F0000F931F93CF93DF93EC010E94C8148C01B7
:102A0000CE010E94F414800F911FDF91CF911F918E
:102A10000F9108958F929F92AF92BF92CF92DF92C3
:102A2000EF92FF920F931F93CF93DF93CDB7DEB753
:102A3000A1970FB6F894DEBF0FBECDBF7C01C42EA8
:102A4000E52FCB01D22E19A221E02D1510F02AE09E
:102A5000D22E8E010F5D1F4F8D2C912CA12CB12CED
:102A60006C2D7E2FA50194010E94091B8C2DD29EF6
:102A700080191124015011098A3014F4805D01C0BD
:102A8000895CF8018083211531054105510521F04C
:102A9000C22EE32FCA01E4CFB801C7010E94B214CD
:102AA000A1960FB6F894DEBF0FBECDBFDF91CF91D8
:102AB0001F910F91FF90EF90DF90CF90BF90AF905C
:102AC0009F908F900895CF92DF92EF92FF920F9395
:102AD0001F93CF93DF93EC016A017B012115310530
:102AE00079F4E881F9810190F081E02D642FDF9184
:102AF000CF911F910F91FF90EF90DF90CF900994AD
:102B00002A303105E9F477FF1AC06DE20E94ED1416
:102B10008C0144275527BA014C195D096E097F09BC
:102B20002AE0CE010E940A15800F911FDF91CF91FC
:102B30001F910F91FF90EF90DF90CF9008952AE0C2
:102B4000B701A601CE01DF91CF911F910F91FF90A8
:102B5000EF90DF90CF900C940A159A01AB01662795
:102B600057FD6095762F0C9463150F931F93CF93A9
:102B7000DF93EC019A01AB01662757FD6095762F34
:102B80000E9463158C01CE010E94F414800F911FE6
:102B9000DF91CF911F910F9108952115310541F4D7
:102BA000DC01ED91FC910190F081E02D642F0994FE
:102BB0000C940A159A01462F50E060E070E00C94E6
:102BC000CD150F931F93CF93DF93EC010E94221139
:102BD000688779878A879B87E881F9810084F185F6
:102BE000E02DCE01099597FF15C00E94221108859E
:102BF00019852A853B85601B710B820B930B0C8119
:102C00001D812E813F81601771078207930720F392
:102C10008FEF9FEFDF91CF911F910F910895FF925A
:102C20000F931F93CF93DF93EC018B01F42ECE0112
:102C30000E94E1159C0197FD28C08D32910519F184
:102C4000C0970A9710F1FF2019F02E323105F9F0E4
:102C500001301105F9F00230110569F42D3031050C
:102C600051F034F4295031092230310520F012C0DE
:102C70002032310579F4E881F9810680F781E02D71
:102C8000CE010995D4CF8DE203C0C90105C08EE203
:102C900090E002C08FEF9FEFDF91CF911F910F91D6
:102CA000FF900895FC0144835583668377830895DC
:102CB000CF92DF92FF920F931F93CF93DF9300D0B9
:102CC00000D0CDB7DEB76C01042F40E00E940F1694
:102CD000FC0197FD4BC020E030E0A901F12C112749
:102CE00007FD1095E017F107E9F0ED32F105C1F0AD
:102CF000CF01C0970A97B0F4AAE0B0E00E94311B60
:102D00009B01AC01CF01AA2797FDA095BA2F280FF0
:102D1000391F4A1F5B1F205331094109510902C065
:102D2000FF24F394D601ED91FC910680F781E02D0C
:102D3000C60129833A834B835C830995C6010E94AF
:102D4000E115FC01C09729813A814B815C810A978A
:102D500048F2E017F10731F2FF2061F0662777278C
:102D6000CB01621B730B840B950B06C060E070E017
:102D7000CB0102C0CA01B9010F900F900F900F90C4
:102D8000DF91CF911F910F91FF90DF90CF90089529
:102D9000615030F02091F100FC0120830196F8CFC2
:102DA000289884E68093FE0208954091F90250919C
:102DB000FA022091F7023091F80242175307B4F457
:102DC0009091E8009570E1F39091E80092FD19C0B0
:102DD0008093F1008091F9029091FA0201968F732D
:102DE0009927892B19F48EEF8093E8008091F902DE
:102DF0009091FA0201969093FA028093F90281E091
:102E0000089580E00895CF92DF92EF92FF920F93A2
:102E10001F93CF93DF931F92CDB7DEB7082F162FE6
:102E2000F42E862F880F8E5F99830E94D51683E03B
:102E30000E94D516E02EC02E9981D92E8C2D8E1988
:102E4000811798F4F601F7FE02C0849101C08081D9
:102E50000E94D516082F80E00E94D5168023FFEF30
:102E6000CF1ADF0A8111EACF01C081E00F90DF9114
:102E7000CF911F910F91FF90EF90DF90CF90089529
:102E80008091D70081608093D70080EA8093D8003A
:102E900089B5806189BD89B5826089BD09B400FEAC
:102EA000FDCF61E070E080E090E00E9451118091E0
:102EB000D8008F7C80618093D8008091E000807F73
:102EC0008093E0000895CF93DF931F92CDB7DEB7D4
:102ED0001982CE0101960E9401130E947614BE0150
:102EE0006F5F7F4F0E94A81389810F90DF91CF9170
:102EF00008952FB7FC012083F89467706093E90070
:102F00000895CF93DF931F92CDB7DEB7682FCE0120
:102F100001960E9479178091F20099819FBF0F90CE
:102F2000DF91CF910895FF920F931F93CF93DF937B
:102F300000D0CDB7DEB7F62E8A019091FD0299231D
:102F400011F057FF03C08FEF9FEF2BC0682FCE010A
:102F500001967A830E9479178091F20090E0A8018F
:102F60007A81801791070CF4AC01EF2DF72FF40E46
:102F700084E6FE1639F028988093FE029091F100C5
:102F80009193F7CF4115510521F08091F2008823EC
:102F900021F089818FBFCA0104C08BE68093E800CD
:102FA000F8CF0F900F90DF91CF911F910F91FF906D
:102FB0000895CF93DF931F92CDB7DEB741E050E085
:102FC000BE016F5F7F4F0E949317019719F48981AB
:102FD00090E002C08FEF9FEF0F90DF91CF910895A7
:102FE000CF93DF931F92CDB7DEB7682FCE01019646
:102FF0000E9479179091E800892F807295FF04C094
:103000009091F20080E4891B99819FBF0F90DF911E
:10301000CF9108956F927F928F929F92AF92BF92BD
:10302000CF92DF92EF92FF920F931F93CF93DF9394
:103030001F92CDB7DEB7782E7B01C42EB52E8091BE
:10304000FD02882369F0042F152F8AEFD82E872DD3
:103050008072982E9AE3A92E872D8074882E11C035
:103060008FEF9FEF57C0872D0E94F017682E8111B8
:103070000CC0DA94A9F361E070E080E090E00E9477
:1030800051110115110579F73BC0282F30E00217C7
:1030900013070CF4602E672DCE0101960E9479175C
:1030A0008091E80085FF29C0262D30E0021B130B1C
:1030B000992039F06A948FEF6816B1F01092F10000
:1030C000F9CFF701862D77FE07C0815058F0949113
:1030D0009093F1003196F9CF815020F09191909327
:1030E000F100FACFE20EF31E8091E80085FF0FC0D9
:1030F0000115110511F481100AC089818FBFC1CF5C
:103100005D9884E68093FF028C2D9B2D03C0A092D6
:10311000E800F3CF0F90DF91CF911F910F91FF90B7
:10312000EF90DF90CF90BF90AF909F908F907F9067
:103130006F9008951092E9001092FA021092F9022D
:103140009093F8028093F7020895CF92DF92FF9256
:103150000F931F93CF93DF9300D0CDB7DEB7F82E38
:103160008A016B0101151105B1F0F601F7FE02C0ED
:10317000849101C0808149835A830E94D5160150F1
:103180001109FFEFCF1ADF0A49815A818111EACF75
:103190008FEF9FEF01C0CA010F900F90DF91CF9189
:1031A0001F910F91FF90DF90CF9008951F93CF93C1
:1031B000DF931F92CDB7DEB7162F2091E80022FFD4
:1031C000FCCF612F79830E94C8168BEF8093E800B3
:1031D000812F7981972F0F90DF91CF911F910895C3
:1031E0001F920F920FB60F921124DF92EF92FF926F
:1031F0000F931F932F933F934F935F936F937F93FF
:103200008F939F93AF93BF93EF93FF93CF93DF93EE
:10321000CDB7DEB76C97DEBFCDBF1092E9008091CD
:10322000E80083FF23C168E0CE0145960E94C816DE
:1032300082EF8093E8003D8937FF05C08091E80068
:1032400080FFFCCF03C08EEF8093E800832F807651
:1032500009F0F0C02E894F89D88C21110CC030386C
:1032600029F48091FC028093F10002C01092F100D9
:103270001092F100F4C0842F90E09D29213049F490
:103280003111EDC0019709F0EAC08091FC028D7FF9
:103290000AC0233059F43111E2C0019709F0DFC0B0
:1032A0008091FC0282608093FC02D9C0253041F4F9
:1032B0008091E80080FFFCCF40684093E300CFC0DE
:1032C000263009F08DC0EB8CFC8C22E0D2122CC091
:1032D00080E090E00E949A180E94631799E08E01A6
:1032E0000F5F1F4FF801292F11922A95E9F7998353
:1032F000DA8291E09E8390EA98879AEF99872091ED
:10330000F9023091FA02275F3F4F3C832B838D8374
:10331000C7010E949A1849E050E0B80180E00E947D
:10332000A5180E9463179BC0C7010E949A180E94AB
:103330007614BE016B5E7F4F0E94D113009719F087
:103340000CF08DC090C081E0D8120EC08B8D9C8D8A
:10335000089719F481E08093F6028091F6028111BA
:103360002FC063E978E031C0E3E0DE127CC08F89D2
:10337000882349F1823029F440E860E181EB98E04C
:103380001CC0813029F440E86BE085EA98E015C064
:10339000833009F068C00E9476148E010F5F1F4FC2
:1033A000B8010E94F013F80101900020E9F731976D
:1033B000E01BF10B40E06E2FC8010E9403174DC0C7
:1033C00061E878E002C062EC78E06115710509F40B
:1033D0004AC0FB01449150E080E80E94A5183FC01C
:1033E000273009F440C0283021F481E08093F100B7
:1033F00036C02930A1F53370B1F5ECE5F1E081E09C
:1034000021E036E39081992361F08093E9002093D5
:10341000EB0091919093EC003093ED008F5F87303B
:1034200089F78EE78093EA001092EA008F898093F3
:10343000FD0215C08B8D9C8D0E949A18898D81117B
:1034400005C0CE0145960E940C1307C00E94761459
:10345000BE016B5E7F4F0E940F14882321F08EEF18
:103460008093E80003C081E28093EB006C960FB676
:10347000F894DEBF0FBECDBFDF91CF91FF91EF91EA
:10348000BF91AF919F918F917F916F915F914F917C
:103490003F912F911F910F91FF90EF90DF900F9030
:1034A0000FBE0F901F9018958093E9008091F20055
:1034B000882319F08AE38093E80008951F920F9201
:1034C0000FB60F9211242F933F934F935F936F93F7
:1034D0007F938F939F93AF93BF93CF93EF93FF937C
:1034E000C091E1008091E100837F8093E1008093AF
:1034F000E100C3FF0FC01092E90081E08093EB0070
:103500001092EC0082E38093ED001092FD0288E0BF
:103510008093F000C2FF19C083E00E94541A80918A
:10352000FF02882339F08091FF0281508093FF02CF
:10353000882389F18091FE02882339F08091FE0270
:1035400081508093FE02882341F1C4FF10C0809116
:10355000E2008E7E81608093E2008091E1008F7EA8
:103560008093E1008091FB028E7E806111C0C0FFDC
:1035700016C08091E2008E7E80618093E20080918F
:10358000E1008E7E8093E1008091FB028E7E81605F
:103590008093FB0204C05D9ACDCF289AD6CFFF91CD
:1035A000EF91CF91BF91AF919F918F917F916F914B
:1035B0005F914F913F912F910F900FBE0F901F90F1
:1035C00018951092FD021092FC021092FB020E94CC
:1035D0004017E1EEF0E080818E7E80838DE0809365
:1035E000E200559A209A089508950E9479110E9448
:1035F000F41A85EF92E00E94E11A0E944C0AC0E0A2
:10360000D0E00E94AC0B2097E1F30E940000F9CFBC
:103610000895A1E21A2EAA1BBB1BFD010DC0AA1F13
:10362000BB1FEE1FFF1FA217B307E407F50720F02B
:10363000A21BB30BE40BF50B661F771F881F991FA6
:103640001A9469F760957095809590959B01AC01EF
:10365000BD01CF010895EE0FFF1F0590F491E02DFD
:1036600009940E943C1BA59F900DB49F900DA49FB0
:10367000800D911D11240895A29FB001B39FC00138
:10368000A39F700D811D1124911DB29F700D811D8E
:103690001124911D0895F999FECF92BD81BDF89A2C
:1036A000992780B50895262FF999FECF1FBA92BDAC
:1036B00081BD20BD0FB6F894FA9AF99A0FBE019613
:0636C0000895F894FFCF0D
:1036C6000000000380005069636164652076322E35
:1036D6003200DA0000D90000D80000D700008000D0
:1036E600008200002000008100007A0000780000BF
:1036F600730000630000B00000B1000075000064B4
:1037060000006900006F000070000014001800FF40
:10371600FFFFFF00E100000000000000C180810003
:1037260000005069636164652076322E32002020E5
:1037360000DCDDDEDFE6E7E8E9EAEBECEDEEEFF0F4
:10374600F1F2F3F4DAD9D8D7808220817A787363DC
:10375600B0B1FAFB696F7006080A0917161514133B
:10376600120C0400010302100E0F00000000740F7B
:103776008A1400000000F20FAA0F19108E0F000025
:103786000000A412EB12CE12DE12BA12CB120D0AF0
:10379600006E616E00696E66006F7666002E000030
:00000001FF
