:100000000C94AB040C94D3040C94D3040C94D3043C
:100010000C94D3040C94D3040C94D3040C94D30404
:100020000C94D3040C94D3040C942B1C0C94BD1A84
:100030000C94D3040C94D3040C94D3040C94D304E4
:100040000C94D3040C94D3040C94D3040C94D304D4
:100050000C94420F0C94D3040C94D3040C944312CC
:100060000C94D3040C94D3040C94D3040C94D304B4
:100070000C94D3040C94D3040C94D3040C94D304A4
:100080000C94D3040C94D3040C94D3040C94D30494
:100090000C94D3040C94D3040C94D3040C94D30484
:1000A0000C94D3040C94D3040C94D3049513981398
:1000B00087138B139113B913B913B9139C13A0139E
:1000C000A413AA13AE13B913B413566F6C756D65F0
:1000D0003A2000566F6C756D653A20005573616764
:1000E000653A2062203C627574746F6E3E203C6BF2
:1000F0006579636F64653E203C6F7074696F6E61F3
:100100006C3A616C74313E203C6F7074696F6E6143
:100110006C3A616C74323E0020616C74323A20009B
:1001200020616C74313A200020746F3A2000426FD5
:10013000756E643A200055736167653A2061203C12
:100140006B6579636F64653E203C6B6579636F64B2
:10015000653E202E2E2E00206B65792873290042E3
:100160006F756E6420004C6F616465642044756136
:100170006C20416E616C6F67004C6F616465642038
:1001800047616D65706164004C6F61646564204B0C
:100190006579626F6172640045473A206D203120B5
:1001A0007420203D202053657420616C74312074CC
:1001B0006F202874296F67676C65206D6F64650018
:1001C00055736167653A206D203C3120616C743154
:1001D0002C203220616C74323E203C6820686F6CA9
:1001E000642C207420746F67676C653E00416C74EA
:1001F000322073657420746F20746F67676C6500BC
:10020000416C74322073657420746F20686F6C6465
:1002100000416C74312073657420746F20746F67B3
:10022000676C6500416C74312073657420746F20B5
:10023000686F6C64005069636164652062322E33BC
:1002400000536176696E6720436F6E6669672100AF
:10025000536176696E67205072657365747321000F
:100260004C6F6164696E6720436F6E666967210039
:100270002020202020202000203D2000203D20465E
:100280003132202020202000203D20463131202006
:1002900020202000203D204631302020202020003A
:1002A000203D20463920202020202000203D2046CF
:1002B0003820202020202000203D204637202020EC
:1002C00020202000203D2046362020202020200015
:1002D000203D20463520202020202000203D2046A3
:1002E0003420202020202000203D204633202020C4
:1002F00020202000203D20463220202020202000E9
:10030000203D2046312020202020200020203D209C
:10031000537061636520202000203D20436170738D
:10032000204C6B2000203D20456E642020202020A2
:1003300000203D20486F6D652020202000203D20BA
:10034000506720446F776E2000203D205067205575
:100350007020202000203D2044656C6574652020BD
:1003600000203D20496E73657274202000203D20DE
:10037000455343202020202000203D2052657475E5
:10038000726E202000203D20544142202020202059
:1003900000203D204261636B7370632000203D208C
:1003A000522047554920202000203D205220416CFA
:1003B0007420202000203D2052205368696674205C
:1003C00000203D2052204374726C202000203D20EC
:1003D0004C2047554920202000203D204C20416CD6
:1003E0007420202000203D204C2053686966742032
:1003F00000203D204C204374726C202000203D20C2
:1004000052204172726F772000203D204C204172B3
:10041000726F772000203D2044204172726F772058
:1004200000203D2055204172726F772000203D2032
:10043000416C74203220202000203D20416C74202B
:100440003120202000203D20566F6C202D202020C0
:1004500000203D20566F6C202B20202000203D20C6
:10046000477061642000203D204A6F792032205976
:10047000202000203D204A6F792032205820200083
:10048000203D204A6F7920312059202000203D2036
:100490004A6F7920312058202000203D204770618C
:1004A00064205A2D202000203D2047706164205A8E
:1004B0002B202000203D2047706164205220202006
:1004C00000203D2047706164204C20202000203D0A
:1004D0002047706164204420202000203D20477088
:1004E00061642055202020000A3C6B6579636F64AD
:1004F000653E207461626C653A0A00203D205343DA
:100500004C4B202020202000203D204D49534F20DF
:100510002020202000203D204D4F53492020202026
:100520002000203D20566F6C20446F776E20002005
:100530003D20566F6C20557020202000203D204526
:10054000736361706520202000203D20456E746536
:10055000722020202000203D20436F696E20202043
:10056000202000203D205374617274202020200040
:1005700020203D2042746E203620202020002020A4
:100580003D2042746E2035202020200020203D2078
:1005900042746E2034202020200020203D20427410
:1005A0006E2033202020200020203D2042746E2029
:1005B00032202020200020203D2042746E20312057
:1005C0002020200020203D204A6F7920522020202A
:1005D000200020203D204A6F79204C202020200040
:1005E00020203D204A6F7920442020202000202018
:1005F0003D204A6F79205520202020000A3C62755A
:1006000074746F6E3E207461626C653A0A005175B5
:1006100069636B2047616D657061643A20206700F3
:10062000517569636B204B6579626F6172643A2022
:100630006B004C6F61643A20202020202020202075
:1006400020206C00536176653A2020202020202055
:100650002020202073004D6F64653A202020202048
:100660002020202020206D203C3120616C74312C12
:10067000203220616C74323E203C6820686F6C64CC
:100680002C207420746F67676C653E0044756D7034
:1006900020616C6C3A2020202020202064004269D8
:1006A0006E6420616C6C3A20202020202020612084
:1006B0003C6B6579636F64653E203C6B6579636F65
:1006C00064653E202E2E2E0042696E642073696E92
:1006D000676C653A2020202062203C627574746F3C
:1006E0006E3E203C6B6579636F64653E203C6F70A5
:1006F00074696F6E616C3A616C74313E203C6F704E
:1007000074696F6E616C3A616C74323E000A5069B4
:100710006361646520436F6E666967004865616464
:1007200070686F6E65732052656D6F7665642C20FE
:10073000566F6C3A004865616470686F6E6573202F
:1007400044657465637465642C20566F6C3A203080
:100750000005010904A101850305091901291015E6
:1007600000250175019510550065008102050109FC
:10077000011581257FA1000930093109330934753C
:100780000895048102C0C005010906A10185020582
:100790000719E029E71500250175019508810295E3
:1007A000017508810395067508150025650507196B
:1007B0000029658100C000000000000000002A2B15
:1007C0002800000000000000000000000000000001
:1007D0000000000000002C9EB4A0A1A2A434A6A793
:1007E000A5AE362D3738271E1F202122232425268B
:1007F000B333B62EB7B89F8485868788898A8B8C59
:100800008D8E8F909192939495969798999A9B9CA0
:100810009D2F3130A3AD350405060708090A0B0CDE
:100820000D0E0F101112131415161718191A1B1C80
:100830001DAFB1B0B500070605040100080A0B0C96
:100840000D090000000200090F0000030401000C64
:100850000000000000000000000000000000000098
:1008600000040802011040804010204080408008B1
:10087000020401804020100201108010204040201E
:100880000404040404030405020202020403020235
:10089000020206060606060604040202020404001A
:1008A0000000002300260029002C002F000000007B
:1008B00000250028002B002E00310000000000243D
:1008C0000027002A002D003000080B000202020160
:1008D00000090400000102020000052400100105C7
:1008E00024010101042402060524060001070581F4
:1008F0000310004009040100020A0000000705027D
:10090000024000000705830240000012010002EFD0
:10091000020140412336800001010203011201005F
:100920000200000040412336800001010203014122
:10093000726475696E6F204C4C4300417264756936
:100940006E6F204C656F6E6172646F000403090462
:10095000F40FF510491511241FBECFEFDAE0DEBF0A
:10096000CDBF11E0A0E0B1E0E0E6FBE302C00590FE
:100970000D92A83FB107D9F723E0A8EFB1E001C07D
:100980001D92AD31B207E1F719E0C6E5D9E004C028
:100990002297FE010E947A1DC035D107C9F70E9437
:1009A000131D0C94AE1D0C9400000F931F93CF9356
:1009B000DF9308E611E0C8E0D0E0CE010E94981D68
:1009C000F80121918F0190E0332727FD30958217A0
:1009D000930731F42196C431D10579F781E001C044
:1009E00080E0DF91CF911F910F9108958091520186
:1009F0009091530190935D0280935C0208958091E1
:100A00005C0290915D028931910514F088E190E0DB
:100A1000909353018093520108950F931F93CF93A6
:100A200085E00E942914C1E0892B09F0C0E0809183
:100A30005101C81709F458C069E170E080E090E006
:100A40000E94BC1285E00E94291421E030E0892B2D
:100A500011F020E030E08C2F90E02817390709F0E2
:100A600043C00E948D1200915802109159022091AA
:100A70005A0230915B02601B710B820B930B693E33
:100A800073408105910580F1C09351010E948D1240
:100A9000609358027093590280935A0290935B02BC
:100AA000CC2369F065E377E085EB92E00E94B6160F
:100AB0000E94F604109253011092520115C00E9438
:100AC000FF046CE177E085EB92E00E94861660916E
:100AD0005201709153014AE050E085EB92E0CF91D2
:100AE0001F910F910C946917CF911F910F91089549
:100AF00080915E0290915F024897E9F080915E02DA
:100B000090915F02019690935F0280935E0260E095
:100B10008BE00E94F31368E270E080E090E00E94B6
:100B2000BC1261E08BE00E94F31365E070E080E0AE
:100B300090E00C94BC12089580915E0290915F0247
:100B4000892BE9F080915E0290915F02019790936A
:100B50005F0280935E0260E087E00E94F31368E228
:100B600070E080E090E00E94BC1261E087E00E94AB
:100B7000F31365E070E080E090E00C94BC120895FF
:100B800061E08BE00E94BA1361E08BE00E94F313F6
:100B900061E087E00E94BA1361E087E00E94F313EE
:100BA00060E085E00E94BA1385E00E94291421E0EC
:100BB000892B09F020E020935101089580915E0275
:100BC00090915F0220915201309153018217930757
:100BD00014F40E94780580915E0290915F0220914A
:100BE0005201309153012817390714F40C949C05D5
:100BF000089580915201909153018831910529F017
:100C0000019690935301809352010895809152016F
:100C100090915301009729F001979093530180938D
:100C20005201089582E290E090935F0280935E0209
:100C300080915E0290915F02181619061CF40E94C2
:100C40009C05F6CF0895CF93DF936DE077E085EBB9
:100C500092E00E94B61668EC76E085EB92E00E9486
:100C6000B6166EE976E085EB92E00E94B6166CE867
:100C700076E085EB92E00E94B61666E576E085EBBD
:100C800092E00E94B61664E476E085EB92E00E9462
:100C9000B61662E376E085EB92E00E94B61660E25B
:100CA00076E085EB92E00E94B6166EE076E085EB8A
:100CB00092E00E94B6166CEF75E085EB92E00E9420
:100CC000B6164AE050E060E070E085EB92E00E94EA
:100CD00061176EEE75E085EB92E00E9486164AE0A1
:100CE00050E061E070E085EB92E00E94611760EEF9
:100CF00075E085EB92E00E9486164AE050E062E0E3
:100D000070E085EB92E00E94611762ED75E085EB83
:100D100092E00E9486164AE050E063E070E085EBC6
:100D200092E00E94611764EC75E085EB92E00E940E
:100D3000861685EB92E00E94B2164AE050E064E02D
:100D400070E085EB92E00E94611766EB75E085EB41
:100D500092E00E9486164AE050E065E070E085EB84
:100D600092E00E94611768EA75E085EB92E00E94CC
:100D700086164AE050E066E070E085EB92E00E9463
:100D800061176AE975E085EB92E00E9486164AE0F9
:100D900050E067E070E085EB92E00E9461176CE83C
:100DA00075E085EB92E00E9486164AE050E068E02C
:100DB00070E085EB92E00E9461176EE775E085EBCD
:100DC00092E00E9486164AE050E069E070E085EB10
:100DD00092E00E94611760E775E085EB92E00E9467
:100DE000861685EB92E00E94B2164AE050E06AE077
:100DF00070E085EB92E00E94611763E675E085EB99
:100E000092E00E9486164AE050E06BE070E085EBCD
:100E100092E00E94611766E575E085EB92E00E9422
:100E200086164AE050E06CE070E085EB92E00E94AC
:100E3000611769E475E085EB92E00E9486164AE04E
:100E400050E06DE070E085EB92E00E9461176CE38A
:100E500075E085EB92E00E94861685EB92E00E9499
:100E6000B2164AE050E06EE070E085EB92E00E943E
:100E700061176FE275E085EB92E00E9486164AE00A
:100E800050E06FE070E085EB92E00E94611762E253
:100E900075E085EB92E00E94861685EB92E00E9459
:100EA000B2164AE050E060E170E085EB92E00E940B
:100EB000611765E175E085EB92E00E9486164AE0D5
:100EC00050E061E170E085EB92E00E94611768E01C
:100ED00075E085EB92E00E9486164AE050E062E100
:100EE00070E085EB92E00E9461176BEF74E085EB98
:100EF00092E00E94861685EB92E00E94B21668EEA0
:100F000074E085EB92E00E94B6164AE050E06CED8A
:100F100070E085EB92E00E9461176BED74E085EB69
:100F200092E00E9486164AE050E06DED70E085EB9D
:100F300092E00E9461176EEC74E085EB92E00E94F3
:100F400086164AE050E06EED70E085EB92E00E947C
:100F5000611761EC74E085EB92E00E9486164AE02E
:100F600050E06FED70E085EB92E00E94611764EB5A
:100F700074E085EB92E00E9486164AE050E060EE55
:100F800070E085EB92E00E94611767EA74E085EB00
:100F900092E00E9486164AE050E061EE70E085EB38
:100FA00092E00E9461176AE974E085EB92E00E948A
:100FB000861685EB92E00E94B2164AE050E066EF9A
:100FC00070E085EB92E00E9461176DE874E085EBBC
:100FD00092E00E9486164AE050E067EF70E085EBF1
:100FE00092E00E94611760E874E085EB92E00E9455
:100FF00086164AE050E068EF70E085EB92E00E94D0
:10100000611763E774E085EB92E00E9486164AE080
:1010100050E069EF70E085EB92E00E94611766E6B0
:1010200074E085EB92E00E94861685EB92E00E94C8
:10103000B216C6EED0E04AE050E0BE0185EB92E089
:101040000E9461176DE574E085EB92E00E948616C0
:101050004AE050E0BE01665E710985EB92E00E94B5
:101060006117C03FD10534F465E771E085EB92E08C
:101070000E94A91664E771E085EB92E00E94A91630
:10108000CE01019783709927892B21F485EB92E09B
:101090000E94B2162196C63FD10569F685EB92E013
:1010A0000E94B2164AE050E06AEF70E085EB92E0F1
:1010B0000E94611761E574E085EB92E00E9486165C
:1010C0004AE050E06BEF70E085EB92E00E94611720
:1010D00065E474E085EB92E00E9486164AE050E0F9
:1010E0006CEF70E085EB92E00E94611769E374E0B9
:1010F00085EB92E00E9486164AE050E06DEF70E0CA
:1011000085EB92E00E9461176DE274E085EB92E05E
:101110000E94861685EB92E00E94B2164AE050E0EB
:101120006AED70E085EB92E00E94611761E274E085
:1011300085EB92E00E9486164AE050E069ED70E08F
:1011400085EB92E00E94611765E174E085EB92E027
:101150000E9486164AE050E068ED70E085EB92E070
:101160000E94611769E074E085EB92E00E948616A8
:101170004AE050E067ED70E085EB92E00E94611775
:101180006DEF73E085EB92E00E94861685EB92E0AE
:101190000E94B2164AE050E060E870E085EB92E011
:1011A0000E94611761EF73E085EB92E00E94861662
:1011B0004AE050E061E870E085EB92E00E94611740
:1011C00065EE73E085EB92E00E9486164AE050E0FF
:1011D00062E870E085EB92E00E94611769ED73E0D0
:1011E00085EB92E00E9486164AE050E063E870E0EA
:1011F00085EB92E00E9461176DEC73E085EB92E065
:101200000E94861685EB92E00E94B2164AE050E0FA
:1012100064E870E085EB92E00E94611761EC73E096
:1012200085EB92E00E9486164AE050E065E870E0A7
:1012300085EB92E00E94611765EB73E085EB92E02D
:101240000E9486164AE050E066E870E085EB92E086
:101250000E94611769EA73E085EB92E00E948616AE
:101260004AE050E067E870E085EB92E00E94611789
:101270006DE973E085EB92E00E94861685EB92E0C3
:101280000E94B2164AE050E062EB70E085EB92E01B
:101290000E94611761E973E085EB92E00E94861677
:1012A0004AE050E063EB70E085EB92E00E9461174A
:1012B00065E873E085EB92E00E9486164AE050E014
:1012C00060EB70E085EB92E00E94611769E773E0E4
:1012D00085EB92E00E9486164AE050E061EB70E0F8
:1012E00085EB92E00E9461176DE673E085EB92E07A
:1012F0000E94861685EB92E00E94B2164AE050E00A
:1013000061ED70E085EB92E00E94611761E673E0A9
:1013100085EB92E00E9486164AE050E064ED70E0B2
:1013200085EB92E00E94611765E573E085EB92E042
:101330000E9486164AE050E063ED70E085EB92E093
:101340000E94611769E473E085EB92E00E948616C3
:101350004AE050E066ED70E085EB92E00E94611794
:101360006DE373E085EB92E00E94861685EB92E0D8
:101370000E94B2164AE050E062ED70E085EB92E028
:101380000E94611761E373E085EB92E00E9486168C
:101390004AE050E065ED70E085EB92E00E94611755
:1013A00065E273E085EB92E00E9486164AE050E029
:1013B00061EC70E085EB92E00E94611769E173E0F7
:1013C00085EB92E00E9486164AE050E06DE070E006
:1013D00085EB92E00E9461176CE073E085EB92E090
:1013E0000E94861685EB92E00E94B2164AE050E019
:1013F00062EC70E085EB92E00E94611760E073E0C0
:1014000085EB92E00E9486164AE050E063EC70E0C3
:1014100085EB92E00E94611764EF72E085EB92E049
:101420000E9486164AE050E064EC70E085EB92E0A2
:101430000E94611768EE72E085EB92E00E948616CA
:101440004AE050E065EC70E085EB92E00E946117A5
:101450006CED72E085EB92E00E94861685EB92E0DF
:101460000E94B2164AE050E066EC70E085EB92E034
:101470000E94611760ED72E085EB92E00E94861693
:101480004AE050E067EC70E085EB92E00E94611763
:1014900064EC72E085EB92E00E9486164AE050E030
:1014A00068EC70E085EB92E00E94611768EB72E0F7
:1014B00085EB92E00E9486164AE050E069EC70E00D
:1014C00085EB92E00E9461176CEA72E085EB92E096
:1014D0000E94861685EB92E00E94B2164AE050E028
:1014E0006AEC70E085EB92E00E94611760EA72E0BE
:1014F00085EB92E00E9486164AE050E06BEC70E0CB
:1015000085EB92E00E94611764E972E085EB92E05E
:101510000E9486164AE050E06CEC70E085EB92E0A9
:101520000E94611768E872E085EB92E00E948616DF
:101530004AE050E06DEC70E085EB92E00E946117AC
:101540006CE772E085EB92E00E94861685EB92E0F4
:101550000E94B21685EB92E00E94B216C1E2D0E082
:101560004AE050E0BE0185EB92E00E946117C4366C
:10157000D10534F465E771E085EB92E00E94A9168D
:1015800068E772E085EB92E00E9486166C2F85EB8F
:1015900092E00E94AB1660E772E085EB92E00E9459
:1015A0008616CE0183709927892B21F485EB92E072
:1015B0000E94B2162196CF37D10591F685EB92E0C5
:1015C000DF91CF910C94B216EF92FF920F931F937D
:1015D000CF93DF931F92CDB7DEB761E472E085EB66
:1015E00092E00E94B6160AE011E088E0E82EF12CA5
:1015F000F80161918F01C70169830E94981D69817B
:10160000681719F0C7010E94A01DFFEFEF1AFF0A2B
:101610008FE4E816F10461F70F90DF91CF911F91ED
:101620000F91FF90EF9008950F931F93CF93DF9347
:101630000E94D5048823A9F060E672E085EB92E071
:101640000E94B6160AE011E0C8E0D0E0CE010E9488
:10165000981DF80181938F012196CF34D105B1F700
:101660000CC060E572E085EB92E00E94B616DF9157
:10167000CF911F910F910C94E40ADF91CF911F91AC
:101680000F910895CF93DF9340E855E260E070E05A
:1016900085EB92E00E94431544E650E060E070E084
:1016A00085EB92E00E9406180E94140B8BE692E0F4
:1016B0000E94F20FC0EBD1E062E089910E94BA1360
:1016C00081E0C33CD807C1F761E08DE00E94BA1306
:1016D0000E94C005C09150010E9412068C2F90E01C
:1016E000909353018093520180E180938100109286
:1016F000800021E02093620280E49CE990936402E0
:1017000080936302909387008093860081E18093A9
:1017100081008CE59CE090936102809360022093AD
:101720006F001092810010928500109284008091C9
:101730006202806180938100DF91CF910895462FEE
:1017400090E09C01220F331FF901E80FF91FE65FBB
:10175000FE4F6485509157026C3F39F050FF03C033
:1017600075857111672F6D3FA1F151FF08C0F90117
:10177000E80FF91FE65FFE4F86858111682F6A3FEB
:1017800031F4442309F480C00E94F90507C06B3F7F
:1017900051F4442309F478C00E9406068091520156
:1017A0008093500185C06C3F91F480914F0182FF7E
:1017B00006C0442309F468C050FD05C002C044239C
:1017C00011F0516001C05E7F509357025DC06D3FC4
:1017D00091F480914F0183FF06C0442309F46AC04D
:1017E00051FD05C002C0442311F0526001C05D7F6D
:1017F000509357025FC0663F19F461E8640F2BC035
:10180000673F19F461E8640F2FC0683F19F461E87D
:10181000640F33C0693F39F461E8640F8BE692E0EE
:101820000E94C80F36C06C3DB0F16E3D81F030F4BF
:101830006C3DB1F06D3D31F56FE713C0603EC9F00E
:1018400020F0613EF9F461E815C06FE701C061E87E
:10185000469F602D11248BE692E00E94BF0F19C0B5
:1018600061E8469F602D11248BE692E00E94C20F32
:1018700010C06FE7469F602D11248BE692E00E9416
:10188000C50F07C0663EA0F0665E8BE692E00E9440
:10189000920F81E008956D3050F08FE792E044237D
:1018A00019F00E94291004C00E94971001C00895E9
:1018B00080E008956DEFE8CF3F924F925F926F9274
:1018C0007F928F929F92AF92BF92CF92DF92EF92D0
:1018D000FF920F931F93CF93DF93F0EB6F2EF1E006
:1018E0007F2EA6E18A2EA1E09A2EC8EFD1E0512CDE
:1018F000412CBEEF3B2EF30111913F01812F0E943D
:1019000029149C01F4019081965F943030F0FF24FB
:10191000F394232B09F1F12C1FC0812F0E944C134B
:10192000BC01882777FD8095982F1F921F921F92E8
:101930003F92A12CB12C6501EE24EA9413E0F12E24
:1019400000E010E020E030E0A9010E94CB1CF62E60
:101950000F900F900F900F908881F816F1F00E9471
:101960008D1209811A812B813C81601B710B820BC6
:10197000930B6A3171058105910578F0F8820E9418
:101980008D1269837A838B839C836F2D852D0E94B2
:101990009F0B882311F044244394F3E08F0E911C95
:1019A0002596539483E15812A6CF4420A9F08BE6E4
:1019B00092E0DF91CF911F910F91FF90EF90DF9018
:1019C000CF90BF90AF909F908F907F906F905F90DF
:1019D0004F903F900C94CB0FDF91CF911F910F91BF
:1019E000FF90EF90DF90CF90BF90AF909F908F903F
:1019F0007F906F905F904F903F900895EF92FF928D
:101A00000F931F93CF93DF931F92CDB7DEB785EB74
:101A100092E00E947C14892B09F409C285EB92E0C4
:101A20000E948C1499278836910509F442C004F568
:101A30008136910509F4FAC07CF48B32910509F4E2
:101A4000DFC18D9721F70E94060680915201809395
:101A500050016AEC70E0DCC18436910509F486C05F
:101A60008736910509F46AC08236910581F62FC147
:101A70008D36910509F154F48B36910509F450C067
:101A80008C36910521F60E94140BC1CF8337910546
:101A900009F4B3C18637910549F08E36910509F0F6
:101AA000B6CFEAE8F1E0A6E1B1E056C065E372E046
:101AB00029C00E942306ABCF85EB92E00E948C14D4
:101AC00041E060E070E085EB92E00E940C1885EB4D
:101AD00092E069830E948C1485EB92E00E948C1442
:101AE00069816623A1F0883619F0843781F4AAC190
:101AF000613009F0B1C180914F018B7F80934F011C
:101B000064E272E085EB92E00E94B61680CF60EC52
:101B100071E085EB92E00E94B61668E971E0F2CFC1
:101B2000EDE9F1E0A6E1B1E081918C93139681E0BB
:101B3000E03BF807C9F768E871E0E4CFE7E7F1E0D8
:101B4000A6E1B1E081918C93139691E0EA38F90710
:101B5000C9F769E771E0D6CF81918C93139681E044
:101B6000ED39F807C9F766E671E0CCCF61E685EBA1
:101B700092E00E94AB1606E111E065E771E085EBAB
:101B800092E00E94A9164AE050E0F801608185EBDE
:101B900092E00E948E170D5F1F4FF1E00F341F0778
:101BA00061F707E111E065E771E085EB92E00E94E3
:101BB000A9164AE050E0F801608185EB92E00E94AE
:101BC0008E170D5F1F4FF1E000351F0761F708E129
:101BD00011E065E771E085EB92E00E94A9164AE00A
:101BE00050E0F801608185EB92E00E948E170D5F56
:101BF0001F4FF1E001351F0761F765E771E085EBE5
:101C000092E00E94A9164AE050E060914F0185EBF6
:101C100092E00E948E1765E771E085EB92E00E94EA
:101C2000A9164AE050E060915001DBC010E085EB5E
:101C300092E00E948C148032A9F541E060E070E0EF
:101C400085EB92E00E940C181A3319F4609350014E
:101C500027C0193319F460934F0122C0812F90E0FF
:101C6000163250F08697FC01EE0FFF1FE80FF91FA8
:101C7000E65FFE4F668714C0133150F04397FC01B6
:101C8000EE0FFF1FE80FF91FE65FFE4F658708C0E4
:101C9000FC01EE0FFF1FE80FF91FE65FFE4F6487A0
:101CA0001F5FC5CF112381F06FE571E085EB92E0F6
:101CB0000E9486164AE050E0612F85EB92E00E9478
:101CC0008E1767E571E01ECF66E371E01BCF85EBF1
:101CD00092E00E948C1441E060E070E085EB92E0BD
:101CE0000E940C18062F633108F091CE85EB92E02C
:101CF0000E948C1441E060E070E085EB92E00E946D
:101D00000C18162F662309F475C0802F90E07C0113
:101D1000EE0CFF1CE80EF91EC701865F9E4F7C018A
:101D200060E0FC0184850E949F0BF70114876EE23E
:101D300071E085EB92E00E9486164AE050E0602F49
:101D400085EB92E00E948E1768E271E085EB92E0ED
:101D50000E9486164AE050E0612F85EB92E00E94D7
:101D60008E1785EB92E00E948C148097F1F541E08C
:101D700060E070E085EB92E00E940C18162F60E0A6
:101D8000F70185850E949F0BF701158760E271E0DE
:101D900085EB92E00E9486164AE050E0612F85EBC9
:101DA00092E00E948E1785EB92E00E948C1480973F
:101DB000E1F441E060E070E085EB92E00E940C18F5
:101DC000162F60E0F70186850E949F0BF7011687AA
:101DD00068E171E085EB92E00E9486164AE050E0EF
:101DE000612F85EB92E00E948E1785EB92E00E94B6
:101DF000B2160DCE6CED70E085CE0E94E40A07CEDF
:101E00000E94F905809152018093500163ED70E0CA
:101E100085EB92E00E948616609152017091530109
:101E20004AE050E085EB92E00E946917F0CD0E94F5
:101E30000D050F90DF91CF911F910F91FF90EF90C3
:101E40000C94DE05613099F480914F018460809399
:101E50004F0161E172E056CE623009F0D8CD809139
:101E60004F01877F80934F0160E072E04BCE62307C
:101E700009F0CDCD80914F01886080934F016DEEC8
:101E800071E040CE1F920F920FB60F9211242F9344
:101E90003F934F935F936F937F938F939F93AF93F2
:101EA000BF93EF93FF93E0916002F0916102099577
:101EB000FF91EF91BF91AF919F918F917F916F9122
:101EC0005F914F913F912F910F900FBE0F901F90F8
:101ED0001895CF93DF93EC0180917102811113C0AB
:101EE000109266021092650281E597E09093680275
:101EF0008093670286E390E090936A028093690280
:101F000081E0809371020E94351265E672E00E94C2
:101F1000C611188219821A821B821D821C82DF91CF
:101F2000CF9108950F931F93FC01A62F8481958173
:101F3000411113C001E010E020E030E0062E04C0A3
:101F4000000F111F221F331F0A94D2F7009510951E
:101F500008231923158304830FC041E050E060E09B
:101F600070E004C0440F551F661F771FAA95D2F773
:101F7000482B592B558344831F910F910895FC01E1
:101F800060830895FC0161830895FC0162830895D4
:101F9000FC0163830895CF93DF9300D000D000D07D
:101FA000CDB7DEB7FC019481858199838A838081D6
:101FB0008B8381818C8382818D8383818E830E9438
:101FC000351226E030E0AE014F5F5F4F63E00E94C4
:101FD000E31126960FB6F894DEBF0FBECDBFDF919A
:101FE000CF9108950C94CB0F8BE692E00C94690F7F
:101FF000FC011382128227EC31E03183208380912F
:102000008B02811113C010927A021092790287E834
:1020100097E090937C0280937B028FE290E0909314
:102020007E0280937D0281E080938B020E943512B4
:1020300069E772E00C94C611CF93DF93EB010E9425
:10204000351228E030E0AE0162E0DF91CF910C94D0
:10205000E311CF93DF93DC01683818F0E8E7E60F6F
:1020600025C0E62FF0E067FF11C0E058F10981E0DC
:1020700090E001C0880FEA95EAF714969C911497B6
:10208000982B14969C931497E0E010C0EA54F84FF4
:10209000E491EE2309F440C0E7FF08C014968C9148
:1020A0001497826014968C931497EF7716968C9100
:1020B00016978E1741F117968C9117978E1719F175
:1020C00018968C9118978E17F1F019968C91199794
:1020D0008E17C9F01A968C911A978E17A1F01B963D
:1020E0008C911B978E1779F080E090E0ED01C80F7E
:1020F000D91F2E81211102C0EE8305C001968630C2
:102100009105A1F709C0BD016C5F7F4FCD010E9411
:102110001C1081E090E008C081E090E013969C9351
:102120008E93129780E090E0DF91CF910895683808
:1021300018F0E8E7E60F25C0E62FF0E067FF12C0D1
:10214000E058F10921E030E001C0220FEA95EAF7FA
:102150002095DC0114963C911497322314963C93FD
:10216000E0E00FC0EA54F84FE491EE2329F1E7FFD5
:1021700008C0DC0114962C9114972D7F14962C9393
:10218000EF7720E030E0EE2351F0DC01A20FB31F27
:1021900016964C9116974E1302C016961C922F5FFE
:1021A0003F4F2630310579F7BC016C5F7F4F0E94AD
:1021B0001C1081E090E0089580E090E00895FF9287
:1021C0000F931F93CF93DF93EC01F62E0E942910FB
:1021D0008C016F2DCE010E949710C8019927DF91C5
:1021E000CF911F910F91FF9008958FE792E00C948B
:1021F000F80FFB0128E4208329E4218324E42283CF
:10220000DC011D962C911D972F702F5B23831D964B
:102210008D919C911E9724E0969587952A95E1F7DC
:102220008F708F5B848385E00895CF93DF93CDB764
:10223000DEB769970FB6F894DEBF0FBECDBFFC01C5
:10224000DB018C918F5F8C93BE016F5F7F4F89E1C3
:10225000DB011D928A95E9F799E0998384E08A83EE
:1022600021E02D8383E08E839A8791E29B872C87E0
:102270002D872F8792E2988B97E09B8B95E09C8B24
:102280008E8B80E490E0988F8F8B298F82818B8357
:1022900095858685998B8A8B838180688D8B49E1B2
:1022A00050E080E00E94591A69960FB6F894DEBF9C
:1022B0000FBECDBFDF91CF910895DC01FB011296D7
:1022C0002C91129730E08481958128173907D1F439
:1022D00091818081813A31F481E0913091F09330A5
:1022E00089F411C0813271F49B3021F482811F96F0
:1022F0008C9305C09A3031F4828150968C9381E0A2
:102300000895089580E00895EF92FF920F931F9330
:10231000CF93DF937C01FB018081813871F583814C
:10232000823259F5D70112968C91129790E0248150
:1023300035812817390709F51B96CD91DC911C973B
:1023400000E010E0209789F04C815D816A817B81FB
:1023500080E80E94591A8F3FBFEF9B0759F0080F82
:10236000191F0990D881C02DEDCF81E0F701878733
:10237000C80105C08FEF9FEF02C080E090E0DF91C1
:10238000CF911F910F91FF90EF900895FC01A385CD
:10239000B485109719F47487638709C08D919C9157
:1023A0001197009711F0DC01F9CF6D937C9385852F
:1023B0009685DB0114962D913C911597820F931F02
:1023C000968785870895AF92BF92CF92DF92EF9262
:1023D000FF920F931F93CF93DF931F92CDB7DEB77A
:1023E0007C0169836A01590141E050E0BE016F5FE1
:1023F0007F4FFC0183810E94BE198C0197FD0BC0A9
:10240000F7018381A501B60180640E94BE1997FD82
:1024100002C0800F911F0F90DF91CF911F910F91FC
:10242000FF90EF90DF90CF90BF90AF900895CF9343
:10243000DF93EC0121E02C832D830A969F838E830A
:10244000198618868FEC91E0998388831C861B86F9
:102450001E861D862F87288B81EC8A870E94341662
:10246000BE01DF91CF910C94ED158091A4028111F2
:1024700007C083E992E00E94171281E08093A402D2
:1024800083E992E008951F920F920FB60F921124E4
:102490002F933F938F939F93AF93BF938091AD0200
:1024A0009091AE02A091AF02B091B0023091AC0217
:1024B00023E0230F2D3720F40196A11DB11D05C087
:1024C00026E8230F0296A11DB11D2093AC02809334
:1024D000AD029093AE02A093AF02B093B002809190
:1024E000B1029091B202A091B302B091B4020196F0
:1024F000A11DB11D8093B1029093B202A093B302CB
:10250000B093B402BF91AF919F918F913F912F9162
:102510000F900FBE0F901F9018952FB7F8946091F1
:10252000AD027091AE028091AF029091B0022FBFC8
:1025300008953FB7F8948091B1029091B202A091B2
:10254000B302B091B40226B5A89B05C02F3F19F085
:102550000196A11DB11D3FBF6627782F892F9A2FA5
:10256000620F711D811D911D42E0660F771F881F4C
:10257000991F4A95D1F708958F929F92AF92BF927B
:10258000CF92DF92EF92FF926B017C010E94991231
:102590004B015C01C114D104E104F104F1F00E948B
:1025A000261D0E949912681979098A099B09683EBB
:1025B00073408105910570F321E0C21AD108E1084A
:1025C000F10888EE880E83E0981EA11CB11CC1148E
:1025D000D104E104F10429F7DDCFFF90EF90DF9003
:1025E000CF90BF90AF909F908F900895789484B5CE
:1025F000826084BD84B5816084BD85B5826085BDFF
:1026000085B5816085BDEEE6F0E0808181608083E4
:10261000E1E8F0E0108280818260808380818160C7
:102620008083E0E8F0E0808181608083E1E9F0E090
:10263000808182608083808181608083E0E9F0E036
:10264000808181608083E1ECF0E080818460808320
:10265000808182608083808181608083E3ECF0E010
:10266000808181608083E0ECF0E080818260808303
:10267000E2ECF0E0808181608083EAE7F0E0808135
:102680008460808380818260808380818160808398
:102690008081806880830895823108F08251E82F1C
:1026A000F0E0EA5CF74FE49180917B00E3FB2227A6
:1026B00020F930E095E0220F331F9A95E1F78F7DE6
:1026C000822B80937B00E7708091540120E4829FED
:1026D000C0011124E82BE0937C0080917A00806493
:1026E00080937A0080917A0086FDFCCF80917800FB
:1026F0002091790090E0922B089590E0FC013197B1
:10270000EF30F105B0F5EA5AFF4F0C94781D809137
:1027100080008F7703C0809180008F7D8093800040
:10272000089580918000877FF9CF84B58F7702C0AC
:1027300084B58F7D84BD0895809190008F7707C008
:10274000809190008F7D03C080919000877F80935F
:10275000900008958091C0008F7703C08091C000E1
:102760008F7D8093C00008958091C200877F809301
:10277000C2000895CF93DF9390E0FC01EF59F74F2B
:102780002491FC01E058F74F8491882349F190E0AF
:10279000880F991FFC01E554F74FA591B49183551B
:1027A000974FFC01C591D4919FB7611108C0F8946F
:1027B0008C91209582238C93888182230AC0623079
:1027C00051F4F8948C91322F309583238C93888127
:1027D000822B888304C0F8948C91822B8C939FBFAA
:1027E000DF91CF9108950F931F93CF93DF931F92A3
:1027F000CDB7DEB7282F30E0F901EE5BF74F8491BB
:10280000F901EF59F74F1491F901E058F74F04918E
:102810000023C9F0882321F069830E947D13698118
:10282000E02FF0E0EE0FFF1FE355F74FA591B491B5
:102830009FB7F8948C91611103C01095812301C05A
:10284000812B8C939FBF0F90DF91CF911F910F91A0
:102850000895CF93DF93282F30E0F901EE5BF74F17
:102860008491F901EF59F74FD491F901E058F74FEE
:10287000C491CC2391F081110E947D13EC2FF0E0E4
:10288000EE0FFF1FE156F74FA591B4912C912D2328
:1028900081E090E021F480E002C080E090E0DF91F0
:1028A000CF910895CF93DF931F92CDB7DEB76983A1
:1028B000DC01ED91FC910280F381E02D41E050E0DC
:1028C000BE016F5F7F4F09950F90DF91CF91089503
:1028D000CF93DF93EC018C859D8597FF05C082E047
:1028E0000E948D199D878C878C859D85DF91CF9166
:1028F000089583E00C94211CFC018485958597FD47
:1029000006C082E00E94351990E00196089582E0A9
:102910000E94351990E00895FC018485958597FD06
:1029200005C02FEF3FEF35872487089582E00C9490
:102930008D19CF93DF93EC0180916001882331F0F2
:1029400083E00E94BE191816190634F081E090E069
:102950009B838A8380E090E0DF91CF910895FC0112
:1029600020812E5F208342E450E069EC78E080E82B
:102970000C94591AFC0121818081813A59F4213249
:1029800009F04BC047E050E069E571E080E00E944B
:10299000591A5EC0813209F040C0233289F4838124
:1029A00090E0982F88273281832BA0E0B0E08093BD
:1029B000550190935601A0935701B09358010FC051
:1029C000203239F467E070E089E591E00E948A1ACC
:1029D00009C0223221F482818093600103C02D7FDF
:1029E0002032B1F580910503811103C0E0E0F8E0E9
:1029F00002C0EEEFFAE08091590190915A01A09146
:102A00005B01B0915C01803B9440A105B10511F5DB
:102A10008091600180FF03C01DC080E00895EE3FFB
:102A20002AE0F20731F0808191819093FF0A809330
:102A3000FE0A87E797E7918380832BE088E190E0A7
:102A40000FB6F894A895809360000FBE20936000A5
:102A500081E0089588E10FB6F894809360001092A9
:102A600060000FBEA895EE3F8AE0F80739F080912C
:102A7000FE0A9091FF0A91838083EACF1092FF0AA9
:102A80001092FE0AE5CF2FEF3FEFFC013587248738
:102A900008951092B8021092B70288EE93E0A0E079
:102AA000B0E08093B9029093BA02A093BB02B093B6
:102AB000BC028BED91E09093B6028093B5028FEF4C
:102AC0009FEF9093C2028093C1020895EF92FF920C
:102AD0000F931F93CF93DF937B01FC01C281D381BE
:102AE00000E010E0209781F0E881F9810280F38115
:102AF000E02DB701CE01099597FD08C0080F191FF9
:102B00000884D985C02DEECFC80102C08FEF9FEF9A
:102B1000DF91CF911F910F91FF90EF9008950F9348
:102B20001F93CF93DF938B01FC01C281D381209748
:102B300071F0E881F9810480F581E02DB801CE01C2
:102B40000995009731F40884D985C02DF0CF80E035
:102B500090E0DF91CF911F910F9108950F931F93F4
:102B6000CF93DF938B01FC01C281D381209771F059
:102B7000E881F9810680F781E02DB801CE01099541
:102B8000080F111D0884D985C02DF0CFF8011082DF
:102B9000DF91CF911F910F9108950F931F93CF93C2
:102BA000DF938B01FC01C281D381209771F0E88112
:102BB000F9810190F081E02DB801CE0109958111D4
:102BC00006C00884D985C02DF0CF80E001C081E027
:102BD000DF91CF911F910F910895CF93DF93FC0167
:102BE000DB01218114968C91149790E0820F911D46
:102BF0000897B4F5C281D381209719F47383628357
:102C000008C088859985009711F0EC01FACFB98743
:102C1000A887808112968C931297818113968C934A
:102C20001397808115969C911597890F808380E07A
:102C300014969C911497891788F41696CD91DC917F
:102C40001797C80FD11D9881C181D0E0CF59DE4FB1
:102C5000988391819F5F91838F5FEACF81E001C06C
:102C600080E0DF91CF91089580910A0381110DC01A
:102C700082E08093060384E08093070310920903A7
:102C80001092080381E080930A0386E093E00895A0
:102C9000CF92DF92EF92FF920F931F93CF93DF9328
:102CA0007C016A01EB0100E010E00C151D0571F0DC
:102CB0006991D701ED91FC910190F081E02DC70160
:102CC0000995892B19F00F5F1F4FEFCFC801DF91D6
:102CD000CF911F910F91FF90EF90DF90CF900895CB
:102CE0006115710581F0DB010D900020E9F7AD0160
:102CF00041505109461B570BDC01ED91FC910280BC
:102D0000F381E02D099480E090E00895EF92FF9226
:102D10000F931F93CF93DF938C017B01C0E0D0E032
:102D2000F701EC0FFD1F6491662359F0F801A081B3
:102D3000B181ED91FC91C8010995892B11F0219683
:102D4000EFCFCE01DF91CF911F910F91FF90EF90C8
:102D500008950C947016DC01ED91FC910190F081C6
:102D6000E02D099467EE71E00C9470160F931F9399
:102D7000CF93DF93EC010E9486168C01CE010E9456
:102D8000B216800F911FDF91CF911F910F9108957F
:102D90008F929F92AF92BF92DF92EF92FF920F932A
:102DA0001F93CF93DF93CDB7DEB7A1970FB6F894FB
:102DB000DEBF0FBECDBF7C01F42FD52ECB0119A2F3
:102DC000223008F42AE08E010F5D1F4F822E912CD5
:102DD000A12CB12C6F2F7D2DA50194010E94371DD0
:102DE000F22FD32ECA01015011096A3014F4E0E326
:102DF00001C0E7E3E60FD801EC93232B242B252B0E
:102E000049F7B801C7010E947016A1960FB6F89451
:102E1000DEBF0FBECDBFDF91CF911F910F91FF900D
:102E2000EF90DF90BF90AF909F908F900895CF92DA
:102E3000DF92EF92FF920F931F93CF93DF93EC01FA
:102E40006A017B012115310579F4E881F98101904E
:102E5000F081E02D642FDF91CF911F910F91FF90B2
:102E6000EF90DF90CF9009942A303105E9F477FF95
:102E70001AC06DE20E94AB168C0144275527BA0197
:102E80004C195D096E097F092AE0CE010E94C8161F
:102E9000800F911FDF91CF911F910F91FF90EF90C5
:102EA000DF90CF9008952AE0B701A601CE01DF910F
:102EB000CF911F910F91FF90EF90DF90CF900C94E6
:102EC000C8169A01AB01662757FD6095762F0C94C2
:102ED00017170F931F93CF93DF93EC019A01AB0168
:102EE000662757FD6095762F0E9417178C01CE013B
:102EF0000E94B216800F911FDF91CF911F910F9109
:102F000008952115310541F4DC01ED91FC9101900A
:102F1000F081E02D642F09940C94C8169A01462F75
:102F200050E060E070E00C9481170F931F93CF93F3
:102F3000DF93EC010E948D12688779878A879B87CF
:102F4000E881F9810084F185E02DCE01099597FF94
:102F500015C00E948D12088519852A853B85601B46
:102F6000710B820B930B0C811D812E813F816017A9
:102F700071078207930720F38FEF9FEFDF91CF91C7
:102F80001F910F910895FF920F931F93CF93DF939B
:102F9000EC018B01F42ECE010E9495179C0197FD48
:102FA00028C08D32910519F1C0970A9710F1FF20C2
:102FB00019F02E323105F9F001301105F9F0023027
:102FC000110569F42D30310551F034F429503109DF
:102FD0002230310520F012C02032310579F4E88129
:102FE000F9810680F781E02DCE010995D4CF8DE2DD
:102FF00003C0C90105C08EE290E002C08FEF9FEFD1
:10300000DF91CF911F910F91FF900895FC014483B0
:103010005583668377830895CF92DF92FF920F9353
:103020001F93CF93DF9300D000D0CDB7DEB76C01F4
:10303000042F40E00E94C317FC0197FD4BC020E025
:1030400030E0A901F12C112707FD1095E017F107D9
:10305000E9F0ED32F105C1F0CF01C0970A97B0F465
:10306000AAE0B0E00E947E1D9B01AC01CF01AA271F
:1030700097FDA095BA2F280F391F4A1F5B1F2053B9
:1030800031094109510902C0FF24F394D601ED91A1
:10309000FC910680F781E02DC60129833A834B839A
:1030A0005C830995C6010E949517FC01C097298190
:1030B0003A814B815C810A9748F2E017F10731F2BF
:1030C000FF2061F066277727CB01621B730B840B0F
:1030D000950B06C060E070E0CB0102C0CA01B901E7
:1030E0000F900F900F900F90DF91CF911F910F9144
:1030F000FF90DF90CF900895615030F02091F10063
:10310000FC0120830196F8CF289884E680931B0366
:1031100008954091160350911703209114033091A4
:10312000150342175307B4F49091E8009570E1F34A
:103130009091E80092FD19C08093F10080911603F0
:103140009091170301968F739927892B19F48EEFAD
:103150008093E80080911603909117030196909355
:1031600017038093160381E0089580E00895CF92BD
:10317000DF92EF92FF920F931F93CF93DF931F92F3
:10318000CDB7DEB7082F162FF42E862F880F8E5F4F
:1031900099830E94891883E00E948918E02EC02E2E
:1031A0009981D92E8C2D8E19811798F4F601F7FE8E
:1031B00002C0849101C080810E948918082F80E09C
:1031C0000E9489188023FFEFCF1ADF0A8111EACF0E
:1031D00001C081E00F90DF91CF911F910F91FF907F
:1031E000EF90DF90CF9008958091D7008160809319
:1031F000D70080EA8093D80089B5806189BD89B500
:10320000826089BD09B400FEFDCF61E070E080E01E
:1032100090E00E94BC128091D8008F7C80618093E6
:10322000D8008091E000807F8093E0000895CF93E4
:10323000DF931F92CDB7DEB71982CE0101960E94AF
:10324000AF140E943416BE016F5F7F4F0E94661557
:1032500089810F90DF91CF9108952FB7FC012083D2
:10326000F89467706093E9000895CF93DF931F92FD
:10327000CDB7DEB7682FCE0101960E942D1980913F
:10328000F20099819FBF0F90DF91CF910895FF9237
:103290000F931F93CF93DF9300D0CDB7DEB7F62EF9
:1032A0008A0190911A03992311F057FF03C08FEF01
:1032B0009FEF2BC0682FCE0101967A830E942D19B3
:1032C0008091F20090E0A8017A81801791070CF4B8
:1032D000AC01EF2DF72FF40E84E6FE1639F0289896
:1032E00080931B039091F1009193F7CF4115510505
:1032F00021F08091F200882321F089818FBFCA01DB
:1033000004C08BE68093E800F8CF0F900F90DF9118
:10331000CF911F910F91FF900895CF93DF931F924C
:10332000CDB7DEB741E050E0BE016F5F7F4F0E9436
:103330004719019719F4898190E002C08FEF9FEF40
:103340000F90DF91CF910895CF93DF931F92CDB768
:10335000DEB7682FCE0101960E942D199091E800EA
:10336000892F807295FF04C09091F20080E4891B40
:1033700099819FBF0F90DF91CF9108956F927F92B7
:103380008F929F92AF92BF92CF92DF92EF92FF9275
:103390000F931F93CF93DF931F92CDB7DEB7782E95
:1033A0007B01C42EB52E80911A03882369F0042F67
:1033B000152F8AEFD82E872D8072982E9AE3A92E8A
:1033C000872D8074882E11C08FEF9FEF57C0872DF7
:1033D0000E94A419682E81110CC0DA94A9F361E04F
:1033E00070E080E090E00E94BC120115110579F7B1
:1033F0003BC0282F30E0021713070CF4602E672D16
:10340000CE0101960E942D198091E80085FF29C008
:10341000262D30E0021B130B992039F06A948FEFB0
:103420006816B1F01092F100F9CFF701862D77FE02
:1034300007C0815058F094919093F1003196F9CFE4
:10344000815020F091919093F100FACFE20EF31E9B
:103450008091E80085FF0FC00115110511F481105E
:103460000AC089818FBFC1CF5D9884E680931C0319
:103470008C2D9B2D03C0A092E800F3CF0F90DF911D
:10348000CF911F910F91FF90EF90DF90CF90BF9061
:10349000AF909F908F907F906F9008951092E90069
:1034A0001092170310921603909315038093140340
:1034B0000895CF92DF92FF920F931F93CF93DF93E4
:1034C00000D0CDB7DEB7F82E8A016B0101151105CA
:1034D000B1F0F601F7FE02C0849101C080814983FA
:1034E0005A830E94891801501109FFEFCF1ADF0A91
:1034F00049815A818111EACF8FEF9FEF01C0CA0144
:103500000F900F90DF91CF911F910F91FF90DF905F
:10351000CF900895BF92CF92DF92EF92FF920F93D8
:103520001F93CF93DF936C018B01EB013BEFB32E25
:103530002097C1F07E01C134D1051CF020E4E22EB9
:10354000F12C8091E80082FFFCCFC8018C1B9D0B01
:103550006E2D8C0D9D1D0E947C18B092E800CE1936
:10356000DF09E6CFC801DF91CF911F910F91FF9046
:10357000EF90DF90CF90BF9008951F920F920FB6FB
:103580000F921124DF92EF92FF920F931F932F93CC
:103590003F934F935F936F937F938F939F93AF93DB
:1035A000BF93EF93FF93CF93DF93CDB7DEB76C97C5
:1035B000DEBFCDBF1092E9008091E80083FF23C1F8
:1035C00068E0CE0145960E947C1882EF8093E80067
:1035D0003D8937FF05C08091E80080FFFCCF03C024
:1035E0008EEF8093E800832F807609F0F0C02E895B
:1035F0004F89D88C21110CC0303829F480911903DF
:103600008093F10002C01092F1001092F100F4C01A
:10361000842F90E09D29213049F43111EDC00197AC
:1036200009F0EAC0809119038D7F0AC0233059F454
:103630003111E2C0019709F0DFC080911903826067
:1036400080931903D9C0253041F48091E80080FFB0
:10365000FCCF40684093E300CFC0263009F08DC016
:10366000EB8CFC8C22E0D2122CC080E090E00E9417
:103670004E1A0E94171999E08E010F5F1F4FF80133
:10368000292F11922A95E9F79983DA8291E09E8396
:1036900090EA98879AEF9987209116033091170343
:1036A000275F3F4F3C832B838D83C7010E944E1AB7
:1036B00049E050E0B80180E00E94591A0E941719B1
:1036C0009BC0C7010E944E1A0E943416BE016B5E59
:1036D0007F4F0E948F15009719F00CF08DC090C09D
:1036E00081E0D8120EC08B8D9C8D089719F481E073
:1036F000809313038091130381112FC06DE179E052
:1037000031C0E3E0DE127CC08F89882349F182302A
:1037100029F440E860E18BE399E01CC0813029F492
:1037200040E86BE08FE299E015C0833009F068C093
:103730000E9434168E010F5F1F4FB8010E94AE1514
:10374000F80101900020E9F73197E01BF10B40E010
:103750006E2FC8010E94B7184DC06BE079E002C01F
:103760006CE479E06115710509F44AC0FB014491EC
:1037700050E080E80E94591A3FC0273009F440C049
:10378000283021F481E08093F10036C02930A1F582
:103790003370B1F5E2E6F1E081E021E036E39081BB
:1037A000992361F08093E9002093EB00919190932D
:1037B000EC003093ED008F5F873089F78EE78093C0
:1037C000EA001092EA008F8980931A0315C08B8D4E
:1037D0009C8D0E944E1A898D811105C0CE0145969F
:1037E0000E94BA1407C00E943416BE016B5E7F4F60
:1037F0000E94CD15882321F08EEF8093E80003C04E
:1038000081E28093EB006C960FB6F894DEBF0FBE9A
:10381000CDBFDF91CF91FF91EF91BF91AF919F917C
:103820008F917F916F915F914F913F912F911F9158
:103830000F91FF90EF90DF900F900FBE0F901F90B1
:1038400018958093E9008091F200882319F08AE3AB
:103850008093E80008951F920F920FB60F921124E3
:103860002F933F934F935F936F937F938F939F9388
:10387000AF93BF93CF93EF93FF93C091E1008091FB
:10388000E100837F8093E1008093E100C3FF0FC0DC
:103890001092E90081E08093EB001092EC0082E34B
:1038A0008093ED0010921A0388E08093F000C2FF2D
:1038B00019C083E00E94211C80911C03882339F0E9
:1038C00080911C03815080931C03882389F180918F
:1038D0001B03882339F080911B03815080931B03C5
:1038E000882341F1C4FF10C08091E2008E7E816088
:1038F0008093E2008091E1008F7E8093E1008091CF
:1039000018038E7E806111C0C0FF16C08091E20056
:103910008E7E80618093E2008091E1008E7E8093B4
:10392000E100809118038E7E81608093180304C0AB
:103930005D9ACDCF289AD6CFFF91EF91CF91BF91CD
:10394000AF919F918F917F916F915F914F913F9137
:103950002F910F900FBE0F901F90189510921A0381
:1039600010921903109218030E94F4188091E1003C
:103970008E7E8093E1008DE08093E200559A209A3C
:10398000EEEFFFE7859194918B3F9C4D19F481E018
:103990008093050308954F925F926F927F92AF924A
:1039A000BF92CF92DF92EF92FF920F931F93CF932C
:1039B000DF93CDB7DEB729013A01621B730B840B8D
:1039C000950B29893A894B895C892A193B094C094D
:1039D0005D09298B3A8B4B8B5C8B9B01AC01698910
:1039E0007A898B899C890E94271DE418F5080609AD
:1039F0001709A80197010E94591D2A0D3B1D4C1D56
:103A00005D1DCA01B901DF91CF911F910F91FF9008
:103A1000EF90DF90CF90BF90AF907F906F905F90CE
:103A20004F90089508950E94F6120E94121D82E19F
:103A300093E00E94AE1C0E94420BC0E0D0E00E94C6
:103A4000FE0C2097E1F30E940000F9CF0895DB01FE
:103A50008F939F930E947E1DBF91AF91A29F800D77
:103A6000911DA39F900DB29F900D11240895A1E286
:103A70001A2EAA1BBB1BFD010DC0AA1FBB1FEE1FE8
:103A8000FF1FA217B307E407F50720F0A21BB30B33
:103A9000E40BF50B661F771F881F991F1A9469F7AF
:103AA00060957095809590959B01AC01BD01CF010B
:103AB0000895052E97FB1EF400940E94701D57FD7B
:103AC00007D00E94371D07FC03D04EF40C94701DE4
:103AD00050954095309521953F4F4F4F5F4F08953A
:103AE00090958095709561957F4F8F4F9F4F08956A
:103AF000EE0FFF1F0590F491E02D09940E94891D9F
:103B0000A59F900DB49F900DA49F800D911D112431
:103B10000895A29FB001B39FC001A39F700D811DA6
:103B20001124911DB29F700D811D1124911D0895C6
:103B3000F999FECF92BD81BDF89A992780B5089575
:103B4000262FF999FECF1FBA92BD81BD20BD0FB6B9
:103B5000F894FA9AF99A0FBE01960895F894FFCF57
:103B600000001D038000010000005069636164656E
:103B70002062322E3300DA0000D90000D80000D7CE
:103B800000008000008200002000008100007A0018
:103B900000780000730000630000B00000B1000076
:103BA0007500006400006900006F000070000000F4
:103BB0001401180001FFFFFFFF00E10000000000FA
:103BC0000000C1808100000050696361646520626B
:103BD000322E3300202000DCDDDEDFE6E7E8E9EA14
:103BE000EBECEDEEEFF0F1F2F3F4F8F9F6F7E6E7CF
:103BF000E8E9EAEBECEDEEEFF0F1F2F3F4DAD9D824
:103C0000D7808220817A787363B0B1FAFB696F70D4
:103C1000191A1C1B1716151413120C0400010302A9
:103C2000100E0F00000000DF104816000000005DBD
:103C30001115118411F91000000000521499147C20
:103C4000148C14681479140D0A006E616E00696E8C
:083C500066006F7666002E008D
:00000001FF
