:100000000C94B1030C94D9030C94D9030C94D90328
:100010000C94D9030C94D9030C94D9030C94D903F0
:100020000C94D9030C94D9030C94D9170C946B1627
:100030000C94D9030C94D9030C94D9030C94D903D0
:100040000C94D9030C94D9030C94D9030C94D903C0
:100050000C94500B0C94D9030C94D9030C94420EBD
:100060000C94D9030C94D9030C94D9030C94D903A0
:100070000C94D9030C94D9030C94D9030C94D90390
:100080000C94D9030C94D9030C94D9030C94D90380
:100090000C94D9030C94D9030C94D9030C94D90370
:1000A0000C94D9030C94D9030C94D903BA0AE40A2A
:1000B0000806A00A08060806930A1E06080608068F
:1000C000860A2F0B08060806080608060806080612
:1000D0002C0B510F540F430F470F4D0F750F750F1A
:1000E000750F580F5C0F600F660F6A0F750F700F5A
:1000F00055736167653A2062203C627574746F6E57
:100100003E203C6B6579636F64653E0020746F3AF6
:100110002000426F756E643A200055736167653A3E
:100120002061203C6B6579636F64653E203C6B65A4
:1001300079636F64653E202E2E2E00206B65792832
:10014000732900426F756E6420004C6F61646564B2
:100150002047616D65706164004C6F616465642067
:100160004B6579626F61726400202020202020207E
:1001700000203D2000203D2046313220202020203C
:1001800000203D20463131202020202000203D202D
:10019000463130202020202000203D2046392020DC
:1001A0002020202000203D20463820202020202014
:1001B00000203D20463720202020202000203D2008
:1001C000463620202020202000203D2046352020BB
:1001D0002020202000203D204634202020202020E8
:1001E00000203D20463320202020202000203D20DC
:1001F000463220202020202000203D204631202093
:10020000202020200020203D2053706163652020A5
:100210002000203D2043617073204C6B2000203D66
:1002200020456E64202020202000203D20486F6D56
:10023000652020202000203D20506720446F776EED
:100240002000203D20506720557020202000203DB8
:100250002044656C657465202000203D20496E7344
:10026000657274202000203D20455343202020202B
:100270002000203D2052657475726E202000203DC4
:1002800020544142202020202000203D2042616354
:100290006B7370632000203D205220475549202079
:1002A0002000203D205220416C7420202000203D61
:1002B00020522053686966742000203D205220435C
:1002C00074726C202000203D204C2047554920208E
:1002D0002000203D204C20416C7420202000203D37
:1002E000204C2053686966742000203D204C204338
:1002F00074726C202000203D2052204172726F7772
:100300002000203D204C204172726F772000203D5C
:100310002044204172726F772000203D20552041FB
:1003200072726F772000203D20566F6C756D6520CE
:10033000446F776E2000203D20566F6C756D6520F0
:10034000557020202000203D2047706164205220FD
:10035000202000203D2047706164204C2020200098
:10036000203D2047706164204420202000203D2053
:10037000477061642055202020000A0A3C6B657993
:10038000636F64653E2073686F756C6420626520DE
:100390006F6E65206F663A00203D2053434C4B2022
:1003A0002020202000203D204D49534F2020202098
:1003B0002000203D204D4F534920202020200020A8
:1003C0003D20566F6C20446F776E2000203D2056F4
:1003D0006F6C20557020202000203D204573636104
:1003E000706520202000203D20456E74657220201D
:1003F000202000203D20436F696E20202020200017
:10040000203D205374617274202020200020203D64
:100410002042746E2036202020200020203D2042E3
:10042000746E2035202020200020203D2042746E54
:100430002034202020200020203D2042746E2033D4
:10044000202020200020203D2042746E20322020D9
:1004500020200020203D2042746E203120202020CA
:100460000020203D204A6F792052202020200020AB
:10047000203D204A6F79204C202020200020203D64
:10048000204A6F792044202020200020203D204A4F
:100490006F79205520202020000A3C627574746F0B
:1004A0006E3E2073686F756C64206265206F6E65A8
:1004B000206F663A00517569636B2047616D657006
:1004C00061643A20206700517569636B204B657940
:1004D000626F6172643A206B004C6F61643A202055
:1004E0002020202020202020206C00536176653AB7
:1004F0002020202020202020202020730044756D03
:100500007020616C6C3A2020202020202064004262
:10051000696E6420616C6C3A2020202020202061CC
:10052000203C6B6579636F64653E203C6B65796345
:100530006F64653E202E2E2E0042696E6420736922
:100540006E676C653A2020202062203C62757474CE
:100550006F6E3E203C6B6579636F64653E000A50A8
:10056000696361646520436F6E6669670005010910
:1005700004A101850305091901291015002501753C
:1005800001951055006500810205010901158125BD
:100590007FA10009300931750895028102C0C005AC
:1005A000010906A1018502050719E029E7150025C3
:1005B00001750195088102950175088103950675FD
:1005C00008150025650507190029658100C0000090
:1005D0000000000000002A2B28000000000000009E
:1005E00000000000000000000000000000002C9E41
:1005F000B4A0A1A2A434A6A7A5AE362D3738271ED5
:100600001F20212223242526B333B62EB7B89F847A
:1006100085868788898A8B8C8D8E8F909192939412
:1006200095969798999A9B9C9D2F3130A3AD350450
:1006300005060708090A0B0C0D0E0F1011121314F2
:1006400015161718191A1B1C1DAFB1B0B500000004
:10065000000200090F0000030401000C000000006C
:10066000000000000000000000000000000408027C
:10067000011040804010204080408008020401802A
:100680004020100201108010204040200404040487
:100690000403040502020202040302020202060627
:1006A00006060606040402020204040000000023F9
:1006B00000260029002C002F000000000025002843
:1006C000002B002E00310000000000240027002A2B
:1006D000002D003000080B00020202010009040096
:1006E000000102020000052400100105240101019F
:1006F00004240206052406000107058103100040BA
:1007000009040100020A000000070502024000007F
:100710000705830240000012010002EF0201404180
:1007200023368000010102030112010002000000D3
:100730004041233680000101020301417264756962
:100740006E6F204C4C430041726475696E6F204C93
:10075000656F6E6172646F0004030904F30BF40C9F
:10076000F51011241FBECFEFDAE0DEBFCDBF11E0E0
:10077000A0E0B1E0ECEBF1E302C005900D92AE3CDD
:10078000B107D9F722E0AEECB1E001C01D92AC3E5A
:10079000B207E1F717E0C2E6D7E004C02297FE01F6
:1007A0000E94A818CC35D107C9F70E9470180C9484
:1007B000DC180C94000080911E0190911F01909311
:1007C0002F0280932E02089580912E0290912F0285
:1007D0008931910514F088E190E090931F01809396
:1007E0001E01089580913002909131024897E9F0FE
:1007F0008091300290913102019690933102809362
:10080000300260E08BE00E94AF0F68E270E080E0B1
:1008100090E00E94BB0E61E08BE00E94AF0F65E0AC
:1008200070E080E090E00C94BB0E0895809130025F
:1008300090913102892BE9F0809130029091310240
:100840000197909331028093300260E087E00E942C
:10085000AF0F68E270E080E090E00E94BB0E61E0C4
:1008600087E00E94AF0F65E070E080E090E00C94BC
:10087000BB0E089561E08BE00E94760F61E08BE093
:100880000E94AF0F61E087E00E94760F61E087E091
:100890000E94AF0F60E085E00C94760F80913002EB
:1008A0009091310220911E0130911F018217930710
:1008B00014F40E94F2038091300290913102209151
:1008C0001E0130911F012817390714F40C941604E7
:1008D000089580911E0190911F018831910529F0A2
:1008E000019690931F0180931E01089580911E012F
:1008F00090911F01009729F0019790931F01809319
:100900001E0108954F925F926F927F92AF92BF92B5
:10091000CF92DF92EF92FF920F931F93CF93DF93CB
:1009200086E8E82E81E0F82ECEECD1E00AE011E076
:10093000D12C9FE7C92E21E8B22EF70181917F01CA
:100940000E94E50FAA24A394892B09F0A12C888189
:10095000A81601F10E948C0E49805A806B807C8021
:1009600064197509860997096A3171058105910530
:1009700088F0A8820E948C0E69837A838B839C8383
:10098000F80160816A3F19F50E94690480911E0197
:1009900080931D0125960F5F1F4FF9E9EF16F1E0D7
:1009A000FF0659F6DD2009F453C08DE392E0DF9194
:1009B000CF911F910F91FF90EF90DF90CF90BF905C
:1009C000AF907F906F905F904F900C94D10B6B3FE6
:1009D00019F40E947604DACF6C3D68F16D3DC9F0E0
:1009E00030F46C3DF1F4AB9C602D112415C06E3DCC
:1009F00031F06F3DB1F4AC9C602D112403C0AB9C71
:100A0000602D11248DE392E00E94CB0BDD24D39462
:100A1000C1CFAC9C602D11248DE392E00E94CE0BDF
:100A2000F5CF663E08F4B6CF665E4A2D8DE392E0C0
:100A30000E949E0BEBCF6D3008F4ACCF8FE492E0B8
:100A4000AA2019F00E94280CA5CF0E94960CA2CFD4
:100A5000DF91CF911F910F91FF90EF90DF90CF909A
:100A6000BF90AF907F906F905F904F90089582E21B
:100A700090E0909331028093300280913002909107
:100A80003102181619061CF40E941604F6CF0895B8
:100A90000F931F93CF93DF9388E090E00E94C618D6
:100AA000803701F589E090E00E94C6188336D1F4C2
:100AB0008AE090E00E94C6188436A1F463E371E0F6
:100AC00085E892E00E94741206E011E0C8E0D0E0F0
:100AD000CE010E94C618F80181938F012196C03281
:100AE000D105B1F7DF91CF911F910F910895EF924A
:100AF000FF920F931F93CF93DF931F92CDB7DEB773
:100B000063E471E085E892E00E94741206E011E06F
:100B100038E0E32EF12CF80161918F01C701698360
:100B20000E94C6186981681719F0C7010E94CE1883
:100B3000FFEFEF1AFF0A80E2E816F10461F70F9069
:100B4000DF91CF911F910F91FF90EF900895CF9378
:100B5000DF9340E855E260E070E085E892E00E94B3
:100B6000EF1044E650E060E070E085E892E00E941B
:100B7000CD130E9448058DE392E00E94F10BC6E878
:100B8000D1E062E089910E94760F81E0C939D807EF
:100B9000C1F761E08DE00E94760F0E943A04C09197
:100BA0001D010E9437058C2F90E090931F018093C8
:100BB0001E0180E1809381001092800021E020934B
:100BC000340280E49CE9909336028093350290933E
:100BD00087008093860081E18093810082E894E021
:100BE000909333028093320220936F001092810021
:100BF000109285001092840080913402806180936D
:100C00008100DF91CF9108950F931F93CF93DF93CE
:100C100085E892E00E943810892B09F423C585E805
:100C200092E00E9448109927FC01E156F109E33156
:100C3000F10570F7EA5AFF4F0C94A6186EE575E0BF
:100C400085E892E00E94621269E375E085E892E02F
:100C50000E9462126FE075E085E892E00E946212E5
:100C60006DEF74E085E892E00E9462126BEE74E032
:100C700085E892E00E94621269ED74E085E892E0F6
:100C80000E94621267EC74E085E892E00E946212B2
:100C900065EB74E085E892E00E94621269E974E015
:100CA00085E892E00E9462124AE050E060E070E065
:100CB00085E892E00E9429136BE874E085E892E0F1
:100CC0000E9432124AE050E061E070E085E892E074
:100CD0000E9429136DE774E085E892E00E943212C9
:100CE0004AE050E062E070E085E892E00E9429135B
:100CF0006FE674E085E892E00E9432124AE050E02C
:100D000063E070E085E892E00E94291361E674E0F8
:100D100085E892E00E9432126FEB71E085E892E084
:100D20000E9474124AE050E064E070E085E892E0CE
:100D30000E94291363E574E085E892E00E94321274
:100D40004AE050E065E070E085E892E00E942913F7
:100D500065E474E085E892E00E9432124AE050E0D7
:100D600066E070E085E892E00E94291367E374E092
:100D700085E892E00E9432124AE050E067E070E0BD
:100D800085E892E00E94291369E274E085E892E028
:100D90000E9432124AE050E068E070E085E892E09C
:100DA0000E9429136BE174E085E892E00E94321200
:100DB0004AE050E069E070E085E892E00E94291383
:100DC0006DE074E085E892E00E9432126FEB71E012
:100DD00085E892E00E9474124AE050E06AE070E018
:100DE00085E892E00E94291360E074E085E892E0D3
:100DF0000E9432124AE050E06BE070E085E892E039
:100E00000E94291363EF73E085E892E00E9432129A
:100E10004AE050E06CE070E085E892E00E9429131F
:100E200066EE73E085E892E00E9432124AE050E0FC
:100E30006DE070E085E892E00E94291369ED73E0AF
:100E400085E892E00E9432126FEB71E085E892E053
:100E50000E9474124AE050E06EE070E085E892E093
:100E60000E9429136CEC73E085E892E00E94321234
:100E70004AE050E06FE070E085E892E00E942913BC
:100E80006FEB73E085E892E00E9432126FEB71E045
:100E900085E892E00E9474124AE050E060E170E060
:100EA00085E892E00E94291362EB73E085E892E006
:100EB0000E9432124AE050E061E170E085E892E081
:100EC0000E94291365EA73E085E892E00E943212DD
:100ED0004AE050E062E170E085E892E00E94291368
:100EE00068E973E085E892E00E9432126AE773E0F5
:100EF00085E892E00E9462124AE050E06CED70E0FA
:100F000085E892E00E9429136DE673E085E892E09F
:100F10000E9432124AE050E06DED70E085E892E008
:100F20000E94291360E673E085E892E00E94321285
:100F30004AE050E06EED70E085E892E00E942913EF
:100F400063E573E085E892E00E9432124AE050E0E7
:100F50006FED70E085E892E00E94291366E473E08B
:100F600085E892E00E9432126FEB71E085E892E032
:100F70000E947412C6EED0E04AE050E0BE0185E85F
:100F800092E00E94291362E571E085E892E00E94F8
:100F900055124AE050E0BE01665E710985E892E0B4
:100FA0000E942913C03FD10534F46CE571E085E857
:100FB00092E00E9455126BE571E085E892E00E9494
:100FC0005512CE01019783709927892B31F46FEB6D
:100FD00071E085E892E00E9474122196C63FD10527
:100FE00059F66FEB71E085E892E00E9474124AE0D6
:100FF00050E06AEF70E085E892E00E94291366E312
:1010000073E085E892E00E9432124AE050E06BEF14
:1010100070E085E892E00E94291366E273E085E8BB
:1010200092E00E9432126FEB71E085E892E00E943C
:1010300074124AE050E06AED70E085E892E00E94A8
:1010400029136AE173E085E892E00E9432124AE0D7
:1010500050E069ED70E085E892E00E9429136EE0AF
:1010600073E085E892E00E9432124AE050E068EDB9
:1010700070E085E892E00E94291362E073E085E861
:1010800092E00E9432124AE050E067ED70E085E89D
:1010900092E00E94291366EF72E085E892E00E94D8
:1010A00032126FEB71E085E892E00E9474124AE020
:1010B00050E060E870E085E892E00E9429136AEE53
:1010C00072E085E892E00E9432124AE050E061E866
:1010D00070E085E892E00E9429136EED72E085E8E9
:1010E00092E00E9432124AE050E062E870E085E847
:1010F00092E00E94291362ED72E085E892E00E947E
:1011000032124AE050E063E870E085E892E00E9425
:10111000291366EC72E085E892E00E9432126FEBD0
:1011200071E085E892E00E9474124AE050E064E8C1
:1011300070E085E892E00E9429136AEB72E085E88E
:1011400092E00E9432124AE050E065E870E085E8E3
:1011500092E00E9429136EEA72E085E892E00E9414
:1011600032124AE050E066E870E085E892E00E94C2
:10117000291362EA72E085E892E00E9432124AE0A6
:1011800050E067E870E085E892E00E94291366E984
:1011900072E085E892E00E9432126FEB71E085E820
:1011A00092E00E9474124AE050E062EB70E085E841
:1011B00092E00E9429136AE872E085E892E00E94BA
:1011C00032124AE050E063EB70E085E892E00E9462
:1011D00029136EE772E085E892E00E9432124AE03D
:1011E00050E060EB70E085E892E00E94291362E72E
:1011F00072E085E892E00E9432124AE050E061EB32
:1012000070E085E892E00E94291366E672E085E8C6
:1012100092E00E9432126FEB71E085E892E00E944A
:1012200074124AE050E061ED70E085E892E00E94BF
:1012300029136AE572E085E892E00E9432124AE0E2
:1012400050E064ED70E085E892E00E9429136EE4BE
:1012500072E085E892E00E9432124AE050E063EDCD
:1012600070E085E892E00E94291362E472E085E86C
:1012700092E00E9432124AE050E066ED70E085E8AC
:1012800092E00E94291366E372E085E892E00E94F2
:1012900032126FEB71E085E892E00E9474124AE02E
:1012A00050E062ED70E085E892E00E9429136AE266
:1012B00072E085E892E00E9432124AE050E065ED6B
:1012C00070E085E892E00E9429136EE172E085E803
:1012D00092E00E9432124AE050E061EC70E085E852
:1012E00092E00E94291362E172E085E892E00E9498
:1012F00032124AE050E06DE070E085E892E00E9432
:10130000291365E072E085E892E00E9432126FEBEB
:1013100071E085E892E00E9474124AE050E062ECCD
:1013200070E085E892E00E94291369EF71E085E89A
:1013300092E00E9432124AE050E063EC70E085E8EF
:1013400092E00E9429136DEE71E085E892E00E9420
:1013500032124AE050E064EC70E085E892E00E94CE
:10136000291361EE71E085E892E00E9432124AE0B2
:1013700050E065EC70E085E892E00E94291365ED8D
:1013800071E085E892E00E9432126FEB71E085E82F
:1013900092E00E9474124AE050E066EC70E085E84A
:1013A00092E00E94291369EC71E085E892E00E94C6
:1013B00032124AE050E067EC70E085E892E00E946B
:1013C00029136DEB71E085E892E00E9432124AE049
:1013D00050E068EC70E085E892E00E94291361EB30
:1013E00071E085E892E00E9432124AE050E069EC38
:1013F00070E085E892E00E94291365EA71E085E8D3
:1014000092E00E9432126FEB71E085E892E00E9458
:1014100074124AE050E06AEC70E085E892E00E94C5
:10142000291369E971E085E892E00E9432124AE0EE
:1014300050E06BEC70E085E892E00E9429136DE8C3
:1014400071E085E892E00E9432124AE050E06CECD4
:1014500070E085E892E00E94291361E871E085E878
:1014600092E00E9432124AE050E06DEC70E085E8B4
:1014700092E00E94291365E771E085E892E00E94FE
:1014800032126FEB71E085E892E00E9474126FEB0C
:1014900071E085E892E00E947412C1E2D0E04AE077
:1014A00050E0BE0185E892E00E942913C436D105C0
:1014B00034F46CE571E085E892E00E94551261E732
:1014C00071E085E892E00E9432126C2F85E892E08C
:1014D0000E94571269E671E085E892E00E9432129C
:1014E000CE0183709927892B31F46FEB71E085E889
:1014F00092E00E9474122196CF37D10581F66FEBEE
:1015000071E085E892E00E94741282CBE3E7F1E09B
:10151000AAE0B1E081918D9381E0E638F807D1F738
:1015200069E571E094C0E0E6F1E0AAE0B1E0819104
:101530008D9381E0E337F807D1F76AE471E087C063
:101540006EE571E085E892E00E945512CAE0D1E0B4
:101550006CE571E085E892E00E94551269914AE0DD
:1015600050E085E892E00E943E1381E0CD31D8073B
:1015700079F7C5CFC0E085E892E00E94481041E0CD
:1015800060E070E085E892E00E94D313662339F0B2
:10159000EC2FF0E0EA5FFE4F6483CF5FECCFCC230B
:1015A00081F063E471E085E892E00E9432124AE043
:1015B00050E06C2F85E892E00E943E136BE371E0EF
:1015C00046C06AE171E043C085E892E00E9448109D
:1015D00041E060E070E085E892E00E94D313062FBE
:1015E00085E892E00E94481041E060E070E085E804
:1015F00092E00E94D313162F033138F5662329F1A8
:10160000C02FD0E0CA5FDE4F6C818FE492E00E9471
:10161000960C1C8362E171E085E892E00E94321230
:101620004AE050E0602F85E892E00E943E136CE0B3
:1016300071E085E892E00E9432124AE050E0612FAA
:1016400085E892E00E944513E3CA60EF70E085E808
:1016500092E00E946212DCCA0E947705D9CA0E94F9
:101660004805D6CA85E00E94E50F21E0892B09F0E4
:1016700020E080912D02281769F020932D0222236B
:1016800039F00E94DB0310921F0110921E0102C06C
:101690000E94E403DF91CF911F910F910C944E04AF
:1016A0001F920F920FB60F9211242F933F934F93D7
:1016B0005F936F937F938F939F93AF93BF93EF93BA
:1016C000FF93E0913202F09133020995FF91EF917F
:1016D000BF91AF919F918F917F916F915F914F914A
:1016E0003F912F910F900FBE0F901F901895CF93A1
:1016F000DF93EC0180914102811113C010923802F6
:10170000109237028DE695E090933A028093390269
:1017100082E390E090933C0280933B0281E08093CF
:1017200041020E94340E67E372E00E94C50D1882E8
:1017300019821B821A82DF91CF9108950F931F9314
:10174000FC01A62F82819381411113C001E010E0BA
:1017500020E030E0062E04C0000F111F221F331FAF
:101760000A94D2F700951095082319231383028356
:101770000FC041E050E060E070E004C0440F551F2E
:10178000661F771FAA95D2F7482B592B53834283A4
:101790001F910F910895FC0160830895FC016183FE
:1017A0000895CF93DF9300D000D0CDB7DEB7FC0112
:1017B0009281838199838A8380818B8381818C83C9
:1017C0000E94340E24E030E0AE014F5F5F4F63E0D3
:1017D0000E94E20D0F900F900F900F90DF91CF912C
:1017E00008950C94D10B8DE392E00C94770BFC01DF
:1017F000138212822DE931E03183208380915B02D4
:10180000811113C010924A02109249028FE995E0AB
:1018100090934C0280934B028FE290E090934E02A3
:1018200080934D0281E080935B020E94340E69E454
:1018300072E00C94C50DCF93DF93EB010E94340E40
:1018400028E030E0AE0162E0DF91CF910C94E20D30
:10185000CF93DF93DC01683818F0E8E7E60F25C086
:10186000E62FF0E067FF11C0E058F10981E090E059
:1018700001C0880FEA95EAF714969C911497982B6B
:1018800014969C931497E0E010C0E253FA4FE49151
:10189000EE2309F440C0E7FF08C014968C9114971A
:1018A000826014968C931497EF7716968C91169706
:1018B0008E1741F117968C9117978E1719F118967C
:1018C0008C9118978E17F1F019968C9119978E17A5
:1018D000C9F01A968C911A978E17A1F01B968C91CD
:1018E0001B978E1779F080E090E0ED01C80FD91FAB
:1018F0002E81211102C0EE8305C00196863091052C
:10190000A1F709C0BD016C5F7F4FCD010E941B0C88
:1019100081E090E008C081E090E013969C938E9364
:10192000129780E090E0DF91CF910895683818F029
:10193000E8E7E60F25C0E62FF0E067FF12C0E058A9
:10194000F10921E030E001C0220FEA95EAF7209585
:10195000DC0114963C911497322314963C93E0E0FA
:101960000FC0E253FA4FE491EE2329F1E7FF08C0DC
:10197000DC0114962C9114972D7F14962C93EF77FD
:1019800020E030E0EE2351F0DC01A20FB31F1696E9
:101990004C9116974E1302C016961C922F5F3F4F24
:1019A0002630310579F7BC016C5F7F4F0E941B0C1C
:1019B00081E090E0089580E090E00895FF920F9319
:1019C0001F93CF93DF93EC01F62E0E94280C8C011D
:1019D0006F2DCE010E94960CC8019927DF91CF91FF
:1019E0001F910F91FF9008958FE492E00C94F70BF4
:1019F000FB0128E4208329E4218324E42283DC0101
:101A00001D962C911D972F702F5B23831D968D9112
:101A10009C911E9724E0969587952A95E1F78F7003
:101A20008F5B848385E00895CF93DF93CDB7DEB7D6
:101A300069970FB6F894DEBF0FBECDBFFC01DB0186
:101A40008C918F5F8C93BE016F5F7F4F89E1DB01CB
:101A50001D928A95E9F799E0998384E08A8321E0D1
:101A60002D8383E08E839A8791E29B872C872D8735
:101A70002F8792E2988B97E09B8B95E09C8B8E8BC7
:101A800080E490E0988F8F8B298F82818B8395855E
:101A90008685998B8A8B838180688D8B49E150E0A4
:101AA00080E00E94201669960FB6F894DEBF0FBE44
:101AB000CDBFDF91CF910895DC01FB0112962C91EF
:101AC000129730E08481958128173907D1F49181EC
:101AD0008081813A31F481E0913091F0933089F442
:101AE00011C0813271F49B3021F482811F968C9356
:101AF00005C09A3031F4828150968C9381E008952C
:101B0000089580E00895EF92FF920F931F93CF9373
:101B1000DF937C01FB018081813871F58381823202
:101B200059F5D70112968C91129790E02481358156
:101B30002817390709F51B96CD91DC911C9700E019
:101B400010E0209789F04C815D816A817B8180E87B
:101B50000E9420168F3FBFEF9B0759F0080F191FF7
:101B60000990D881C02DEDCF81E0F7018787C801AA
:101B700005C08FEF9FEF02C080E090E0DF91CF9132
:101B80001F910F91FF90EF900895FC01A385B485FC
:101B9000109719F47487638709C08D919C911197F0
:101BA000009711F0DC01F9CF6D937C9385859685C4
:101BB000DB0114962D913C911597820F931F968708
:101BC00085870895AF92BF92CF92DF92EF92FF92F6
:101BD0000F931F93CF93DF931F92CDB7DEB77C0196
:101BE00069836A01590141E050E0BE016F5F7F4F98
:101BF000FC0183810E9485158C0197FD0BC0F701C4
:101C00008381A501B60180640E94851597FD02C0FD
:101C1000800F911F0F90DF91CF911F910F91FF9037
:101C2000EF90DF90CF90BF90AF900895CF93DF9368
:101C3000EC0121E02C832D830A969F838E831986E5
:101C4000188685EA91E0998388831C861B861E8608
:101C50001D862F87288B81EC8A870E94E011BE01A8
:101C6000DF91CF910C94991180917402811107C07A
:101C700083E692E00E94160E81E08093740283E670
:101C800092E008951F920F920FB60F9211242F9396
:101C90003F938F939F93AF93BF9380917D029091D9
:101CA0007E02A0917F02B091800230917C0223E0FD
:101CB000230F2D3720F40196A11DB11D05C026E884
:101CC000230F0296A11DB11D20937C0280937D02FB
:101CD00090937E02A0937F02B09380028091810254
:101CE00090918202A0918302B09184020196A11D7D
:101CF000B11D8093810290938202A0938302B093DE
:101D00008402BF91AF919F918F913F912F910F903E
:101D10000FBE0F901F9018952FB7F89460917D0219
:101D200070917E0280917F02909180022FBF089572
:101D30003FB7F8948091810290918202A091830232
:101D4000B091840226B5A89B05C02F3F19F00196DB
:101D5000A11DB11D3FBF6627782F892F9A2F620FD3
:101D6000711D811D911D42E0660F771F881F991F0D
:101D70004A95D1F70895CF92DF92EF92FF92CF93D9
:101D8000DF936B017C010E94980EEB01C114D1041A
:101D9000E104F10489F00E9483180E94980E6C1BE4
:101DA0007D0B683E734090F381E0C81AD108E108CA
:101DB000F108C851DC4FEACFDF91CF91FF90EF904F
:101DC000DF90CF900895789484B5826084BD84B507
:101DD000816084BD85B5826085BD85B5816085BD26
:101DE000EEE6F0E0808181608083E1E8F0E010823F
:101DF000808182608083808181608083E0E8F0E080
:101E0000808181608083E1E9F0E08081826080836D
:101E1000808181608083E0E9F0E08081816080835F
:101E2000E1ECF0E080818460808380818260808347
:101E3000808181608083E3ECF0E080818160808339
:101E4000E0ECF0E0808182608083E2ECF0E0808171
:101E500081608083EAE7F0E0808184608083808114
:101E600082608083808181608083808180688083BC
:101E7000089590E0FC013197EF30F105B0F5E75996
:101E8000FF4F0C94A618809180008F7703C080913B
:101E900080008F7D80938000089580918000877FEF
:101EA000F9CF84B58F7702C084B58F7D84BD089546
:101EB000809190008F7707C0809190008F7D03C044
:101EC00080919000877F8093900008958091C0005A
:101ED0008F7703C08091C0008F7D8093C0000895EC
:101EE0008091C200877F8093C2000895CF93DF93D3
:101EF00090E0FC01E359F94F2491FC01E457F94FBC
:101F00008491882349F190E0880F991FFC01E953DF
:101F1000F94FA591B4918754994FFC01C591D49183
:101F20009FB7611108C0F8948C91209582238C93FF
:101F3000888182230AC0623051F4F8948C91322F48
:101F4000309583238C938881822B888304C0F894F6
:101F50008C91822B8C939FBFDF91CF9108950F932B
:101F60001F93CF93DF931F92CDB7DEB7282F30E0BA
:101F7000F901E25BF94F8491F901E359F94F1491AA
:101F8000F901E457F94F04910023C9F0882321F0A7
:101F900069830E94390F6981E02FF0E0EE0FFF1F87
:101FA000E754F94FA591B4919FB7F8948C916111C2
:101FB00003C01095812301C0812B8C939FBF0F908C
:101FC000DF91CF911F910F910895CF93DF93282F29
:101FD00030E0F901E25BF94F8491F901E359F94FDF
:101FE000D491F901E457F94FC491CC2391F08111B8
:101FF0000E94390FEC2FF0E0EE0FFF1FE555F94F6F
:10200000A591B4912C912D2381E090E021F480E002
:1020100002C080E090E0DF91CF910895CF93DF93ED
:102020001F92CDB7DEB76983DC01ED91FC91028090
:10203000F381E02D41E050E0BE016F5F7F4F0995D5
:102040000F90DF91CF910895CF93DF93EC018C85B2
:102050009D8597FF05C082E00E9454159D878C875F
:102060008C859D85DF91CF91089583E00C94CF17E7
:10207000FC018485958597FD06C082E00E94FC14D2
:1020800090E00196089582E00E94FC1490E008958B
:10209000FC018485958597FD05C02FEF3FEF3587BF
:1020A0002487089582E00C945415CF93DF93EC01BC
:1020B00080912B01882331F083E00E94851518164A
:1020C000190634F081E090E09B838A8380E090E001
:1020D000DF91CF910895FC0120812E5F208342E49F
:1020E00050E065ED76E080E80C942016FC0121813B
:1020F0008081813A59F4213209F05CC047E050E018
:1021000064E271E080E00E94201667C0813209F02D
:1021100051C0233289F4838190E0982F882732813F
:10212000832BA0E0B0E08093200190932101A09345
:102130002201B09323010FC0203239F467E070E030
:1021400084E291E00E9451160AC0223221F4828179
:1021500080932B0104C02D7F203209F03EC0809176
:10216000240190912501A0912601B0912701803B87
:102170009440A105B10501F580912B0180FD1CC0A3
:1021800080910008909101089093FF0A8093FE0AC5
:1021900087E797E790930108809300082BE088E198
:1021A00090E00FB6F894A895809360000FBE20933E
:1021B000600013C080E0089588E10FB6F894809322
:1021C0006000109260000FBEA8958091FE0A909169
:1021D000FF0A909301088093000881E008952FEF93
:1021E0003FEFFC01358724870895109288021092F2
:1021F000870288EE93E0A0E0B0E08093890290939C
:102200008A02A0938B02B0938C0281EB91E09093B1
:102210008602809385028FEF9FEF909392028093C6
:1022200091020895EF92FF920F931F93CF93DF9344
:102230007B01FC01C281D38100E010E0209781F096
:10224000E881F9810280F381E02DB701CE01099583
:1022500097FD08C0080F191F0884D985C02DEECF3F
:10226000C80102C08FEF9FEFDF91CF911F910F91B7
:10227000FF90EF9008950F931F93CF93DF938B01FF
:10228000FC01C281D381209771F0E881F98104803B
:10229000F581E02DB801CE010995009731F408844D
:1022A000D985C02DF0CF80E090E0DF91CF911F91D4
:1022B0000F9108950F931F93CF93DF938B01FC0130
:1022C000C281D381209771F0E881F9810680F7817E
:1022D000E02DB801CE010995080F111D0884D9859C
:1022E000C02DF0CFF8011082DF91CF911F910F9197
:1022F00008950F931F93CF93DF938B01FC01C2814D
:10230000D381209771F0E881F9810190F081E02D6F
:10231000B801CE010995811106C00884D985C02D68
:10232000F0CF80E001C081E0DF91CF911F910F914C
:102330000895CF93DF93FC01DB01218114968C91EA
:10234000149790E0820F911D0897B4F5C281D38154
:10235000209719F47383628308C088859985009754
:1023600011F0EC01FACFB987A887808112968C937F
:102370001297818113968C931397808115969C9167
:102380001597890F808380E014969C911497891784
:1023900088F41696CD91DC911797C80FD11D9881BE
:1023A000C181D0E0C45DDE4F988391819F5F9183AE
:1023B0008F5FEACF81E001C080E0DF91CF91089587
:1023C0008091D90281110DC082E08093D50284E012
:1023D0008093D6021092D8021092D70281E08093A7
:1023E000D90285ED92E00895CF92DF92EF92FF92AD
:1023F0000F931F93CF93DF937C016A01EB0100E001
:1024000010E00C151D0571F06991D701ED91FC915B
:102410000190F081E02DC7010995892B19F00F5F1C
:102420001F4FEFCFC801DF91CF911F910F91FF9008
:10243000EF90DF90CF9008956115710581F0DB0179
:102440000D900020E9F7AD0141505109461B570B93
:10245000DC01ED91FC910280F381E02D099480E094
:1024600090E00895EF92FF920F931F93CF93DF9325
:102470008C017B01C0E0D0E0F701EC0FFD1F6491FF
:10248000662359F0F801A081B181ED91FC91C8015A
:102490000995892B11F02196EFCFCE01DF91CF91D5
:1024A0001F910F91FF90EF9008950C941C12DC0186
:1024B000ED91FC910190F081E02D09946DEB71E0BC
:1024C0000C941C120F931F93CF93DF93EC010E9487
:1024D00032128C01CE010E945E12800F911FDF919B
:1024E000CF911F910F9108950F931F93CF93DF9377
:1024F000EC010E941C128C01CE010E945E12800F22
:10250000911FDF91CF911F910F9108958F929F920C
:10251000AF92BF92CF92DF92EF92FF920F931F93F1
:10252000CF93DF93CDB7DEB7A1970FB6F894DEBF98
:102530000FBECDBF7C01C42EE52FCB01D22E19A238
:1025400021E02D1510F02AE0D22E8E010F5D1F4FD5
:102550008D2C912CA12CB12C6C2D7E2FA5019401DA
:102560000E9484188C2DD29E8019112401501109CB
:102570008A3014F4805D01C0895CF80180832115E4
:1025800031054105510521F0C22EE32FCA01E4CFE8
:10259000B801C7010E941C12A1960FB6F894DEBFC5
:1025A0000FBECDBFDF91CF911F910F91FF90EF90A4
:1025B000DF90CF90BF90AF909F908F900895CF9273
:1025C000DF92EF92FF920F931F93CF93DF93EC0173
:1025D0006A017B012115310579F4E881F9810190C7
:1025E000F081E02D642FDF91CF911F910F91FF902B
:1025F000EF90DF90CF9009942A303105E9F477FF0E
:102600001AC06DE20E9457128C0144275527BA0167
:102610004C195D096E097F092AE0CE010E948612DD
:10262000800F911FDF91CF911F910F91FF90EF903D
:10263000DF90CF9008952AE0B701A601CE01DF9187
:10264000CF911F910F91FF90EF90DF90CF900C945E
:1026500086129A01AB01662757FD6095762F0C9480
:10266000DF122115310541F4DC01ED91FC9101905F
:10267000F081E02D642F09940C9486129A01462F64
:1026800050E060E070E00C9431130F931F93CF93F0
:10269000DF93EC019A01462F50E060E070E00E9469
:1026A00031138C01CE010E945E12800F911FDF91C9
:1026B000CF911F910F9108950F931F93CF93DF93A5
:1026C000EC010E948C0E688779878A879B87E88156
:1026D000F9810084F185E02DCE01099597FF15C0A1
:1026E0000E948C0E088519852A853B85601B710B1D
:1026F000820B930B0C811D812E813F816017710726
:102700008207930720F38FEF9FEFDF91CF911F9107
:102710000F910895FF920F931F93CF93DF93EC01D6
:102720008B01F42ECE010E945C139C0197FD28C002
:102730008D32910519F1C0970A9710F1FF2019F019
:102740002E323105F9F001301105F9F00230110592
:1027500069F42D30310551F034F42950310922301B
:10276000310520F012C02032310579F4E881F98179
:102770000680F781E02DCE010995D4CF8DE203C00C
:10278000C90105C08EE290E002C08FEF9FEFDF919C
:10279000CF911F910F91FF900895FC0144835583C1
:1027A000668377830895CF92DF92FF920F931F93F2
:1027B000CF93DF9300D000D0CDB7DEB76C01042FEC
:1027C00040E00E948A13FC0197FD4BC020E030E0FE
:1027D000A901F12C112707FD1095E017F107E9F089
:1027E000ED32F105C1F0CF01C0970A97B0F4AAE02D
:1027F000B0E00E94AC189B01AC01CF01AA2797FD65
:10280000A095BA2F280F391F4A1F5B1F205331098B
:102810004109510902C0FF24F394D601ED91FC91C6
:102820000680F781E02DC60129833A834B835C83C0
:102830000995C6010E945C13FC01C09729813A8169
:102840004B815C810A9748F2E017F10731F2FF20D3
:1028500061F066277727CB01621B730B840B950B06
:1028600006C060E070E0CB0102C0CA01B9010F9060
:102870000F900F900F90DF91CF911F910F91FF90CC
:10288000DF90CF900895615030F02091F100FC016D
:1028900020830196F8CF289884E68093EA02089571
:1028A0004091E5025091E6022091E3023091E4026A
:1028B00042175307B4F49091E8009570E1F39091BA
:1028C000E80092FD19C08093F1008091E50290919B
:1028D000E60201968F739927892B19F48EEF809366
:1028E000E8008091E5029091E60201969093E6025D
:1028F0008093E50281E0089580E00895CF92DF9211
:10290000EF92FF920F931F93CF93DF931F92CDB758
:10291000DEB7082F162FF42E862F880F8E5F99832F
:102920000E94501483E00E945014E02EC02E998122
:10293000D92E8C2D8E19811798F4F601F7FE02C05E
:10294000849101C080810E945014082F80E00E9471
:1029500050148023FFEFCF1ADF0A8111EACF01C0A4
:1029600081E00F90DF91CF911F910F91FF90EF9039
:10297000DF90CF9008958091D70081608093D70039
:1029800080EA8093D80089B5806189BD89B582606D
:1029900089BD09B400FEFDCF61E070E080E090E009
:1029A0000E94BB0E8091D8008F7C80618093D800FC
:1029B0008091E000807F8093E0000895CF93DF93C3
:1029C0001F92CDB7DEB71982CE0101960E946B101F
:1029D0000E94E011BE016F5F7F4F0E94121189813A
:1029E0000F90DF91CF9108952FB7FC012083F894C9
:1029F00067706093E9000895CF93DF931F92CDB77E
:102A0000DEB7682FCE0101960E94F4148091F20087
:102A100099819FBF0F90DF91CF910895FF920F93FF
:102A20001F93CF93DF9300D0CDB7DEB7F62E8A0188
:102A30009091E902992311F057FF03C08FEF9FEFA8
:102A40002BC0682FCE0101967A830E94F4148091E6
:102A5000F20090E0A8017A81801791070CF4AC0194
:102A6000EF2DF72FF40E84E6FE1639F028988093A8
:102A7000EA029091F1009193F7CF4115510521F0B1
:102A80008091F200882321F089818FBFCA0104C0A0
:102A90008BE68093E800F8CF0F900F90DF91CF91F5
:102AA0001F910F91FF900895CF93DF931F92CDB7A1
:102AB000DEB741E050E0BE016F5F7F4F0E940E1510
:102AC000019719F4898190E002C08FEF9FEF0F907A
:102AD000DF91CF910895CF93DF931F92CDB7DEB7EB
:102AE000682FCE0101960E94F4149091E800892F7E
:102AF000807295FF04C09091F20080E4891B998157
:102B00009FBF0F90DF91CF9108956F927F928F9228
:102B10009F92AF92BF92CF92DF92EF92FF920F936C
:102B20001F93CF93DF931F92CDB7DEB7782E7B0133
:102B3000C42EB52E8091E902882369F0042F152F49
:102B40008AEFD82E872D8072982E9AE3A92E872D92
:102B50008074882E11C08FEF9FEF57C0872D0E9481
:102B60006B15682E81110CC0DA94A9F361E070E056
:102B700080E090E00E94BB0E0115110579F73BC083
:102B8000282F30E0021713070CF4602E672DCE01BA
:102B900001960E94F4148091E80085FF29C0262D3B
:102BA00030E0021B130B992039F06A948FEF6816FE
:102BB000B1F01092F100F9CFF701862D77FE07C032
:102BC000815058F094919093F1003196F9CF815053
:102BD00020F091919093F100FACFE20EF31E8091D4
:102BE000E80085FF0FC00115110511F481100AC01E
:102BF00089818FBFC1CF5D9884E68093EB028C2DD5
:102C00009B2D03C0A092E800F3CF0F90DF91CF91EE
:102C10001F910F91FF90EF90DF90CF90BF90AF90FA
:102C20009F908F907F906F9008951092E90010927E
:102C3000E6021092E5029093E4028093E302089585
:102C4000CF92DF92FF920F931F93CF93DF9300D029
:102C5000CDB7DEB7F82E8A016B0101151105B1F071
:102C6000F601F7FE02C0849101C0808149835A8336
:102C70000E94501401501109FFEFCF1ADF0A498159
:102C80005A818111EACF8FEF9FEF01C0CA010F90E7
:102C90000F90DF91CF911F910F91FF90DF90CF9018
:102CA00008951F93CF93DF931F92CDB7DEB7162FF2
:102CB0002091E80022FFFCCF612F79830E9443140A
:102CC0008BEF8093E800812F7981972F0F90DF9110
:102CD000CF911F9108951F920F920FB60F9211245A
:102CE000DF92EF92FF920F931F932F933F934F9397
:102CF0005F936F937F938F939F93AF93BF93EF9364
:102D0000FF93CF93DF93CDB7DEB76C97DEBFCDBF18
:102D10001092E9008091E80083FF23C168E0CE01B2
:102D200045960E94431482EF8093E8003D8937FF67
:102D300005C08091E80080FFFCCF03C08EEF809338
:102D4000E800832F807609F0F0C02E894F89D88C57
:102D500021110CC0303829F48091E8028093F100F1
:102D600002C01092F1001092F100F4C0842F90E0A4
:102D70009D29213049F43111EDC0019709F0EAC0D5
:102D80008091E8028D7F0AC0233059F43111E2C0EE
:102D9000019709F0DFC08091E80282608093E80229
:102DA000D9C0253041F48091E80080FFFCCF406815
:102DB0004093E300CFC0263009F08DC0EB8CFC8C33
:102DC00022E0D2122CC080E090E00E9415160E94F2
:102DD000DE1499E08E010F5F1F4FF801292F119229
:102DE0002A95E9F79983DA8291E09E8390EA9887A1
:102DF0009AEF99872091E5023091E602275F3F4FD5
:102E00003C832B838D83C7010E94151649E050E057
:102E1000B80180E00E9420160E94DE149BC0C7010A
:102E20000E9415160E94E011BE016B5E7F4F0E944A
:102E30003B11009719F00CF08DC090C081E0D812C2
:102E40000EC08B8D9C8D089719F481E08093E2026F
:102E50008091E20281112FC069E277E031C0E3E0A6
:102E6000DE127CC08F89882349F1823029F440E842
:102E700060E187E497E01CC0813029F440E86BE012
:102E80008BE397E015C0833009F068C00E94E01121
:102E90008E010F5F1F4FB8010E945A11F801019077
:102EA0000020E9F73197E01BF10B40E06E2FC801DD
:102EB0000E947E144DC067E177E002C068E577E0CC
:102EC0006115710509F44AC0FB01449150E080E8A6
:102ED0000E9420163FC0273009F440C0283021F45A
:102EE00081E08093F10036C02930A1F53370B1F54F
:102EF000EDE2F1E081E021E036E39081992361F099
:102F00008093E9002093EB0091919093EC00309333
:102F1000ED008F5F873089F78EE78093EA0010928B
:102F2000EA008F898093E90215C08B8D9C8D0E94E9
:102F30001516898D811105C0CE0145960E94761027
:102F400007C00E94E011BE016B5E7F4F0E947911A5
:102F5000882321F08EEF8093E80003C081E2809304
:102F6000EB006C960FB6F894DEBF0FBECDBFDF91BD
:102F7000CF91FF91EF91BF91AF919F918F917F91F1
:102F80006F915F914F913F912F911F910F91FF9002
:102F9000EF90DF900F900FBE0F901F9018958093C9
:102FA000E9008091F200882319F08AE38093E80019
:102FB00008951F920F920FB60F9211242F933F93F3
:102FC0004F935F936F937F938F939F93AF93BF9331
:102FD000CF93EF93FF93C091E1008091E100837F55
:102FE0008093E1008093E100C3FF0FC01092E900DD
:102FF00081E08093EB001092EC0082E38093ED007F
:103000001092E90288E08093F000C2FF19C083E0CB
:103010000E94CF178091EB02882339F08091EB0258
:1030200081508093EB02882389F18091EA02882302
:1030300039F08091EA0281508093EA02882341F1BD
:10304000C4FF10C08091E2008E7E81608093E20018
:103050008091E1008F7E8093E1008091E7028E7E77
:10306000806111C0C0FF16C08091E2008E7E806139
:103070008093E2008091E1008E7E8093E100809158
:10308000E7028E7E81608093E70204C05D9ACDCF17
:10309000289AD6CFFF91EF91CF91BF91AF919F9199
:1030A0008F917F916F915F914F913F912F910F90F1
:1030B0000FBE0F901F9018951092E9021092E8022F
:1030C0001092E7020E94BB14E1EEF0E080818E7E58
:1030D00080838DE08093E200559A209A08950895A8
:1030E0000E94E30E0E946F1881EE92E00E945C182D
:1030F0000E94A705C0E0D0E00E9404062097E1F3FB
:103100000E940000F9CF0895A1E21A2EAA1BBB1B52
:10311000FD010DC0AA1FBB1FEE1FFF1FA217B307A3
:10312000E407F50720F0A21BB30BE40BF50B661FB9
:10313000771F881F991F1A9469F76095709580957D
:1031400090959B01AC01BD01CF010895EE0FFF1FCB
:103150000590F491E02D09940E94B718A59F900D59
:10316000B49F900DA49F800D911D11240895A29FDE
:10317000B001B39FC001A39F700D811D1124911D4B
:10318000B29F700D811D1124911D0895F999FECFF4
:1031900092BD81BDF89A992780B50895262FF99997
:1031A000FECF1FBA92BD81BD20BD0FB6F894FA9A2A
:0C31B000F99A0FBE01960895F894FFCF25
:1031BC000000EC02800070636400DAD9D8D78082FA
:1031CC0020817A787363B0B17564696F70141800DC
:1031DC00FFFFFFFF00E100000000000000C1808144
:1031EC000000004C6F6164696E6720436F6E666906
:1031FC00672100536176696E6720436F6E6669675D
:10320C002100203D204770616420002020006100D7
:10321C00DCDDDEDFE6E7E8E9EAEBECEDEEEFF0F122
:10322C00F2F3F4DAD9D8D7808220817A787363B03C
:10323C00B1FAFB696F7006080A09171615141312F8
:10324C000C0400010302100E0F00000000DE0CF451
:10325C0011000000005C0D140D830DF80C00000033
:10326C00000E10551038104810241035100D0A009F
:0E327C006E616E00696E66006F7666002E0051
:00000001FF
