:100000000C94B3040C94DB040C94DB040C94DB041C
:100010000C94DB040C94DB040C94DB040C94DB04E4
:100020000C94DB040C94DB040C94DB1C0C946D1B13
:100030000C94DB040C94DB040C94DB040C94DB04C4
:100040000C94DB040C94DB040C94DB040C94DB04B4
:100050000C94DB0F0C94DB040C94DB040C94DC128A
:100060000C94DB040C94DB040C94DB040C94DB0494
:100070000C94DB040C94DB040C94DB040C94DB0484
:100080000C94DB040C94DB040C94DB040C94DB0474
:100090000C94DB040C94DB040C94DB040C94DB0464
:1000A0000C94DB040C94DB040C94DB042E1431144C
:1000B000201424142A1452145214521435143914CE
:1000C0003D144314471452144D14566F6C756D65EE
:1000D0003A2000566F6C756D653A20005573616764
:1000E000653A2062203C627574746F6E3E203C6BF2
:1000F0006579636F64653E203C6F7074696F6E61F3
:100100006C3A616C74313E203C6F7074696F6E6143
:100110006C3A616C74323E0020616C74323A20009B
:1001200020616C74313A200020746F3A2000426FD5
:10013000756E643A200055736167653A2061203C12
:100140006B6579636F64653E203C6B6579636F64B2
:10015000653E202E2E2E00206B65792873290042E3
:100160006F756E6420004C6F616465642044756136
:100170006C20416E616C6F67004C6F616465642038
:1001800047616D65706164004C6F61646564204B0C
:100190006579626F6172640045473A206D203120B5
:1001A0007420203D202053657420616C74312074CC
:1001B0006F202874296F67676C65206D6F64650018
:1001C00055736167653A206D203C3120616C743154
:1001D0002C203220616C74323E203C6820686F6CA9
:1001E000642C207420746F67676C653E00416C74EA
:1001F000322073657420746F20746F67676C6500BC
:10020000416C74322073657420746F20686F6C6465
:1002100000416C74312073657420746F20746F67B3
:10022000676C6500416C74312073657420746F20B5
:10023000686F6C64005069636164652062322E33BC
:1002400000536176696E6720436F6E6669672100AF
:10025000536176696E6720566F6C756D653A200044
:10026000536176696E6720507265736574732100FF
:100270004C6F6164696E6720436F6E666967210029
:100280002020202020202000203D2000203D20464E
:100290003132202020202000203D204631312020F6
:1002A00020202000203D204631302020202020002A
:1002B000203D20463920202020202000203D2046BF
:1002C0003820202020202000203D204637202020DC
:1002D00020202000203D2046362020202020200005
:1002E000203D20463520202020202000203D204693
:1002F0003420202020202000203D204633202020B4
:1003000020202000203D20463220202020202000D8
:10031000203D2046312020202020200020203D208C
:10032000537061636520202000203D20436170737D
:10033000204C6B2000203D20456E64202020202092
:1003400000203D20486F6D652020202000203D20AA
:10035000506720446F776E2000203D205067205565
:100360007020202000203D2044656C6574652020AD
:1003700000203D20496E73657274202000203D20CE
:10038000455343202020202000203D2052657475D5
:10039000726E202000203D20544142202020202049
:1003A00000203D204261636B7370632000203D207C
:1003B000522047554920202000203D205220416CEA
:1003C0007420202000203D2052205368696674204C
:1003D00000203D2052204374726C202000203D20DC
:1003E0004C2047554920202000203D204C20416CC6
:1003F0007420202000203D204C2053686966742022
:1004000000203D204C204374726C202000203D20B1
:1004100052204172726F772000203D204C204172A3
:10042000726F772000203D2044204172726F772048
:1004300000203D2055204172726F772000203D2022
:10044000416C74203220202000203D20416C74201B
:100450003120202000203D20566F6C202D202020B0
:1004600000203D20566F6C202B20202000203D20B6
:10047000477061642000203D204A6F792032205966
:10048000202000203D204A6F792032205820200073
:10049000203D204A6F7920312059202000203D2026
:1004A0004A6F7920312058202000203D204770617C
:1004B00064205A2D202000203D2047706164205A7E
:1004C0002B202000203D20477061642052202020F6
:1004D00000203D2047706164204C20202000203DFA
:1004E0002047706164204420202000203D20477078
:1004F00061642055202020000A3C6B6579636F649D
:10050000653E207461626C653A0A00203D205343C9
:100510004C4B202020202000203D204D49534F20CF
:100520002020202000203D204D4F53492020202016
:100530002000203D20566F6C20446F776E200020F5
:100540003D20566F6C20557020202000203D204516
:10055000736361706520202000203D20456E746526
:10056000722020202000203D20436F696E20202033
:10057000202000203D205374617274202020200030
:1005800020203D2042746E20362020202000202094
:100590003D2042746E2035202020200020203D2068
:1005A00042746E2034202020200020203D20427400
:1005B0006E2033202020200020203D2042746E2019
:1005C00032202020200020203D2042746E20312047
:1005D0002020200020203D204A6F7920522020201A
:1005E000200020203D204A6F79204C202020200030
:1005F00020203D204A6F7920442020202000202008
:100600003D204A6F79205520202020000A3C627549
:1006100074746F6E3E207461626C653A0A005175A5
:1006200069636B2047616D657061643A20206700E3
:10063000517569636B204B6579626F6172643A2012
:100640006B004C6F61643A20202020202020202065
:1006500020206C00536176653A2020202020202045
:100660002020202073004D6F64653A202020202038
:100670002020202020206D203C3120616C74312C02
:10068000203220616C74323E203C6820686F6C64BC
:100690002C207420746F67676C653E0044756D7024
:1006A00020616C6C3A2020202020202064004269C8
:1006B0006E6420616C6C3A20202020202020612074
:1006C0003C6B6579636F64653E203C6B6579636F55
:1006D00064653E202E2E2E0042696E642073696E82
:1006E000676C653A2020202062203C627574746F2C
:1006F0006E3E203C6B6579636F64653E203C6F7095
:1007000074696F6E616C3A616C74313E203C6F703D
:1007100074696F6E616C3A616C74323E000A5069A4
:100720006361646520436F6E666967004865616454
:1007300070686F6E65732052656D6F7665642C20EE
:10074000566F6C3A004865616470686F6E6573201F
:1007500044657465637465642C20566F6C3A203070
:100760000005010904A101850305091901291015D6
:1007700000250175019510550065008102050109EC
:10078000011581257FA1000930093109330934752C
:100790000895048102C0C005010906A10185020572
:1007A0000719E029E71500250175019508810295D3
:1007B000017508810395067508150025650507195B
:1007C0000029658100C000000000000000002A2B05
:1007D00028000000000000000000000000000000F1
:1007E0000000000000002C9EB4A0A1A2A434A6A783
:1007F000A5AE362D3738271E1F202122232425267B
:10080000B333B62EB7B89F8485868788898A8B8C48
:100810008D8E8F909192939495969798999A9B9C90
:100820009D2F3130A3AD350405060708090A0B0CCE
:100830000D0E0F101112131415161718191A1B1C70
:100840001DAFB1B0B500070605040100080A0B0C86
:100850000D090000000200090F0000030401000C54
:100860000000000000000000000000000000000088
:1008700000040802011040804010204080408008A1
:10088000020401804020100201108010204040200E
:100890000404040404030405020202020403020225
:1008A000020206060606060604040202020404000A
:1008B0000000002300260029002C002F000000006B
:1008C00000250028002B002E00310000000000242D
:1008D0000027002A002D003000080B000202020150
:1008E00000090400000102020000052400100105B7
:1008F00024010101042402060524060001070581E4
:100900000310004009040100020A0000000705026C
:10091000024000000705830240000012010002EFC0
:10092000020140412336800001010203011201004F
:100930000200000040412336800001010203014112
:10094000726475696E6F204C4C4300417264756926
:100950006E6F204C656F6E6172646F000403090452
:100960008D108E11E21511241FBECFEFDAE0DEBF2D
:10097000CDBF11E0A0E0B1E0E0ECFCE302C00590E7
:100980000D92A83FB107D9F723E0A8EFB1E001C06D
:100990001D92A332B207E1F719E0C6E6D9E004C020
:1009A0002297FE010E942A1EC036D107C9F70E9475
:1009B000C31D0C945E1E0C940000EF92FF920F93E7
:1009C0001F93CF93DF931F92CDB7DEB77C01FC015D
:1009D00000811181C80169830E94481E69816817DE
:1009E00019F0C8010E94501EC7010F90DF91CF91EE
:1009F0001F910F91FF90EF9008950F931F93CF9346
:100A0000DF9308E611E0C8E0D0E0CE010E94481E66
:100A1000F80121918F0190E0332727FD309582174F
:100A2000930731F42196C431D10579F781E001C0F3
:100A300080E0DF91CF911F910F9108958091520135
:100A40009091530190936302809362020895809184
:100A50006202909163028931910514F088E190E07F
:100A60009093530180935201089520916402309134
:100A7000650281E090E0409152015091530142178C
:100A8000530711F080E090E008950F931F93CF93E8
:100A900085E00E94C214C1E0892B09F0C0E080917A
:100AA0005101C81709F458C069E170E080E090E096
:100AB0000E94551385E00E94C21421E030E0892B8A
:100AC00011F020E030E08C2F90E02817390709F072
:100AD00043C00E94261300915E0210915F02209194
:100AE000600230916102601B710B820B930B693EB7
:100AF00073408105910580F1C09351010E94261336
:100B000060935E0270935F02809360029093610233
:100B1000CC2369F065E477E08BEB92E00E944F17FD
:100B20000E941E05109253011092520115C00E949E
:100B300027056CE277E08BEB92E00E941F17609133
:100B40005201709153014AE050E08BEB92E0CF915B
:100B50001F910F910C940218CF911F910F9108953E
:100B600080916402909165024897E9F08091640257
:100B7000909165020196909365028093640260E013
:100B80008BE00E948C1468E270E080E090E00E94AC
:100B9000551361E08BE00E948C1465E070E080E00A
:100BA00090E00C9455130895809164029091650231
:100BB000892BE9F0809164029091650201979093EE
:100BC00065028093640260E087E00E948C1468E212
:100BD00070E080E090E00E94551361E087E00E94A1
:100BE0008C1465E070E080E090E00C94551308955B
:100BF00061E08BE00E94531461E08BE00E948C1452
:100C000061E087E00E94531461E087E00E948C1449
:100C100060E085E00E94531485E00E94C21421E048
:100C2000892B09F020E020935101089580916402FE
:100C300090916502209152013091530182179307E0
:100C400014F40E94B0058091640290916502209195
:100C50005201309153012817390714F40C94D4052C
:100C6000089580915201909153018831910529F0A6
:100C700001969093530180935201089580915201FF
:100C800090915301009729F001979093530180931D
:100C90005201089582E290E090936502809364028D
:100CA0008091640290916502181619061CF40E9446
:100CB000D405F6CF0895CF93DF936DE177E08BEB0A
:100CC00092E00E944F1768ED76E08BEB92E00E9475
:100CD0004F176EEA76E08BEB92E00E944F176CE9BB
:100CE00076E08BEB92E00E944F1766E676E08BEBA6
:100CF00092E00E944F1764E576E08BEB92E00E9451
:100D00004F1762E476E08BEB92E00E944F1760E3AE
:100D100076E08BEB92E00E944F176EE176E08BEB72
:100D200092E00E944F176CE076E08BEB92E00E941D
:100D30004F174AE050E060E070E08BEB92E00E94D9
:100D4000FA176EEF75E08BEB92E00E941F174AE0F6
:100D500050E061E070E08BEB92E00E94FA1760EFE8
:100D600075E08BEB92E00E941F174AE050E062E0D2
:100D700070E08BEB92E00E94FA1762EE75E08BEB6D
:100D800092E00E941F174AE050E063E070E08BEBB6
:100D900092E00E94FA1764ED75E08BEB92E00E94FE
:100DA0001F178BEB92E00E944B174AE050E064E083
:100DB00070E08BEB92E00E94FA1766EC75E08BEB2B
:100DC00092E00E941F174AE050E065E070E08BEB74
:100DD00092E00E94FA1768EB75E08BEB92E00E94BC
:100DE0001F174AE050E066E070E08BEB92E00E9453
:100DF000FA176AEA75E08BEB92E00E941F174AE04F
:100E000050E067E070E08BEB92E00E94FA176CE92B
:100E100075E08BEB92E00E941F174AE050E068E01B
:100E200070E08BEB92E00E94FA176EE875E08BEBB6
:100E300092E00E941F174AE050E069E070E08BEBFF
:100E400092E00E94FA1760E875E08BEB92E00E9456
:100E50001F178BEB92E00E944B174AE050E06AE0CC
:100E600070E08BEB92E00E94FA1763E775E08BEB82
:100E700092E00E941F174AE050E06BE070E08BEBBD
:100E800092E00E94FA1766E675E08BEB92E00E9412
:100E90001F174AE050E06CE070E08BEB92E00E949C
:100EA000FA1769E575E08BEB92E00E941F174AE0A4
:100EB00050E06DE070E08BEB92E00E94FA176CE47A
:100EC00075E08BEB92E00E941F178BEB92E00E9483
:100ED0004B174AE050E06EE070E08BEB92E00E942E
:100EE000FA176FE375E08BEB92E00E941F174AE060
:100EF00050E06FE070E08BEB92E00E94FA1762E343
:100F000075E08BEB92E00E941F178BEB92E00E9442
:100F10004B174AE050E060E170E08BEB92E00E94FA
:100F2000FA1765E275E08BEB92E00E941F174AE02A
:100F300050E061E170E08BEB92E00E94FA1768E10B
:100F400075E08BEB92E00E941F174AE050E062E1EF
:100F500070E08BEB92E00E94FA176BE075E08BEB90
:100F600092E00E941F178BEB92E00E944B1768EFF4
:100F700074E08BEB92E00E944F174AE050E06CED7A
:100F800070E08BEB92E00E94FA176BEE74E08BEB53
:100F900092E00E941F174AE050E06DED70E08BEB8D
:100FA00092E00E94FA176EED74E08BEB92E00E94E3
:100FB0001F174AE050E06EED70E08BEB92E00E946C
:100FC000FA1761ED74E08BEB92E00E941F174AE084
:100FD00050E06FED70E08BEB92E00E94FA1764EC4A
:100FE00074E08BEB92E00E941F174AE050E060EE45
:100FF00070E08BEB92E00E94FA1767EB74E08BEBEA
:1010000092E00E941F174AE050E061EE70E08BEB27
:1010100092E00E94FA176AEA74E08BEB92E00E9479
:101020001F178BEB92E00E944B174AE050E066EFEF
:1010300070E08BEB92E00E94FA176DE974E08BEBA5
:1010400092E00E941F174AE050E067EF70E08BEBE0
:1010500092E00E94FA1760E974E08BEB92E00E9444
:101060001F174AE050E068EF70E08BEB92E00E94BF
:10107000FA1763E874E08BEB92E00E941F174AE0D6
:1010800050E069EF70E08BEB92E00E94FA1766E7A0
:1010900074E08BEB92E00E941F178BEB92E00E94B2
:1010A0004B17C6EED0E04AE050E0BE018BEB92E079
:1010B0000E94FA176DE674E08BEB92E00E941F1716
:1010C0004AE050E0BE01665E71098BEB92E00E943F
:1010D000FA17C03FD10534F465E771E08BEB92E07D
:1010E0000E94421764E771E08BEB92E00E94421786
:1010F000CE01019783709927892B21F48BEB92E025
:101100000E944B172196C63FD10569F68BEB92E002
:101110000E944B174AE050E06AEF70E08BEB92E0E0
:101120000E94FA1761E674E08BEB92E00E941F17B1
:101130004AE050E06BEF70E08BEB92E00E94FA1710
:1011400065E574E08BEB92E00E941F174AE050E0E7
:101150006CEF70E08BEB92E00E94FA1769E474E0A8
:101160008BEB92E00E941F174AE050E06DEF70E0B9
:101170008BEB92E00E94FA176DE374E08BEB92E048
:101180000E941F178BEB92E00E944B174AE050E041
:101190006AED70E08BEB92E00E94FA1761E374E075
:1011A0008BEB92E00E941F174AE050E069ED70E07F
:1011B0008BEB92E00E94FA1765E274E08BEB92E011
:1011C0000E941F174AE050E068ED70E08BEB92E060
:1011D0000E94FA1769E174E08BEB92E00E941F17FE
:1011E0004AE050E067ED70E08BEB92E00E94FA1766
:1011F0006DE074E08BEB92E00E941F178BEB92E0A6
:101200000E944B174AE050E060E870E08BEB92E000
:101210000E94FA1761E074E08BEB92E00E941F17C6
:101220004AE050E061E870E08BEB92E00E94FA1730
:1012300065EF73E08BEB92E00E941F174AE050E0ED
:1012400062E870E08BEB92E00E94FA1769EE73E0BF
:101250008BEB92E00E941F174AE050E063E870E0D9
:101260008BEB92E00E94FA176DED73E08BEB92E04E
:101270000E941F178BEB92E00E944B174AE050E050
:1012800064E870E08BEB92E00E94FA1761ED73E086
:101290008BEB92E00E941F174AE050E065E870E097
:1012A0008BEB92E00E94FA1765EC73E08BEB92E017
:1012B0000E941F174AE050E066E870E08BEB92E076
:1012C0000E94FA1769EB73E08BEB92E00E941F1704
:1012D0004AE050E067E870E08BEB92E00E94FA177A
:1012E0006DEA73E08BEB92E00E941F178BEB92E0AC
:1012F0000E944B174AE050E062EB70E08BEB92E00B
:101300000E94FA1761EA73E08BEB92E00E941F17CC
:101310004AE050E063EB70E08BEB92E00E94FA173A
:1013200065E973E08BEB92E00E941F174AE050E002
:1013300060EB70E08BEB92E00E94FA1769E873E0D3
:101340008BEB92E00E941F174AE050E061EB70E0E7
:101350008BEB92E00E94FA176DE773E08BEB92E063
:101360000E941F178BEB92E00E944B174AE050E05F
:1013700061ED70E08BEB92E00E94FA1761E773E099
:101380008BEB92E00E941F174AE050E064ED70E0A2
:101390008BEB92E00E94FA1765E673E08BEB92E02C
:1013A0000E941F174AE050E063ED70E08BEB92E083
:1013B0000E94FA1769E573E08BEB92E00E941F1719
:1013C0004AE050E066ED70E08BEB92E00E94FA1785
:1013D0006DE473E08BEB92E00E941F178BEB92E0C1
:1013E0000E944B174AE050E062ED70E08BEB92E018
:1013F0000E94FA1761E473E08BEB92E00E941F17E2
:101400004AE050E065ED70E08BEB92E00E94FA1745
:1014100065E373E08BEB92E00E941F174AE050E017
:1014200061EC70E08BEB92E00E94FA1769E273E0E6
:101430008BEB92E00E941F174AE050E06DE070E0F5
:101440008BEB92E00E94FA176CE173E08BEB92E079
:101450000E941F178BEB92E00E944B174AE050E06E
:1014600062EC70E08BEB92E00E94FA1760E173E0AF
:101470008BEB92E00E941F174AE050E063EC70E0B3
:101480008BEB92E00E94FA1764E073E08BEB92E042
:101490000E941F174AE050E064EC70E08BEB92E092
:1014A0000E94FA1768EF72E08BEB92E00E941F1720
:1014B0004AE050E065EC70E08BEB92E00E94FA1796
:1014C0006CEE72E08BEB92E00E941F178BEB92E0C8
:1014D0000E944B174AE050E066EC70E08BEB92E024
:1014E0000E94FA1760EE72E08BEB92E00E941F17E9
:1014F0004AE050E067EC70E08BEB92E00E94FA1754
:1015000064ED72E08BEB92E00E941F174AE050E01E
:1015100068EC70E08BEB92E00E94FA1768EC72E0E6
:101520008BEB92E00E941F174AE050E069EC70E0FC
:101530008BEB92E00E94FA176CEB72E08BEB92E07F
:101540000E941F178BEB92E00E944B174AE050E07D
:101550006AEC70E08BEB92E00E94FA1760EB72E0AD
:101560008BEB92E00E941F174AE050E06BEC70E0BA
:101570008BEB92E00E94FA1764EA72E08BEB92E048
:101580000E941F174AE050E06CEC70E08BEB92E099
:101590000E94FA1768E972E08BEB92E00E941F1735
:1015A0004AE050E06DEC70E08BEB92E00E94FA179D
:1015B0006CE872E08BEB92E00E941F178BEB92E0DD
:1015C0000E944B178BEB92E00E944B17C1E2D0E0D8
:1015D0004AE050E0BE018BEB92E00E94FA17C4365D
:1015E000D10534F465E771E08BEB92E00E9442177D
:1015F00068E872E08BEB92E00E941F176C2F8BEB78
:1016000092E00E94441760E872E08BEB92E00E9447
:101610001F17CE0183709927892B21F48BEB92E061
:101620000E944B172196CF37D10591F68BEB92E0B4
:10163000DF91CF910C944B170F931F93CF93DF93B0
:1016400000D0CDB7DEB78091500190E02091FC0131
:101650003091FD0128173907E1F10E94261300910E
:10166000F8011091F9012091FA013091FB01601B02
:10167000710B820B930B613D77408105910548F119
:1016800060E572E08BEB92E00E941F174AE050E0A9
:10169000609150018BEB92E00E942E1860915001F6
:1016A0008EE490E09A838983CE0101960E94DD0446
:1016B0000E9426136093F8017093F9018093FA0158
:1016C0009093FB018091500190E09093FD018093F5
:1016D000FC010F900F90DF91CF911F910F91089512
:1016E000EF92FF920F931F93CF93DF9300D0CDB76C
:1016F000DEB761E472E08BEB92E00E944F170AE0E4
:1017000011E088E090E0F80161918F017C01FFEF2A
:10171000EF1AFF0A9A838983CE0101960E94DD04A5
:101720002FE4E216F10411F0C701EDCF0F900F90F6
:10173000DF91CF911F910F91FF90EF9008950F933C
:101740001F93CF93DF930E94FD048823A9F060E7E5
:1017500072E08BEB92E00E944F170AE011E0C8E0C4
:10176000D0E0CE010E94481EF80181938F0121969E
:10177000CF34D105B1F70CC060E672E08BEB92E09C
:101780000E944F17DF91CF911F910F910C94700B16
:10179000DF91CF911F910F910895CF93DF9340E890
:1017A00055E260E070E08BEB92E00E94DC1544E6CD
:1017B00050E060E070E08BEB92E00E94B6180E946F
:1017C0009F0B81E792E00E948B10C0EBD1E062E0BA
:1017D00089910E94531481E0C33CD807C1F761E0AE
:1017E0008DE00E9453140E94F805C09150010E94A0
:1017F0004A068C2F90E0909353018093520180E130
:10180000809381001092800021E02093680280E4A0
:101810009CE990936A028093690290938700809379
:10182000860081E18093810087EE9CE090936702BF
:101830008093660220936F001092810010928500C1
:101840001092840080916802806180938100DF9112
:10185000CF910895462F90E09C01220F331FF9018C
:10186000E80FF91FE65FFE4F648550915D026C3F03
:1018700039F050FF03C075857111672F6D3FA1F1DD
:1018800051FF08C0F901E80FF91FE65FFE4F86859A
:101890008111682F6A3F31F4442309F480C00E940B
:1018A000310607C06B3F51F4442309F478C00E940D
:1018B0003E06809152018093500185C06C3F91F4A7
:1018C00080914F0182FF06C0442309F468C050FD97
:1018D00005C002C0442311F0516001C05E7F5093E7
:1018E0005D025DC06D3F91F480914F0183FF06C0A2
:1018F000442309F46AC051FD05C002C0442311F01D
:10190000526001C05D7F50935D025FC0663F19F475
:1019100061E8640F2BC0673F19F461E8640F2FC0C2
:10192000683F19F461E8640F33C0693F39F461E836
:10193000640F81E792E00E94611036C06C3DB0F107
:101940006E3D81F030F46C3DB1F06D3D31F56FE7E7
:1019500013C0603EC9F020F0613EF9F461E815C0A3
:101960006FE701C061E8469F602D112481E792E096
:101970000E94581019C061E8469F602D112481E72C
:1019800092E00E945B1010C06FE7469F602D11240B
:1019900081E792E00E945E1007C0663EA0F0665E9E
:1019A00081E792E00E942B1081E008956D3050F0A5
:1019B00085E892E0442319F00E94C21004C00E94FE
:1019C000301101C0089580E008956DEFE8CF3F9297
:1019D0004F925F926F927F928F929F92AF92BF923F
:1019E000CF92DF92EF92FF920F931F93CF93DF93EB
:1019F000F6E16F2EF1E07F2ECEEFD1E0A0EB8A2E44
:101A0000A1E09A2E512C412CBEEF3B2EF301808198
:101A1000865FF401843000F580810E94E513BC01EB
:101A2000882777FD8095982F1F921F921F923F92D3
:101A3000A12CB12C6501EE24EA9413E0F12E00E014
:101A400010E020E030E0A9010E947B1DF62E0F90EF
:101A50000F900F900F9008C080810E94C214FF2445
:101A6000F394892B09F0F12C8881F816F1F00E948B
:101A7000261309811A812B813C81601B710B820B1B
:101A8000930B6A3171058105910578F0F8820E9407
:101A9000261369837A838B839C836F2D852D0E9407
:101AA0002A0C882311F044244394F3E06F0E711C38
:101AB000259653948FEF881A980AE3E15E12A6CF19
:101AC0004420A9F081E792E0DF91CF911F910F911F
:101AD000FF90EF90DF90CF90BF90AF909F908F904E
:101AE0007F906F905F904F903F900C946410DF91C7
:101AF000CF911F910F91FF90EF90DF90CF90BF900B
:101B0000AF909F908F907F906F905F904F903F909D
:101B10000895EF92FF920F931F93CF93DF931F923D
:101B2000CDB7DEB78BEB92E00E941515892B09F437
:101B300009C28BEB92E00E94251599278836910502
:101B400009F442C004F58136910509F4FAC07CF429
:101B50008B32910509F4DFC18D9721F70E943E0673
:101B600080915201809350016AEC70E0DCC18436B0
:101B7000910509F486C08736910509F46AC082365A
:101B8000910581F62FC18D36910509F154F48B36FC
:101B9000910509F450C08C36910521F60E949F0BE7
:101BA000C1CF8337910509F4B3C18637910549F058
:101BB0008E36910509F0B6CFEAE8F1E0A6E1B1E092
:101BC00056C065E372E029C00E945B06ABCF8BEB89
:101BD00092E00E94251541E060E070E08BEB92E01E
:101BE0000E94BC188BEB92E069830E9425158BEB59
:101BF00092E00E94251569816623A1F0883619F0CC
:101C0000843781F4B0C1613009F0B7C180914F01D0
:101C10008B7F80934F0164E272E08BEB92E00E9435
:101C20004F1780CF60EC71E08BEB92E00E944F1772
:101C300068E971E0F2CFEDE9F1E0A6E1B1E0819170
:101C40008C93139681E0E03BF807C9F768E871E0F0
:101C5000E4CFE7E7F1E0A6E1B1E081918C93139640
:101C600091E0EA38F907C9F769E771E0D6CF8191C9
:101C70008C93139681E0ED39F807C9F766E671E0B9
:101C8000CCCF61E68BEB92E00E94441706E111E0B5
:101C900065E771E08BEB92E00E9442174AE050E06A
:101CA000F80160818BEB92E00E9427180D5F1F4FB7
:101CB000F1E00F341F0761F707E111E065E771E01C
:101CC0008BEB92E00E9442174AE050E0F8016081FD
:101CD0008BEB92E00E9427180D5F1F4FF1E000355B
:101CE0001F0761F708E111E065E771E08BEB92E017
:101CF0000E9442174AE050E0F80160818BEB92E0CD
:101D00000E9427180D5F1F4FF1E001351F0761F793
:101D100065E771E08BEB92E00E9442174AE050E0E9
:101D200060914F018BEB92E00E94271865E771E00C
:101D30008BEB92E00E9442174AE050E06091500124
:101D4000DBC010E08BEB92E00E9425158032A9F5F4
:101D500041E060E070E08BEB92E00E94BC181A3327
:101D600019F46093500127C0193319F460934F019F
:101D700022C0812F90E0163250F08697FC01EE0FC2
:101D8000FF1FE80FF91FE65FFE4F668714C013318F
:101D900050F04397FC01EE0FFF1FE80FF91FE65FBD
:101DA000FE4F658708C0FC01EE0FFF1FE80FF91F0B
:101DB000E65FFE4F64871F5FC5CF112381F06FE59B
:101DC00071E08BEB92E00E941F174AE050E0612F18
:101DD0008BEB92E00E94271867E571E01ECF66E367
:101DE00071E01BCF8BEB92E00E94251541E060E093
:101DF00070E08BEB92E00E94BC18062F633108F074
:101E000091CE8BEB92E00E94251541E060E070E0FE
:101E10008BEB92E00E94BC18162F662309F475C064
:101E2000802F90E07C01EE0CFF1CE80EF91EC7012C
:101E3000865F9E4F7C0160E0FC0184850E942A0C35
:101E4000F70114876EE271E08BEB92E00E941F179E
:101E50004AE050E0602F8BEB92E00E94271868E286
:101E600071E08BEB92E00E941F174AE050E0612F77
:101E70008BEB92E00E9427188BEB92E00E942515D5
:101E80008097F1F541E060E070E08BEB92E00E941A
:101E9000BC18162F60E0F70185850E942A0CF70117
:101EA000158760E271E08BEB92E00E941F174AE019
:101EB00050E0612F8BEB92E00E9427188BEB92E0B1
:101EC0000E9425158097E1F441E060E070E08BEB23
:101ED00092E00E94BC18162F60E0F70186850E94F0
:101EE0002A0CF701168768E171E08BEB92E00E9403
:101EF0001F174AE050E0612F8BEB92E00E942718F9
:101F00008BEB92E00E944B170DCE6CED70E085CE0E
:101F10000E94700B07CE0E9431068091520180937F
:101F2000500163ED70E08BEB92E00E941F1760910F
:101F30005201709153014AE050E08BEB92E00E9415
:101F40000218F0CD0E9445050E9416060E94350534
:101F5000892B49F10F90DF91CF911F910F91FF9045
:101F6000EF900C941C0B613099F480914F018460C8
:101F700080934F0161E172E050CE623009F0D2CD22
:101F800080914F01877F80934F0160E072E045CEE2
:101F9000623009F0C7CD80914F01886080934F0176
:101FA0006DEE71E03ACE0F90DF91CF911F910F91BE
:101FB000FF90EF9008951F920F920FB60F92112489
:101FC0002F933F934F935F936F937F938F939F9341
:101FD000AF93BF93EF93FF93E0916602F091670296
:101FE0000995FF91EF91BF91AF919F918F917F9153
:101FF0006F915F914F913F912F910F900FBE0F9076
:102000001F901895CF93DF93EC0180917702811197
:1020100013C010926C0210926B0281E697E09093CD
:102020006E0280936D0286E390E09093700280933D
:102030006F0281E0809377020E94CE126BE672E01D
:102040000E945F12188219821A821B821D821C82D2
:10205000DF91CF9108950F931F93FC01A62F8481E8
:102060009581411113C001E010E020E030E0062E20
:1020700004C0000F111F221F331F0A94D2F70095CE
:10208000109508231923158304830FC041E050E005
:1020900060E070E004C0440F551F661F771FAA95CB
:1020A000D2F7482B592B558344831F910F910895E4
:1020B000FC0160830895FC0161830895FC01628343
:1020C0000895FC0163830895CF93DF9300D000D07F
:1020D00000D0CDB7DEB7FC019481858199838A83D6
:1020E00080818B8381818C8382818D8383818E83A8
:1020F0000E94CE1226E030E0AE014F5F5F4F63E0FA
:102100000E947C1226960FB6F894DEBF0FBECDBF9C
:10211000DF91CF9108950C94641081E792E00C94C4
:102120000210FC011382128227EC31E031832083FC
:1021300080919102811113C01092800210927F024F
:1021400087E997E090938202809381028FE290E08A
:10215000909384028093830281E0809391020E9495
:10216000CE126FE772E00C945F12CF93DF93EB0116
:102170000E94CE1228E030E0AE0162E0DF91CF9104
:102180000C947C12CF93DF93DC01683818F0E8E7F9
:10219000E60F25C0E62FF0E067FF11C0E058F10917
:1021A00081E090E001C0880FEA95EAF714969C91CF
:1021B0001497982B14969C931497E0E010C0EA5360
:1021C000F84FE491EE2309F440C0E7FF08C01496ED
:1021D0008C911497826014968C931497EF771696CF
:1021E0008C9116978E1741F117968C9117978E1731
:1021F00019F118968C9118978E17F1F019968C9109
:1022000019978E17C9F01A968C911A978E17A1F00C
:102210001B968C911B978E1779F080E090E0ED0172
:10222000C80FD91F2E81211102C0EE8305C001966F
:1022300086309105A1F709C0BD016C5F7F4FCD01CC
:102240000E94B51081E090E008C081E090E0139614
:102250009C938E93129780E090E0DF91CF91089548
:10226000683818F0E8E7E60F25C0E62FF0E067FFD2
:1022700012C0E058F10921E030E001C0220FEA95D8
:10228000EAF72095DC0114963C91149732231496BA
:102290003C93E0E00FC0EA53F84FE491EE2329F1BC
:1022A000E7FF08C0DC0114962C9114972D7F14963B
:1022B0002C93EF7720E030E0EE2351F0DC01A20F09
:1022C000B31F16964C9116974E1302C016961C9289
:1022D0002F5F3F4F2630310579F7BC016C5F7F4F90
:1022E0000E94B51081E090E0089580E090E00895AC
:1022F000FF920F931F93CF93DF93EC01F62E0E9472
:10230000C2108C016F2DCE010E943011C801992797
:10231000DF91CF911F910F91FF90089585E892E092
:102320000C949110FB0128E4208329E4218324E408
:102330002283DC011D962C911D972F702F5B238328
:102340001D968D919C911E9724E0969587952A95D0
:10235000E1F78F708F5B848385E00895CF93DF93DF
:10236000CDB7DEB769970FB6F894DEBF0FBECDBF0D
:10237000FC01DB018C918F5F8C93BE016F5F7F4FFF
:1023800089E1DB011D928A95E9F799E0998384E060
:102390008A8321E02D8383E08E839A8791E29B8755
:1023A0002C872D872F8792E2988B97E09B8B95E067
:1023B0009C8B8E8B80E490E0988F8F8B298F82810D
:1023C0008B8395858685998B8A8B838180688D8B9D
:1023D00049E150E080E00E94091B69960FB6F8942D
:1023E000DEBF0FBECDBFDF91CF910895DC01FB01B1
:1023F00012962C91129730E0848195812817390725
:10240000D1F491818081813A31F481E0913091F071
:10241000933089F411C0813271F49B3021F48281B0
:102420001F968C9305C09A3031F4828150968C931C
:1024300081E00895089580E00895EF92FF920F9350
:102440001F93CF93DF937C01FB018081813871F56D
:102450008381823259F5D70112968C91129790E0C0
:10246000248135812817390709F51B96CD91DC9118
:102470001C9700E010E0209789F04C815D816A8113
:102480007B8180E80E94091B8F3FBFEF9B0759F0BB
:10249000080F191F0990D881C02DEDCF81E0F701F9
:1024A0008787C80105C08FEF9FEF02C080E090E0F2
:1024B000DF91CF911F910F91FF90EF900895FC0154
:1024C000A385B485109719F47487638709C08D912B
:1024D0009C911197009711F0DC01F9CF6D937C93DB
:1024E00085859685DB0114962D913C911597820F79
:1024F000931F968785870895AF92BF92CF92DF9200
:10250000EF92FF920F931F93CF93DF931F92CDB75C
:10251000DEB77C0169836A01590141E050E0BE01E8
:102520006F5F7F4FFC0183810E946E1A8C0197FDC3
:102530000BC0F7018381A501B60180640E946E1A69
:1025400097FD02C0800F911F0F90DF91CF911F91D7
:102550000F91FF90EF90DF90CF90BF90AF900895D4
:10256000CF93DF93EC0121E02C832D830A969F8388
:102570008E83198618868FEC91E0998388831C8658
:102580001B861E861D862F87288B81EC8A870E94DA
:10259000CD16BE01DF91CF910C9486168091AA02D0
:1025A000811107C089E992E00E94B01281E0809316
:1025B000AA0289E992E008951F920F920FB60F9236
:1025C00011242F933F938F939F93AF93BF93809149
:1025D000B3029091B402A091B502B091B6023091CD
:1025E000B20223E0230F2D3720F40196A11DB11D67
:1025F00005C026E8230F0296A11DB11D2093B2024B
:102600008093B3029093B402A093B502B093B60244
:102610008091B7029091B802A091B902B091BA022C
:102620000196A11DB11D8093B7029093B802A093AB
:10263000B902B093BA02BF91AF919F918F913F9130
:102640002F910F900FBE0F901F9018952FB7F894F1
:102650006091B3027091B4028091B5029091B6027C
:102660002FBF08953FB7F8948091B7029091B802B8
:10267000A091B902B091BA0226B5A89B05C02F3F20
:1026800019F00196A11DB11D3FBF6627782F892F34
:102690009A2F620F711D811D911D42E0660F771FF9
:1026A000881F991F4A95D1F708958F929F92AF92F4
:1026B000BF92CF92DF92EF92FF926B017C010E945A
:1026C00032134B015C01C114D104E104F104F1F0B7
:1026D0000E94D61D0E943213681979098A099B0944
:1026E000683E73408105910570F321E0C21AD1085C
:1026F000E108F10888EE880E83E0981EA11CB11C49
:10270000C114D104E104F10429F7DDCFFF90EF906B
:10271000DF90CF90BF90AF909F908F900895789466
:1027200084B5826084BD84B5816084BD85B58260D6
:1027300085BD85B5816085BDEEE6F0E08081816074
:102740008083E1E8F0E01082808182608083808174
:1027500081608083E0E8F0E0808181608083E1E94E
:10276000F0E0808182608083808181608083E0E905
:10277000F0E0808181608083E1ECF0E08081846022
:102780008083808182608083808181608083E3ECAC
:10279000F0E0808181608083E0ECF0E08081826005
:1027A0008083E2ECF0E0808181608083EAE7F0E002
:1027B0008081846080838081826080838081816069
:1027C00080838081806880830895823108F08251FF
:1027D000E82FF0E0EA5BF74FE49180917B00E3FBA8
:1027E000222720F930E095E0220F331F9A95E1F778
:1027F0008F7D822B80937B00E7708091540120E4D1
:10280000829FC0011124E82BE0937C0080917A0024
:10281000806480937A0080917A0086FDFCCF80915D
:1028200078002091790090E0922B089590E0FC01CF
:102830003197EF30F105B0F5EA5AFF4F0C94281E9E
:10284000809180008F7703C0809180008F7D80937E
:102850008000089580918000877FF9CF84B58F77BD
:1028600002C084B58F7D84BD0895809190008F77DC
:1028700007C0809190008F7D03C080919000877F7A
:102880008093900008958091C0008F7703C080915D
:10289000C0008F7D8093C00008958091C200877F23
:1028A0008093C2000895CF93DF9390E0FC01EF582E
:1028B000F74F2491FC01E057F74F8491882349F1A9
:1028C00090E0880F991FFC01E553F74FA591B49153
:1028D0008354974FFC01C591D4919FB7611108C0F3
:1028E000F8948C91209582238C93888182230AC04E
:1028F000623051F4F8948C91322F309583238C936D
:102900008881822B888304C0F8948C91822B8C93CD
:102910009FBFDF91CF9108950F931F93CF93DF93C4
:102920001F92CDB7DEB7282F30E0F901EE5AF74FEE
:102930008491F901EF58F74F1491F901E057F74FDF
:1029400004910023C9F0882321F069830E941614A2
:102950006981E02FF0E0EE0FFF1FE354F74FA591E0
:10296000B4919FB7F8948C91611103C010958123A5
:1029700001C0812B8C939FBF0F90DF91CF911F914E
:102980000F910895CF93DF93282F30E0F901EE5A8D
:10299000F74F8491F901EF58F74FD491F901E057BF
:1029A000F74FC491CC2391F081110E941614EC2FA3
:1029B000F0E0EE0FFF1FE155F74FA591B4912C9178
:1029C0002D2381E090E021F480E002C080E090E0DF
:1029D000DF91CF910895CF93DF931F92CDB7DEB7EC
:1029E0006983DC01ED91FC910280F381E02D41E0EF
:1029F00050E0BE016F5F7F4F09950F90DF91CF913F
:102A00000895CF93DF93EC018C859D8597FF05C0DA
:102A100082E00E943D1A9D878C878C859D85DF9181
:102A2000CF91089583E00C94D11CFC018485958599
:102A300097FD06C082E00E94E51990E00196089596
:102A400082E00E94E51990E00895FC018485958557
:102A500097FD05C02FEF3FEF35872487089582E06B
:102A60000C943D1ACF93DF93EC0180916001882391
:102A700031F083E00E946E1A1816190634F081E0D6
:102A800090E09B838A8380E090E0DF91CF9108956E
:102A9000FC0120812E5F208342E450E069ED78E064
:102AA00080E80C94091BFC0121818081813A59F452
:102AB000213209F04BC047E050E069E571E080E069
:102AC0000E94091B5EC0813209F040C0233289F4A4
:102AD000838190E0982F88273281832BA0E0B0E09B
:102AE0008093550190935601A0935701B0935801DC
:102AF0000FC0203239F467E070E089E591E00E9470
:102B00003A1B09C0223221F482818093600103C004
:102B10002D7F2032B1F580910B03811103C0E0E0DD
:102B2000F8E002C0EEEFFAE08091590190915A016D
:102B3000A0915B01B0915C01803B9440A105B1057F
:102B400011F58091600180FF03C01DC080E00895F1
:102B5000EE3F2AE0F20731F0808191819093FF0AE5
:102B60008093FE0A87E797E7918380832BE088E1D3
:102B700090E00FB6F894A895809360000FBE209364
:102B8000600081E0089588E10FB6F89480936000BA
:102B9000109260000FBEA895EE3F8AE0F80739F06A
:102BA0008091FE0A9091FF0A91838083EACF109270
:102BB000FF0A1092FE0AE5CF2FEF3FEFFC013587A9
:102BC000248708951092BE021092BD0288EE93E011
:102BD000A0E0B0E08093BF029093C002A093C10236
:102BE000B093C2028BED91E09093BC028093BB0244
:102BF0008FEF9FEF9093C8028093C7020895EF92E2
:102C0000FF920F931F93CF93DF937B01FC01C2814F
:102C1000D38100E010E0209781F0E881F981028003
:102C2000F381E02DB701CE01099597FD08C0080F8B
:102C3000191F0884D985C02DEECFC80102C08FEFBF
:102C40009FEFDF91CF911F910F91FF90EF9008952B
:102C50000F931F93CF93DF938B01FC01C281D3812C
:102C6000209771F0E881F9810480F581E02DB801A9
:102C7000CE010995009731F40884D985C02DF0CF95
:102C800080E090E0DF91CF911F910F9108950F9315
:102C90001F93CF93DF938B01FC01C281D3812097D7
:102CA00071F0E881F9810680F781E02DB801CE014D
:102CB0000995080F111D0884D985C02DF0CFF801A2
:102CC0001082DF91CF911F910F9108950F931F9361
:102CD000CF93DF938B01FC01C281D381209771F0E8
:102CE000E881F9810190F081E02DB801CE010995CC
:102CF000811106C00884D985C02DF0CF80E001C0C5
:102D000081E0DF91CF911F910F910895CF93DF93D1
:102D1000FC01DB01218114968C91149790E0820FC5
:102D2000911D0897B4F5C281D381209719F473835C
:102D3000628308C088859985009711F0EC01FACF6D
:102D4000B987A887808112968C93129781811396F8
:102D50008C931397808115969C911597890F80838A
:102D600080E014969C911497891788F41696CD915B
:102D7000DC911797C80FD11D9881C181D0E0CF5940
:102D8000DE4F988391819F5F91838F5FEACF81E0CF
:102D900001C080E0DF91CF910895809110038111EF
:102DA0000DC082E080930C0384E080930D031092A9
:102DB0000F0310920E0381E0809310038CE093E0E8
:102DC0000895CF92DF92EF92FF920F931F93CF93CC
:102DD000DF937C016A01EB0100E010E00C151D059A
:102DE00071F06991D701ED91FC910190F081E02D96
:102DF000C7010995892B19F00F5F1F4FEFCFC8014D
:102E0000DF91CF911F910F91FF90EF90DF90CF90C6
:102E100008956115710581F0DB010D900020E9F73F
:102E2000AD0141505109461B570BDC01ED91FC915E
:102E30000280F381E02D099480E090E00895EF9204
:102E4000FF920F931F93CF93DF938C017B01C0E020
:102E5000D0E0F701EC0FFD1F6491662359F0F801F3
:102E6000A081B181ED91FC91C8010995892B11F0E8
:102E70002196EFCFCE01DF91CF911F910F91FF905F
:102E8000EF9008950C940917DC01ED91FC910190ED
:102E9000F081E02D099467EE71E00C9409170F930F
:102EA0001F93CF93DF93EC010E941F178C01CE017B
:102EB0000E944B17800F911FDF91CF911F910F91AF
:102EC00008958F929F92AF92BF92DF92EF92FF92FE
:102ED0000F931F93CF93DF93CDB7DEB7A1970FB6B4
:102EE000F894DEBF0FBECDBF7C01F42FD52ECB01F1
:102EF00019A2223008F42AE08E010F5D1F4F822EA6
:102F0000912CA12CB12C6F2F7D2DA50194010E9435
:102F1000E71DF22FD32ECA01015011096A3014F4B3
:102F2000E0E301C0E7E3E60FD801EC93232B242B69
:102F3000252B49F7B801C7010E940917A1960FB6C2
:102F4000F894DEBF0FBECDBFDF91CF911F910F91DF
:102F5000FF90EF90DF90BF90AF909F908F9008957B
:102F6000CF92DF92EF92FF920F931F93CF93DF9355
:102F7000EC016A017B012115310579F4E881F981C1
:102F80000190F081E02D642FDF91CF911F910F917F
:102F9000FF90EF90DF90CF9009942A303105E9F44B
:102FA00077FF1AC06DE20E9444178C014427552711
:102FB000BA014C195D096E097F092AE0CE010E9411
:102FC0006117800F911FDF91CF911F910F91FF909B
:102FD000EF90DF90CF9008952AE0B701A601CE01CF
:102FE000DF91CF911F910F91FF90EF90DF90CF90E5
:102FF0000C9461179A01AB01662757FD6095762FF7
:103000000C94B0170F931F93CF93DF93EC019A01A9
:10301000AB01662757FD6095762F0E94B0178C0193
:10302000CE010E944B17800F911FDF91CF911F910E
:103030000F9108952115310541F4DC01ED91FC91CA
:103040000190F081E02D642F09940C9461179A018E
:10305000462F50E060E070E00C941A180F931F9315
:10306000CF93DF93EC019A01462F50E060E070E0CF
:103070000E941A188C01CE010E944B17800F911FDD
:10308000DF91CF911F910F9108950F931F93CF93CD
:10309000DF93EC010E942613688779878A879B87D4
:1030A000E881F9810084F185E02DCE01099597FF33
:1030B00015C00E942613088519852A853B85601B4B
:1030C000710B820B930B0C811D812E813F81601748
:1030D00071078207930720F38FEF9FEFDF91CF9166
:1030E0001F910F910895FF920F931F93CF93DF933A
:1030F000EC018B01F42ECE010E9445189C0197FD36
:1031000028C08D32910519F1C0970A9710F1FF2060
:1031100019F02E323105F9F001301105F9F00230C5
:10312000110569F42D30310551F034F4295031097D
:103130002230310520F012C02032310579F4E881C7
:10314000F9810680F781E02DCE010995D4CF8DE27B
:1031500003C0C90105C08EE290E002C08FEF9FEF6F
:10316000DF91CF911F910F91FF900895FC0144834F
:103170005583668377830895CF92DF92FF920F93F2
:103180001F93CF93DF9300D000D0CDB7DEB76C0193
:10319000042F40E00E947318FC0197FD4BC020E013
:1031A00030E0A901F12C112707FD1095E017F10778
:1031B000E9F0ED32F105C1F0CF01C0970A97B0F404
:1031C000AAE0B0E00E942E1E9B01AC01CF01AA270D
:1031D00097FDA095BA2F280F391F4A1F5B1F205358
:1031E00031094109510902C0FF24F394D601ED9140
:1031F000FC910680F781E02DC60129833A834B8339
:103200005C830995C6010E944518FC01C09729817D
:103210003A814B815C810A9748F2E017F10731F25D
:10322000FF2061F066277727CB01621B730B840BAD
:10323000950B06C060E070E0CB0102C0CA01B90185
:103240000F900F900F900F90DF91CF911F910F91E2
:10325000FF90DF90CF900895615030F02091F10001
:10326000FC0120830196F8CF289884E680932103FF
:10327000089540911C0350911D0320911A03309131
:103280001B0342175307B4F49091E8009570E1F3E3
:103290009091E80092FD19C08093F10080911C0389
:1032A00090911D0301968F739927892B19F48EEF46
:1032B0008093E80080911C0390911D0301969093E8
:1032C0001D0380931C0381E0089580E00895CF9250
:1032D000DF92EF92FF920F931F93CF93DF931F9292
:1032E000CDB7DEB7082F162FF42E862F880F8E5FEE
:1032F00099830E94391983E00E943919E02EC02E6B
:103300009981D92E8C2D8E19811798F4F601F7FE2C
:1033100002C0849101C080810E943919082F80E089
:103320000E9439198023FFEFCF1ADF0A8111EACFFB
:1033300001C081E00F90DF91CF911F910F91FF901D
:10334000EF90DF90CF9008958091D70081608093B7
:10335000D70080EA8093D80089B5806189BD89B59E
:10336000826089BD09B400FEFDCF61E070E080E0BD
:1033700090E00E9455138091D8008F7C80618093EB
:10338000D8008091E000807F8093E0000895CF9383
:10339000DF931F92CDB7DEB71982CE0101960E944E
:1033A00048150E94CD16BE016F5F7F4F0E94FF152A
:1033B00089810F90DF91CF9108952FB7FC01208371
:1033C000F89467706093E9000895CF93DF931F929C
:1033D000CDB7DEB7682FCE0101960E94DD1980912E
:1033E000F20099819FBF0F90DF91CF910895FF92D6
:1033F0000F931F93CF93DF9300D0CDB7DEB7F62E98
:103400008A0190912003992311F057FF03C08FEF99
:103410009FEF2BC0682FCE0101967A830E94DD19A1
:103420008091F20090E0A8017A81801791070CF456
:10343000AC01EF2DF72FF40E84E6FE1639F0289834
:10344000809321039091F1009193F7CF411551059D
:1034500021F08091F200882321F089818FBFCA0179
:1034600004C08BE68093E800F8CF0F900F90DF91B7
:10347000CF911F910F91FF900895CF93DF931F92EB
:10348000CDB7DEB741E050E0BE016F5F7F4F0E94D5
:10349000F719019719F4898190E002C08FEF9FEF2F
:1034A0000F90DF91CF910895CF93DF931F92CDB707
:1034B000DEB7682FCE0101960E94DD199091E800D9
:1034C000892F807295FF04C09091F20080E4891BDF
:1034D00099819FBF0F90DF91CF9108956F927F9256
:1034E0008F929F92AF92BF92CF92DF92EF92FF9214
:1034F0000F931F93CF93DF931F92CDB7DEB7782E34
:103500007B01C42EB52E80912003882369F0042FFF
:10351000152F8AEFD82E872D8072982E9AE3A92E28
:10352000872D8074882E11C08FEF9FEF57C0872D95
:103530000E94541A682E81110CC0DA94A9F361E03C
:1035400070E080E090E00E9455130115110579F7B5
:103550003BC0282F30E0021713070CF4602E672DB4
:10356000CE0101960E94DD198091E80085FF29C0F7
:10357000262D30E0021B130B992039F06A948FEF4F
:103580006816B1F01092F100F9CFF701862D77FEA1
:1035900007C0815058F094919093F1003196F9CF83
:1035A000815020F091919093F100FACFE20EF31E3A
:1035B0008091E80085FF0FC00115110511F48110FD
:1035C0000AC089818FBFC1CF5D9884E680932203B2
:1035D0008C2D9B2D03C0A092E800F3CF0F90DF91BC
:1035E000CF911F910F91FF90EF90DF90CF90BF9000
:1035F000AF909F908F907F906F9008951092E90008
:1036000010921D0310921C0390931B0380931A03C6
:103610000895CF92DF92FF920F931F93CF93DF9382
:1036200000D0CDB7DEB7F82E8A016B010115110568
:10363000B1F0F601F7FE02C0849101C08081498398
:103640005A830E94391901501109FFEFCF1ADF0A7E
:1036500049815A818111EACF8FEF9FEF01C0CA01E2
:103660000F900F90DF91CF911F910F91FF90DF90FE
:10367000CF900895BF92CF92DF92EF92FF920F9377
:103680001F93CF93DF936C018B01EB013BEFB32EC4
:103690002097C1F07E01C134D1051CF020E4E22E58
:1036A000F12C8091E80082FFFCCFC8018C1B9D0BA0
:1036B0006E2D8C0D9D1D0E942C19B092E800CE1924
:1036C000DF09E6CFC801DF91CF911F910F91FF90E5
:1036D000EF90DF90CF90BF9008951F920F920FB69A
:1036E0000F921124DF92EF92FF920F931F932F936B
:1036F0003F934F935F936F937F938F939F93AF937A
:10370000BF93EF93FF93CF93DF93CDB7DEB76C9763
:10371000DEBFCDBF1092E9008091E80083FF23C196
:1037200068E0CE0145960E942C1982EF8093E80054
:103730003D8937FF05C08091E80080FFFCCF03C0C2
:103740008EEF8093E800832F807609F0F0C02E89F9
:103750004F89D88C21110CC0303829F480911F0377
:103760008093F10002C01092F1001092F100F4C0B9
:10377000842F90E09D29213049F43111EDC001974B
:1037800009F0EAC080911F038D7F0AC0233059F4ED
:103790003111E2C0019709F0DFC080911F03826000
:1037A00080931F03D9C0253041F48091E80080FF49
:1037B000FCCF40684093E300CFC0263009F08DC0B5
:1037C000EB8CFC8C22E0D2122CC080E090E00E94B6
:1037D000FE1A0E94C71999E08E010F5F1F4FF80172
:1037E000292F11922A95E9F79983DA8291E09E8335
:1037F00090EA98879AEF998720911C0330911D03D6
:10380000275F3F4F3C832B838D83C7010E94FE1AA5
:1038100049E050E0B80180E00E94091B0E94C719EE
:103820009BC0C7010E94FE1A0E94CD16BE016B5EAE
:103830007F4F0E942816009719F00CF08DC090C0A1
:1038400081E0D8120EC08B8D9C8D089719F481E011
:10385000809319038091190381112FC06DE279E0E3
:1038600031C0E3E0DE127CC08F89882349F18230C9
:1038700029F440E860E18BE499E01CC0813029F430
:1038800040E86BE08FE399E015C0833009F068C031
:103890000E94CD168E010F5F1F4FB8010E94471680
:1038A000F80101900020E9F73197E01BF10B40E0AF
:1038B0006E2FC8010E9467194DC06BE179E002C00C
:1038C0006CE579E06115710509F44AC0FB0144918A
:1038D00050E080E80E94091B3FC0273009F440C037
:1038E000283021F481E08093F10036C02930A1F521
:1038F0003370B1F5E2E6F1E081E021E036E390815A
:10390000992361F08093E9002093EB0091919093CB
:10391000EC003093ED008F5F873089F78EE780935E
:10392000EA001092EA008F898093200315C08B8DE6
:103930009C8D0E94FE1A898D811105C0CE0145968D
:103940000E94531507C00E94CD16BE016B5E7F4FCB
:103950000E946616882321F08EEF8093E80003C052
:1039600081E28093EB006C960FB6F894DEBF0FBE39
:10397000CDBFDF91CF91FF91EF91BF91AF919F911B
:103980008F917F916F915F914F913F912F911F91F7
:103990000F91FF90EF90DF900F900FBE0F901F9050
:1039A00018958093E9008091F200882319F08AE34A
:1039B0008093E80008951F920F920FB60F92112482
:1039C0002F933F934F935F936F937F938F939F9327
:1039D000AF93BF93CF93EF93FF93C091E10080919A
:1039E000E100837F8093E1008093E100C3FF0FC07B
:1039F0001092E90081E08093EB001092EC0082E3EA
:103A00008093ED001092200388E08093F000C2FFC5
:103A100019C083E00E94D11C80912203882339F0D1
:103A200080912203815080932203882389F1809121
:103A30002103882339F08091210381508093210351
:103A4000882341F1C4FF10C08091E2008E7E816026
:103A50008093E2008091E1008F7E8093E10080916D
:103A60001E038E7E806111C0C0FF16C08091E200EF
:103A70008E7E80618093E2008091E1008E7E809353
:103A8000E10080911E038E7E816080931E0304C03E
:103A90005D9ACDCF289AD6CFFF91EF91CF91BF916C
:103AA000AF919F918F917F916F915F914F913F91D6
:103AB0002F910F900FBE0F901F901895109220031A
:103AC00010921F0310921E030E94A4198091E1001E
:103AD0008E7E8093E1008DE08093E200559A209ADB
:103AE000EEEFFFE7859194918B3F9C4D19F481E0B7
:103AF00080930B0308954F925F926F927F92AF92E3
:103B0000BF92CF92DF92EF92FF920F931F93CF93CA
:103B1000DF93CDB7DEB729013A01621B730B840B2B
:103B2000950B29893A894B895C892A193B094C09EB
:103B30005D09298B3A8B4B8B5C8B9B01AC016989AE
:103B40007A898B899C890E94D71DE418F50806099B
:103B50001709A80197010E94091E2A0D3B1D4C1D43
:103B60005D1DCA01B901DF91CF911F910F91FF90A7
:103B7000EF90DF90CF90BF90AF907F906F905F906D
:103B80004F90089508950E948F130E94C21D88E1EE
:103B900093E00E945E1D0E94CD0BC0E0D0E00E9429
:103BA000890D2097E1F30E940000F9CF0895DB0111
:103BB0008F939F930E942E1EBF91AF91A29F800D65
:103BC000911DA39F900DB29F900D11240895A1E225
:103BD0001A2EAA1BBB1BFD010DC0AA1FBB1FEE1F87
:103BE000FF1FA217B307E407F50720F0A21BB30BD2
:103BF000E40BF50B661F771F881F991F1A9469F74E
:103C000060957095809590959B01AC01BD01CF01A9
:103C10000895052E97FB1EF400940E94201E57FD68
:103C200007D00E94E71D07FC03D04EF40C94201E21
:103C300050954095309521953F4F4F4F5F4F0895D8
:103C400090958095709561957F4F8F4F9F4F089508
:103C5000EE0FFF1F0590F491E02D09940E94391E8C
:103C6000A59F900DB49F900DA49F800D911D1124D0
:103C70000895A29FB001B39FC001A39F700D811D45
:103C80001124911DB29F700D811D1124911D089565
:103C9000F999FECF92BD81BDF89A992780B5089514
:103CA000262FF999FECF1FBA92BD81BD20BD0FB658
:103CB000F894FA9AF99A0FBE01960895F894FFCFF6
:103CC0000000230380000100000050696361646507
:103CD0002062322E3300DA0000D90000D80000D76D
:103CE00000008000008200002000008100007A00B7
:103CF00000780000730000630000B00000B1000015
:103D00007500006400006900006F00007000000092
:103D10001401180001FFFFFFFF00E1000000000098
:103D20000000C18081000000506963616465206209
:103D3000322E3300202000DCDDDEDFE6E7E8E9EAB2
:103D4000EBECEDEEEFF0F1F2F3F4F8F9F6F7E6E76D
:103D5000E8E9EAEBECEDEEEFF0F1F2F3F4DAD9D8C2
:103D6000D7808220817A787363B0B1FAFB696F7073
:103D7000191A1C1B1716151413120C040001030248
:103D8000100E0F000000007811E11600000000F690
:103D900011AE111D12921100000000EB1432151526
:103DA000152515011512150D0A006E616E00696E5C
:083DB00066006F7666002E002C
:00000001FF
